{
  "_format": "hh-sol-artifact-1",
  "contractName": "OnChainCanvas",
  "sourceName": "contracts/OnChainCanvas.sol",
  "abi": [
    {
      "inputs": [
        {
          "internalType": "contract IAssetStoreRegistry",
          "name": "_registry",
          "type": "address"
        },
        {
          "internalType": "contract IAssetStoreEx",
          "name": "_assetStore",
          "type": "address"
        },
        {
          "internalType": "address",
          "name": "_developer",
          "type": "address"
        },
        {
          "internalType": "contract IProxyRegistry",
          "name": "_proxyRegistry",
          "type": "address"
        }
      ],
      "stateMutability": "nonpayable",
      "type": "constructor"
    },
    {
      "inputs": [],
      "name": "ApprovalCallerNotOwnerNorApproved",
      "type": "error"
    },
    {
      "inputs": [],
      "name": "ApprovalQueryForNonexistentToken",
      "type": "error"
    },
    {
      "inputs": [],
      "name": "BalanceQueryForZeroAddress",
      "type": "error"
    },
    {
      "inputs": [],
      "name": "MintERC2309QuantityExceedsLimit",
      "type": "error"
    },
    {
      "inputs": [],
      "name": "MintToZeroAddress",
      "type": "error"
    },
    {
      "inputs": [],
      "name": "MintZeroQuantity",
      "type": "error"
    },
    {
      "inputs": [],
      "name": "NotCompatibleWithSpotMints",
      "type": "error"
    },
    {
      "inputs": [],
      "name": "OwnerQueryForNonexistentToken",
      "type": "error"
    },
    {
      "inputs": [],
      "name": "OwnershipNotInitializedForExtraData",
      "type": "error"
    },
    {
      "inputs": [],
      "name": "SequentialMintExceedsLimit",
      "type": "error"
    },
    {
      "inputs": [],
      "name": "SequentialUpToTooSmall",
      "type": "error"
    },
    {
      "inputs": [],
      "name": "SpotMintTokenIdTooSmall",
      "type": "error"
    },
    {
      "inputs": [],
      "name": "TokenAlreadyExists",
      "type": "error"
    },
    {
      "inputs": [],
      "name": "TransferCallerNotOwnerNorApproved",
      "type": "error"
    },
    {
      "inputs": [],
      "name": "TransferFromIncorrectOwner",
      "type": "error"
    },
    {
      "inputs": [],
      "name": "TransferToNonERC721ReceiverImplementer",
      "type": "error"
    },
    {
      "inputs": [],
      "name": "TransferToZeroAddress",
      "type": "error"
    },
    {
      "inputs": [],
      "name": "URIQueryForNonexistentToken",
      "type": "error"
    },
    {
      "anonymous": false,
      "inputs": [
        {
          "indexed": true,
          "internalType": "address",
          "name": "owner",
          "type": "address"
        },
        {
          "indexed": true,
          "internalType": "address",
          "name": "approved",
          "type": "address"
        },
        {
          "indexed": true,
          "internalType": "uint256",
          "name": "tokenId",
          "type": "uint256"
        }
      ],
      "name": "Approval",
      "type": "event"
    },
    {
      "anonymous": false,
      "inputs": [
        {
          "indexed": true,
          "internalType": "address",
          "name": "owner",
          "type": "address"
        },
        {
          "indexed": true,
          "internalType": "address",
          "name": "operator",
          "type": "address"
        },
        {
          "indexed": false,
          "internalType": "bool",
          "name": "approved",
          "type": "bool"
        }
      ],
      "name": "ApprovalForAll",
      "type": "event"
    },
    {
      "anonymous": false,
      "inputs": [
        {
          "indexed": true,
          "internalType": "uint256",
          "name": "fromTokenId",
          "type": "uint256"
        },
        {
          "indexed": false,
          "internalType": "uint256",
          "name": "toTokenId",
          "type": "uint256"
        },
        {
          "indexed": true,
          "internalType": "address",
          "name": "from",
          "type": "address"
        },
        {
          "indexed": true,
          "internalType": "address",
          "name": "to",
          "type": "address"
        }
      ],
      "name": "ConsecutiveTransfer",
      "type": "event"
    },
    {
      "anonymous": false,
      "inputs": [
        {
          "indexed": true,
          "internalType": "address",
          "name": "previousOwner",
          "type": "address"
        },
        {
          "indexed": true,
          "internalType": "address",
          "name": "newOwner",
          "type": "address"
        }
      ],
      "name": "OwnershipTransferred",
      "type": "event"
    },
    {
      "anonymous": false,
      "inputs": [
        {
          "indexed": true,
          "internalType": "address",
          "name": "from",
          "type": "address"
        },
        {
          "indexed": true,
          "internalType": "address",
          "name": "to",
          "type": "address"
        },
        {
          "indexed": true,
          "internalType": "uint256",
          "name": "tokenId",
          "type": "uint256"
        }
      ],
      "name": "Transfer",
      "type": "event"
    },
    {
      "inputs": [
        {
          "internalType": "address",
          "name": "to",
          "type": "address"
        },
        {
          "internalType": "uint256",
          "name": "tokenId",
          "type": "uint256"
        }
      ],
      "name": "approve",
      "outputs": [],
      "stateMutability": "payable",
      "type": "function"
    },
    {
      "inputs": [],
      "name": "assetComposer",
      "outputs": [
        {
          "internalType": "contract AssetComposer",
          "name": "",
          "type": "address"
        }
      ],
      "stateMutability": "view",
      "type": "function"
    },
    {
      "inputs": [
        {
          "internalType": "uint256",
          "name": "_tokenId",
          "type": "uint256"
        }
      ],
      "name": "assetIdOfToken",
      "outputs": [
        {
          "internalType": "uint256",
          "name": "",
          "type": "uint256"
        }
      ],
      "stateMutability": "view",
      "type": "function"
    },
    {
      "inputs": [],
      "name": "assetStore",
      "outputs": [
        {
          "internalType": "contract IAssetStoreEx",
          "name": "",
          "type": "address"
        }
      ],
      "stateMutability": "view",
      "type": "function"
    },
    {
      "inputs": [
        {
          "internalType": "address",
          "name": "owner",
          "type": "address"
        }
      ],
      "name": "balanceOf",
      "outputs": [
        {
          "internalType": "uint256",
          "name": "",
          "type": "uint256"
        }
      ],
      "stateMutability": "view",
      "type": "function"
    },
    {
      "inputs": [],
      "name": "description",
      "outputs": [
        {
          "internalType": "string",
          "name": "",
          "type": "string"
        }
      ],
      "stateMutability": "view",
      "type": "function"
    },
    {
      "inputs": [],
      "name": "developer",
      "outputs": [
        {
          "internalType": "address",
          "name": "",
          "type": "address"
        }
      ],
      "stateMutability": "view",
      "type": "function"
    },
    {
      "inputs": [
        {
          "internalType": "string",
          "name": "_svgPart",
          "type": "string"
        },
        {
          "internalType": "uint256",
          "name": "_style",
          "type": "uint256"
        },
        {
          "internalType": "string",
          "name": "_tag",
          "type": "string"
        }
      ],
      "name": "generateSVG",
      "outputs": [
        {
          "internalType": "string",
          "name": "",
          "type": "string"
        }
      ],
      "stateMutability": "pure",
      "type": "function"
    },
    {
      "inputs": [
        {
          "internalType": "uint256",
          "name": "_tokenId",
          "type": "uint256"
        }
      ],
      "name": "generateSVGPart",
      "outputs": [
        {
          "internalType": "string",
          "name": "",
          "type": "string"
        },
        {
          "internalType": "string",
          "name": "",
          "type": "string"
        }
      ],
      "stateMutability": "view",
      "type": "function"
    },
    {
      "inputs": [
        {
          "internalType": "uint256",
          "name": "tokenId",
          "type": "uint256"
        }
      ],
      "name": "getApproved",
      "outputs": [
        {
          "internalType": "address",
          "name": "",
          "type": "address"
        }
      ],
      "stateMutability": "view",
      "type": "function"
    },
    {
      "inputs": [],
      "name": "getCurrentToken",
      "outputs": [
        {
          "internalType": "uint256",
          "name": "",
          "type": "uint256"
        }
      ],
      "stateMutability": "view",
      "type": "function"
    },
    {
      "inputs": [
        {
          "internalType": "address",
          "name": "owner",
          "type": "address"
        },
        {
          "internalType": "address",
          "name": "operator",
          "type": "address"
        }
      ],
      "name": "isApprovedForAll",
      "outputs": [
        {
          "internalType": "bool",
          "name": "",
          "type": "bool"
        }
      ],
      "stateMutability": "view",
      "type": "function"
    },
    {
      "inputs": [],
      "name": "mintPrice",
      "outputs": [
        {
          "internalType": "uint256",
          "name": "",
          "type": "uint256"
        }
      ],
      "stateMutability": "view",
      "type": "function"
    },
    {
      "inputs": [
        {
          "components": [
            {
              "internalType": "string",
              "name": "group",
              "type": "string"
            },
            {
              "internalType": "string",
              "name": "category",
              "type": "string"
            },
            {
              "internalType": "string",
              "name": "name",
              "type": "string"
            },
            {
              "internalType": "string",
              "name": "minter",
              "type": "string"
            },
            {
              "internalType": "address",
              "name": "soulbound",
              "type": "address"
            },
            {
              "internalType": "bytes",
              "name": "metadata",
              "type": "bytes"
            },
            {
              "components": [
                {
                  "internalType": "bytes",
                  "name": "body",
                  "type": "bytes"
                },
                {
                  "internalType": "string",
                  "name": "color",
                  "type": "string"
                }
              ],
              "internalType": "struct IAssetStoreRegistry.Part[]",
              "name": "parts",
              "type": "tuple[]"
            }
          ],
          "internalType": "struct IAssetStoreRegistry.AssetInfo",
          "name": "_assetInfo",
          "type": "tuple"
        },
        {
          "internalType": "uint256",
          "name": "_affiliate",
          "type": "uint256"
        },
        {
          "internalType": "uint256",
          "name": "_strokeWidth",
          "type": "uint256"
        },
        {
          "components": [
            {
              "internalType": "uint256",
              "name": "tokenId",
              "type": "uint256"
            },
            {
              "internalType": "string",
              "name": "fill",
              "type": "string"
            },
            {
              "internalType": "string",
              "name": "transform",
              "type": "string"
            },
            {
              "internalType": "uint256",
              "name": "stroke",
              "type": "uint256"
            }
          ],
          "internalType": "struct OnChainCanvas.RemixInfo[]",
          "name": "_remixes",
          "type": "tuple[]"
        },
        {
          "components": [
            {
              "internalType": "uint256",
              "name": "assetId",
              "type": "uint256"
            },
            {
              "internalType": "string",
              "name": "provider",
              "type": "string"
            },
            {
              "internalType": "string",
              "name": "fill",
              "type": "string"
            },
            {
              "internalType": "string",
              "name": "transform",
              "type": "string"
            },
            {
              "internalType": "uint256",
              "name": "stroke",
              "type": "uint256"
            }
          ],
          "internalType": "struct IAssetComposer.AssetLayer[]",
          "name": "_overlays",
          "type": "tuple[]"
        }
      ],
      "name": "mintWithAsset",
      "outputs": [],
      "stateMutability": "payable",
      "type": "function"
    },
    {
      "inputs": [],
      "name": "name",
      "outputs": [
        {
          "internalType": "string",
          "name": "",
          "type": "string"
        }
      ],
      "stateMutability": "view",
      "type": "function"
    },
    {
      "inputs": [],
      "name": "owner",
      "outputs": [
        {
          "internalType": "address",
          "name": "",
          "type": "address"
        }
      ],
      "stateMutability": "view",
      "type": "function"
    },
    {
      "inputs": [
        {
          "internalType": "uint256",
          "name": "tokenId",
          "type": "uint256"
        }
      ],
      "name": "ownerOf",
      "outputs": [
        {
          "internalType": "address",
          "name": "",
          "type": "address"
        }
      ],
      "stateMutability": "view",
      "type": "function"
    },
    {
      "inputs": [],
      "name": "proxyRegistry",
      "outputs": [
        {
          "internalType": "contract IProxyRegistry",
          "name": "",
          "type": "address"
        }
      ],
      "stateMutability": "view",
      "type": "function"
    },
    {
      "inputs": [],
      "name": "registry",
      "outputs": [
        {
          "internalType": "contract IAssetStoreRegistry",
          "name": "",
          "type": "address"
        }
      ],
      "stateMutability": "view",
      "type": "function"
    },
    {
      "inputs": [
        {
          "internalType": "uint256",
          "name": "",
          "type": "uint256"
        }
      ],
      "name": "remixBase",
      "outputs": [
        {
          "internalType": "uint256",
          "name": "",
          "type": "uint256"
        }
      ],
      "stateMutability": "view",
      "type": "function"
    },
    {
      "inputs": [],
      "name": "renounceOwnership",
      "outputs": [],
      "stateMutability": "nonpayable",
      "type": "function"
    },
    {
      "inputs": [
        {
          "internalType": "address",
          "name": "from",
          "type": "address"
        },
        {
          "internalType": "address",
          "name": "to",
          "type": "address"
        },
        {
          "internalType": "uint256",
          "name": "tokenId",
          "type": "uint256"
        }
      ],
      "name": "safeTransferFrom",
      "outputs": [],
      "stateMutability": "payable",
      "type": "function"
    },
    {
      "inputs": [
        {
          "internalType": "address",
          "name": "from",
          "type": "address"
        },
        {
          "internalType": "address",
          "name": "to",
          "type": "address"
        },
        {
          "internalType": "uint256",
          "name": "tokenId",
          "type": "uint256"
        },
        {
          "internalType": "bytes",
          "name": "_data",
          "type": "bytes"
        }
      ],
      "name": "safeTransferFrom",
      "outputs": [],
      "stateMutability": "payable",
      "type": "function"
    },
    {
      "inputs": [
        {
          "internalType": "address",
          "name": "operator",
          "type": "address"
        },
        {
          "internalType": "bool",
          "name": "approved",
          "type": "bool"
        }
      ],
      "name": "setApprovalForAll",
      "outputs": [],
      "stateMutability": "nonpayable",
      "type": "function"
    },
    {
      "inputs": [
        {
          "internalType": "string",
          "name": "_description",
          "type": "string"
        }
      ],
      "name": "setDescription",
      "outputs": [],
      "stateMutability": "nonpayable",
      "type": "function"
    },
    {
      "inputs": [
        {
          "internalType": "uint256",
          "name": "_price",
          "type": "uint256"
        }
      ],
      "name": "setMintPrice",
      "outputs": [],
      "stateMutability": "nonpayable",
      "type": "function"
    },
    {
      "inputs": [],
      "name": "styles",
      "outputs": [
        {
          "internalType": "uint256",
          "name": "",
          "type": "uint256"
        }
      ],
      "stateMutability": "pure",
      "type": "function"
    },
    {
      "inputs": [
        {
          "internalType": "bytes4",
          "name": "interfaceId",
          "type": "bytes4"
        }
      ],
      "name": "supportsInterface",
      "outputs": [
        {
          "internalType": "bool",
          "name": "",
          "type": "bool"
        }
      ],
      "stateMutability": "view",
      "type": "function"
    },
    {
      "inputs": [],
      "name": "symbol",
      "outputs": [
        {
          "internalType": "string",
          "name": "",
          "type": "string"
        }
      ],
      "stateMutability": "view",
      "type": "function"
    },
    {
      "inputs": [
        {
          "internalType": "uint256",
          "name": "_tokenId",
          "type": "uint256"
        }
      ],
      "name": "tokenURI",
      "outputs": [
        {
          "internalType": "string",
          "name": "",
          "type": "string"
        }
      ],
      "stateMutability": "view",
      "type": "function"
    },
    {
      "inputs": [],
      "name": "tokensPerAsset",
      "outputs": [
        {
          "internalType": "uint256",
          "name": "",
          "type": "uint256"
        }
      ],
      "stateMutability": "pure",
      "type": "function"
    },
    {
      "inputs": [],
      "name": "totalSupply",
      "outputs": [
        {
          "internalType": "uint256",
          "name": "result",
          "type": "uint256"
        }
      ],
      "stateMutability": "view",
      "type": "function"
    },
    {
      "inputs": [
        {
          "internalType": "address",
          "name": "from",
          "type": "address"
        },
        {
          "internalType": "address",
          "name": "to",
          "type": "address"
        },
        {
          "internalType": "uint256",
          "name": "tokenId",
          "type": "uint256"
        }
      ],
      "name": "transferFrom",
      "outputs": [],
      "stateMutability": "payable",
      "type": "function"
    },
    {
      "inputs": [
        {
          "internalType": "address",
          "name": "newOwner",
          "type": "address"
        }
      ],
      "name": "transferOwnership",
      "outputs": [],
      "stateMutability": "nonpayable",
      "type": "function"
    },
    {
      "inputs": [],
      "name": "withdraw",
      "outputs": [],
      "stateMutability": "nonpayable",
      "type": "function"
    }
  ],
  "bytecode": "0x61018060405260546101008181529062008e076101203980516200002c91600c91602090910190620003cd565b5066470de4df820000600f553480156200004557600080fd5b5060405162008e5b38038062008e5b83398101604081905262000068916200049d565b838383836040518060400160405280600f81526020016e4f6e2d436861696e2043616e76617360881b8152506040518060400160405280600681526020016543414e56415360d01b8152508160029080519060200190620000cb929190620003cd565b508051620000e1906003906020840190620003cd565b50506000808055606086811b6001600160601b031990811660805286821b811660a052600d80546001600160a01b0319166001600160a01b0388161790559084901b1660c05260405190915062000138906200045c565b604051809103906000f08015801562000155573d6000803e3d6000fd5b509050600084826040516200016a906200046a565b6001600160a01b03928316815291166020820152604001604051809103906000f0801580156200019e573d6000803e3d6000fd5b5060405163f2fde38b60e01b81523360048201529091506001600160a01b0382169063f2fde38b90602401600060405180830381600087803b158015620001e457600080fd5b505af1158015620001f9573d6000803e3d6000fd5b505050506000856040516200020e9062000478565b6001600160a01b039091168152602001604051809103906000f0801580156200023b573d6000803e3d6000fd5b50604051630713000b60e11b81526001600160a01b03808316600483015291925090841690630e26001690602401602060405180830381600087803b1580156200028457600080fd5b505af115801562000299573d6000803e3d6000fd5b505050506040513d601f19601f82011682018060405250810190620002bf919062000505565b50604051630713000b60e11b81526001600160a01b038381166004830152841690630e26001690602401602060405180830381600087803b1580156200030457600080fd5b505af115801562000319573d6000803e3d6000fd5b505050506040513d601f19601f820116820180604052508101906200033f919062000505565b505060601b6001600160601b03191660e052506200036d935062000367925062000377915050565b6200037b565b5050505062000575565b3390565b600e80546001600160a01b038381166001600160a01b0319831681179093556040519116919082907f8be0079c531659141344cd1fd0a4f28419497f9722a3daafe3b4186f6b6457e090600090a35050565b828054620003db906200051f565b90600052602060002090601f016020900481019282620003ff57600085556200044a565b82601f106200041a57805160ff19168380011785556200044a565b828001600101855582156200044a579182015b828111156200044a5782518255916020019190600101906200042d565b506200045892915062000486565b5090565b610e5f806200482f83390190565b6121c4806200568e83390190565b6115b5806200785283390190565b5b8082111562000458576000815560010162000487565b60008060008060808587031215620004b457600080fd5b8451620004c1816200055c565b6020860151909450620004d4816200055c565b6040860151909350620004e7816200055c565b6060860151909250620004fa816200055c565b939692955090935050565b6000602082840312156200051857600080fd5b5051919050565b600181811c908216806200053457607f821691505b602082108114156200055657634e487b7160e01b600052602260045260246000fd5b50919050565b6001600160a01b03811681146200057257600080fd5b50565b60805160601c60a05160601c60c05160601c60e05160601c61422e62000601600039600081816106010152818161112701528181611a890152611b1c01526000818161052c01526113870152600081816103d101528181610fe9015281816111df0152818161128f0152818161145301526122260152600081816104850152611556015261422e6000f3fe6080604052600436106102335760003560e01c80637284e41611610138578063c87b56dd116100b0578063ec1718b91161007f578063ef2d174611610064578063ef2d174614610636578063f2fde38b1461064b578063f4a0a5281461066b57600080fd5b8063ec1718b9146105ef578063ec3308241461062357600080fd5b8063c87b56dd14610561578063ca4b208b14610581578063e3f24f02146105a1578063e985e9c5146105cf57600080fd5b806390c3f38f11610107578063a22cb465116100ec578063a22cb465146104fa578063b50cbd9f1461051a578063b88d4fde1461054e57600080fd5b806390c3f38f146104c557806395d89b41146104e557600080fd5b80637284e4161461045e578063786f94c6146103ab5780637b103999146104735780638da5cb5b146104a757600080fd5b80633ccfd60b116101cb578063597a0e361161019a5780636817c76c1161017f5780636817c76c1461041357806370a0823114610429578063715018a61461044957600080fd5b8063597a0e36146103bf5780636352211e146103f357600080fd5b80633ccfd60b14610356578063406fbed91461036b57806342842e0e146103985780634b00371f146103ab57600080fd5b8063095ea7b311610207578063095ea7b3146102eb57806318160ddd1461030057806323b872dd146103235780632ab72d2f1461033657600080fd5b80626e59e91461023857806301ffc9a71461026e57806306fdde031461029e578063081812fc146102b3575b600080fd5b34801561024457600080fd5b50610258610253366004612e3d565b61068b565b6040516102659190613d84565b60405180910390f35b34801561027a57600080fd5b5061028e610289366004612d35565b6108e5565b6040519015158152602001610265565b3480156102aa57600080fd5b50610258610982565b3480156102bf57600080fd5b506102d36102ce366004613193565b610a14565b6040516001600160a01b039091168152602001610265565b6102fe6102f9366004612d09565b610a68565b005b34801561030c57600080fd5b50600154600054035b604051908152602001610265565b6102fe610331366004612c29565b610a78565b34801561034257600080fd5b50610315610351366004613193565b610c1f565b34801561036257600080fd5b506102fe610cc6565b34801561037757600080fd5b50610315610386366004613193565b60096020526000908152604090205481565b6102fe6103a6366004612c29565b610d1a565b3480156103b757600080fd5b506004610315565b3480156103cb57600080fd5b506102d37f000000000000000000000000000000000000000000000000000000000000000081565b3480156103ff57600080fd5b506102d361040e366004613193565b610d3a565b34801561041f57600080fd5b50610315600f5481565b34801561043557600080fd5b50610315610444366004612bb6565b610d45565b34801561045557600080fd5b506102fe610da4565b34801561046a57600080fd5b50610258610db8565b34801561047f57600080fd5b506102d37f000000000000000000000000000000000000000000000000000000000000000081565b3480156104b357600080fd5b50600e546001600160a01b03166102d3565b3480156104d157600080fd5b506102fe6104e0366004612da4565b610e46565b3480156104f157600080fd5b50610258610e61565b34801561050657600080fd5b506102fe610515366004612cd6565b610e70565b34801561052657600080fd5b506102d37f000000000000000000000000000000000000000000000000000000000000000081565b6102fe61055c366004612c6a565b610edc565b34801561056d57600080fd5b5061025861057c366004613193565b610f1d565b34801561058d57600080fd5b50600d546102d3906001600160a01b031681565b3480156105ad57600080fd5b506105c16105bc366004613193565b6110fe565b604051610265929190613d97565b3480156105db57600080fd5b5061028e6105ea366004612bf0565b611348565b3480156105fb57600080fd5b506102d37f000000000000000000000000000000000000000000000000000000000000000081565b6102fe610631366004613004565b611449565b34801561064257600080fd5b50600054610315565b34801561065757600080fd5b506102fe610666366004612bb6565b611c96565b34801561067757600080fd5b506102fe610686366004613193565b611d26565b6040805160a081018252600060808201818152825282518084018452600c81527f75726c282373696c7665722900000000000000000000000000000000000000006020828101919091528084019190915283518085018552600a81527f75726c2823676f6c6429000000000000000000000000000000000000000000008183015283850152835190810190935280835260608281019390935261072f6004866140d8565b905060006040518060800160405280604981526020016141b0604991398760405160200161075e9291906138e4565b6040516020818303038152906040529050816001141561079f57806040516020016107899190613499565b60405160208183030381529060405290506107e5565b81600214156107b957806040516020016107899190613374565b81600314156107e557806040516020016107d39190613771565b60405160208183030381529060405290505b806040516020016107f691906132f2565b6040516020818303038152906040529050600083836004811061081b5761081b614118565b6020020151511115610862578083836004811061083a5761083a614118565b60200201516040516020016108509291906136e0565b60405160208183030381529060405290505b816003141561089457808560405160200161087e9291906135be565b60405160208183030381529060405290506108b9565b80856040516020016108a7929190613288565b60405160208183030381529060405290505b806040516020016108ca9190613333565b60408051808303601f19018152919052979650505050505050565b60007f01ffc9a7000000000000000000000000000000000000000000000000000000006001600160e01b03198316148061094857507f80ac58cd000000000000000000000000000000000000000000000000000000006001600160e01b03198316145b8061097c57507f5b5e139f000000000000000000000000000000000000000000000000000000006001600160e01b03198316145b92915050565b60606002805461099190614082565b80601f01602080910402602001604051908101604052809291908181526020018280546109bd90614082565b8015610a0a5780601f106109df57610100808354040283529160200191610a0a565b820191906000526020600020905b8154815290600101906020018083116109ed57829003601f168201915b5050505050905090565b6000610a1f82611d33565b610a4c57610a4c7fcf4700e400000000000000000000000000000000000000000000000000000000611d75565b506000908152600660205260409020546001600160a01b031690565b610a7482826001611d7f565b5050565b6000610a8382611e48565b6001600160a01b039485169490915081168414610ac357610ac37fa114810000000000000000000000000000000000000000000000000000000000611d75565b60008281526006602052604090208054338082146001600160a01b03881690911417610b2057610af38633611348565b610b2057610b207f59c896be00000000000000000000000000000000000000000000000000000000611d75565b8015610b2b57600082555b6001600160a01b038681166000908152600560205260408082208054600019019055918716808252919020805460010190554260a01b17600160e11b17600085815260046020526040902055600160e11b8316610bb65760018401600081815260046020526040902054610bb4576000548114610bb45760008181526004602052604090208490555b505b6001600160a01b0385168481887fddf252ad1be2c89b69c2b068fc378daa952ba7f163c4a11628f55a4df523b3ef600080a480610c1657610c167fea553b3400000000000000000000000000000000000000000000000000000000611d75565b50505050505050565b6000610c2a82611d33565b610ca15760405162461bcd60e51b815260206004820152602d60248201527f437573746f6d546f6b656e2e617373657449644f66546f6b656e3a206e6f6e6560448201527f78697374656e7420746f6b656e0000000000000000000000000000000000000060648201526084015b60405180910390fd5b600a6000610cb0600485613ff5565b8152602001908152602001600020549050919050565b610cce611ed9565b6000610ce2600e546001600160a01b031690565b6040519091506001600160a01b038216904780156108fc02916000818181858888f19350505050158015610a74573d6000803e3d6000fd5b610d3583838360405180602001604052806000815250610edc565b505050565b600061097c82611e48565b60006001600160a01b038216610d7e57610d7e7f8f4eb60400000000000000000000000000000000000000000000000000000000611d75565b506001600160a01b031660009081526005602052604090205467ffffffffffffffff1690565b610dac611ed9565b610db66000611f33565b565b600c8054610dc590614082565b80601f0160208091040260200160405190810160405280929190818152602001828054610df190614082565b8015610e3e5780601f10610e1357610100808354040283529160200191610e3e565b820191906000526020600020905b815481529060010190602001808311610e2157829003601f168201915b505050505081565b610e4e611ed9565b8051610a7490600c906020840190612751565b60606003805461099190614082565b3360008181526007602090815260408083206001600160a01b03871680855290835292819020805460ff191686151590811790915590519081529192917f17307eab39ab6107e8899845ad3d59bd9653f200f220920489ca2b5937696c31910160405180910390a35050565b610ee7848484610a78565b6001600160a01b0383163b15610f1757610f0384848484611f92565b610f1757610f176368d2bf6b60e11b611d75565b50505050565b6060610f2882611d33565b610f9a5760405162461bcd60e51b815260206004820152602760248201527f437573746f6d546f6b656e2e746f6b656e5552493a206e6f6e6578697374656e60448201527f7420746f6b656e000000000000000000000000000000000000000000000000006064820152608401610c98565b600080610fa6846110fe565b90925090506000610fc283610fbc6004886140d8565b8461068b565b90506000600b81610fd4600489613ff5565b815260200190815260200160002054905060007f00000000000000000000000000000000000000000000000000000000000000006001600160a01b0316634378a6e3836040518263ffffffff1660e01b815260040161103591815260200190565b60006040518083038186803b15801561104d57600080fd5b505afa158015611061573d6000803e3d6000fd5b505050506040513d6000823e601f3d908101601f191682016040526110899190810190612eaa565b90506110d361109788612081565b600c6110a38a8561212b565b6110ac876123d4565b6040516020016110bf9493929190613958565b6040516020818303038152906040526123d4565b6040516020016110e39190613b04565b60405160208183030381529060405295505050505050919050565b606080600061110c84610c1f565b90506111196002826140d8565b6111d3576001600160a01b037f00000000000000000000000000000000000000000000000000000000000000001663e3f24f02611157600284613ff5565b6040518263ffffffff1660e01b815260040161117591815260200190565b60006040518083038186803b15801561118d57600080fd5b505afa1580156111a1573d6000803e3d6000fd5b505050506040513d6000823e601f3d908101601f191682016040526111c99190810190612dd9565b9250925050915091565b60006001600160a01b037f000000000000000000000000000000000000000000000000000000000000000016634378a6e361120f600285613ff5565b6040518263ffffffff1660e01b815260040161122d91815260200190565b60006040518083038186803b15801561124557600080fd5b505afa158015611259573d6000803e3d6000fd5b505050506040513d6000823e601f3d908101601f191682016040526112819190810190612eaa565b905060006001600160a01b037f0000000000000000000000000000000000000000000000000000000000000000166334320bf16112bf600286613ff5565b84606001516040518363ffffffff1660e01b81526004016112e1929190613e91565b60006040518083038186803b1580156112f957600080fd5b505afa15801561130d573d6000803e3d6000fd5b505050506040513d6000823e601f3d908101601f191682016040526113359190810190612d6f565b6060909201519196919550909350505050565b6040517fc45527910000000000000000000000000000000000000000000000000000000081526001600160a01b038381166004830152600091818416917f0000000000000000000000000000000000000000000000000000000000000000169063c45527919060240160206040518083038186803b1580156113c957600080fd5b505afa1580156113dd573d6000803e3d6000fd5b505050506040513d601f19601f820116820180604052508101906114019190612bd3565b6001600160a01b031614156114185750600161097c565b6001600160a01b0380841660009081526007602090815260408083209386168352929052205460ff165b9392505050565b60008054905060007f00000000000000000000000000000000000000000000000000000000000000006001600160a01b031663a0aead4d6040518163ffffffff1660e01b815260040160206040518083038186803b1580156114aa57600080fd5b505afa1580156114be573d6000803e3d6000fd5b505050506040513d601f19601f820116820180604052508101906114e291906131ac565b6114ed906001613fdd565b875160405191925061150191602001613913565b60408051601f19818403018152919052875261151c81612081565b604080890191909152517f5b7eea860000000000000000000000000000000000000000000000000000000081526000906001600160a01b037f00000000000000000000000000000000000000000000000000000000000000001690635b7eea869061158b908b90600401613dc5565b602060405180830381600087803b1580156115a557600080fd5b505af11580156115b9573d6000803e3d6000fd5b505050506040513d601f19601f820116820180604052508101906115dd91906131ac565b905080600b60006115ef600487613ff5565b8152602081019190915260400160002055845115801561160e57508351155b8015611618575085155b1561165857611628816002614009565b611633906001613fdd565b600a6000611642600487613ff5565b8152602081019190915260400160002055611be3565b8451845160009190829061166c9083613fdd565b11156116c457600f543410156116c45760405162461bcd60e51b815260206004820152601860248201527f4d7573742073656e6420746865206d696e7420707269636500000000000000006044820152606401610c98565b85516000906116d4836001613fdd565b6116de9190613fdd565b67ffffffffffffffff8111156116f6576116f661412e565b60405190808252806020026020018201604052801561175957816020015b6117466040518060a0016040528060008152602001606081526020016060815260200160608152602001600081525090565b8152602001906001900390816117145790505b509050600092505b875183101561195857600088848151811061177e5761177e614118565b6020026020010151905083600014156117ae57805161179e906001613fdd565b6000888152600960205260409020555b60006117bd8260000151610c1f565b90506117ca6002826140d8565b611857576117d9600282613ff5565b8386815181106117eb576117eb614118565b602002602001015160000181815250506040518060400160405280600481526020017f636f6d700000000000000000000000000000000000000000000000000000000081525083868151811061184357611843614118565b6020026020010151602001819052506118d0565b6001611864600283613ff5565b61186e9190614028565b83868151811061188057611880614118565b6020026020010151600001818152505060405180604001604052806005815260200164185cdcd95d60da1b8152508386815181106118c0576118c0614118565b6020026020010151602001819052505b81602001518386815181106118e7576118e7614118565b602002602001015160400181905250816040015183868151811061190d5761190d614118565b602002602001015160600181905250816060015183868151811061193357611933614118565b6020026020010151608001818152505050508280611950906140bd565b935050611761565b611963600185614028565b81838151811061197557611975614118565b6020026020010151600001818152505060405180604001604052806005815260200164185cdcd95d60da1b8152508183815181106119b5576119b5614118565b602002602001015160200181905250888183815181106119d7576119d7614118565b60200260200101516080018181525050600092505b8651831015611a5657868381518110611a0757611a07614118565b60200260200101518184846001611a1e9190613fdd565b611a289190613fdd565b81518110611a3857611a38614118565b60200260200101819052508280611a4e906140bd565b9350506119ec565b6040517ff2c593ee0000000000000000000000000000000000000000000000000000000081526000906001600160a01b037f0000000000000000000000000000000000000000000000000000000000000000169063f2c593ee90611abe908590600401613ccd565b602060405180830381600087803b158015611ad857600080fd5b505af1158015611aec573d6000803e3d6000fd5b505050506040513d601f19601f82011682018060405250810190611b1091906131ac565b90506001600160a01b037f00000000000000000000000000000000000000000000000000000000000000001663e893d6f96103e8611b50346103cf614009565b611b5a9190613ff5565b6040516001600160e01b031960e084901b16815260048101859052602481018790526044016000604051808303818588803b158015611b9857600080fd5b505af1158015611bac573d6000803e3d6000fd5b5050505050806002611bbe9190614009565b600a6000611bcd60048b613ff5565b8152602081019190915260400160002055505050505b611bf833611bf360016004614028565b612571565b600087118015611c0c5750611c0c8761265b565b8015611c29575033611c1d88610d3a565b6001600160a01b031614155b15611c4657611c41611c3a88610d3a565b6001612571565b611c8c565b6004611c528185613ff5565b611c5c91906140d8565b611c7757600d54611c41906001600160a01b03166001612571565b611c8c611c3a600e546001600160a01b031690565b5050505050505050565b611c9e611ed9565b6001600160a01b038116611d1a5760405162461bcd60e51b815260206004820152602660248201527f4f776e61626c653a206e6577206f776e657220697320746865207a65726f206160448201527f64647265737300000000000000000000000000000000000000000000000000006064820152608401610c98565b611d2381611f33565b50565b611d2e611ed9565b600f55565b60008054821015611d705760005b5060008281526004602052604090205480611d6657611d5f8361406b565b9250611d41565b600160e01b161590505b919050565b8060005260046000fd5b6000611d8a83610d3a565b9050818015611da25750336001600160a01b03821614155b15611dde57611db18133611348565b611dde57611dde7fcfb3b94200000000000000000000000000000000000000000000000000000000611d75565b600083815260066020526040808220805473ffffffffffffffffffffffffffffffffffffffff19166001600160a01b0388811691821790925591518693918516917f8c5be1e5ebec7d5bd14f71427d1e84f3dd0314c0f7b2291e5b200ac8c7c3b92591a450505050565b60008181526004602052604090205480611eb9576000548210611e7557611e75636f96cda160e11b611d75565b5b506000190160008181526004602052604090205480611e9457611e76565b600160e01b8116611ea457919050565b611eb4636f96cda160e11b611d75565b611e76565b600160e01b8116611ec957919050565b611d70636f96cda160e11b611d75565b600e546001600160a01b03163314610db65760405162461bcd60e51b815260206004820181905260248201527f4f776e61626c653a2063616c6c6572206973206e6f7420746865206f776e65726044820152606401610c98565b600e80546001600160a01b0383811673ffffffffffffffffffffffffffffffffffffffff19831681179093556040519116919082907f8be0079c531659141344cd1fd0a4f28419497f9722a3daafe3b4186f6b6457e090600090a35050565b604051630a85bd0160e11b81526000906001600160a01b0385169063150b7a0290611fc7903390899088908890600401613c91565b602060405180830381600087803b158015611fe157600080fd5b505af1925050508015612011575060408051601f3d908101601f1916820190925261200e91810190612d52565b60015b612063573d80801561203f576040519150601f19603f3d011682016040523d82523d6000602084013e612044565b606091505b50805161205b5761205b6368d2bf6b60e11b611d75565b805181602001fd5b6001600160e01b031916630a85bd0160e11b1490505b949350505050565b6060600061208e8361266f565b600101905060008167ffffffffffffffff8111156120ae576120ae61412e565b6040519080825280601f01601f1916602001820160405280156120d8576020820181803683370190505b5090508181016020015b600019017f3031323334353637383961626364656600000000000000000000000000000000600a86061a8153600a850494508461211e57612123565b6120e2565b509392505050565b606060006121388461265b565b612177576040518060400160405280600281526020017f4e6f0000000000000000000000000000000000000000000000000000000000008152506121ae565b6040518060400160405280600381526020017f59657300000000000000000000000000000000000000000000000000000000008152505b835160208086015160408088015190516121ca95949301613b49565b604051602081830303815290604052905080600084608001515111612224576040518060400160405280600b81526020017f28616e6f6e796d6f757329000000000000000000000000000000000000000000815250612338565b7f00000000000000000000000000000000000000000000000000000000000000006001600160a01b031663a57cfb246040518163ffffffff1660e01b815260040160206040518083038186803b15801561227d57600080fd5b505afa158015612291573d6000803e3d6000fd5b505050506040513d601f19601f820116820180604052508101906122b59190612bd3565b6001600160a01b031663841b9d9785608001516040518263ffffffff1660e01b81526004016122e49190613d84565b60006040518083038186803b1580156122fc57600080fd5b505afa158015612310573d6000803e3d6000fd5b505050506040513d6000823e601f3d908101601f191682016040526123389190810190612d6f565b600086815260096020526040902054612386576040518060400160405280600681526020017f286e6f6e652900000000000000000000000000000000000000000000000000008152506123aa565b6000868152600960205260409020546123aa906123a590600190614028565b612081565b6040516020016123bc93929190613628565b60408051808303601f19018152919052949350505050565b60608151600014156123f457505060408051602081019091526000815290565b600060405180606001604052806040815260200161417060409139905060006003845160026124239190613fdd565b61242d9190613ff5565b612438906004614009565b90506000612447826020613fdd565b67ffffffffffffffff81111561245f5761245f61412e565b6040519080825280601f01601f191660200182016040528015612489576020820181803683370190505b509050818152600183018586518101602084015b818310156124f5576003830192508251603f8160121c168501518253600182019150603f81600c1c168501518253600182019150603f8160061c168501518253600182019150603f811685015182535060010161249d565b60038951066001811461250f576002811461253b57612563565b7f3d3d000000000000000000000000000000000000000000000000000000000000600119830152612563565b7f3d000000000000000000000000000000000000000000000000000000000000006000198301525b509398975050505050505050565b600054816125a2576125a27fb562e8dd00000000000000000000000000000000000000000000000000000000611d75565b60008181526004602090815260408083206001600160a01b0387164260a01b6001881460e11b1781179091558084526005909252909120805468010000000000000001850201905580612618576126187f2e07630000000000000000000000000000000000000000000000000000000000611d75565b818301825b808360007fddf252ad1be2c89b69c2b068fc378daa952ba7f163c4a11628f55a4df523b3ef600080a46001018082141561261d575060005550505050565b60006126686004836140d8565b1592915050565b6000807a184f03e93ff9f4daa797ed6e38ed64bf6a1f01000000000000000083106126b8577a184f03e93ff9f4daa797ed6e38ed64bf6a1f010000000000000000830492506040015b6d04ee2d6d415b85acef810000000083106126e4576d04ee2d6d415b85acef8100000000830492506020015b662386f26fc10000831061270257662386f26fc10000830492506010015b6305f5e100831061271a576305f5e100830492506008015b612710831061272e57612710830492506004015b60648310612740576064830492506002015b600a831061097c5760010192915050565b82805461275d90614082565b90600052602060002090601f01602090048101928261277f57600085556127c5565b82601f1061279857805160ff19168380011785556127c5565b828001600101855582156127c5579182015b828111156127c55782518255916020019190600101906127aa565b506127d19291506127d5565b5090565b5b808211156127d157600081556001016127d6565b8035611d7081614144565b8051611d7081614144565b600082601f83011261281157600080fd5b8135602061282661282183613f91565b613f60565b80838252828201915082860187848660051b890101111561284657600080fd5b60005b8581101561292757813567ffffffffffffffff8082111561286957600080fd5b9089019060a0828c03601f1901121561288157600080fd5b612889613eaa565b878301358152604080840135838111156128a257600080fd5b6128b08e8b83880101612b0e565b8a84015250606080850135848111156128c857600080fd5b6128d68f8c83890101612b0e565b83850152506080915081850135848111156128f057600080fd5b6128fe8f8c83890101612b0e565b918401919091525060a09390930135928101929092525084529284019290840190600101612849565b5090979650505050505050565b600082601f83011261294557600080fd5b8135602061295561282183613f91565b80838252828201915082860187848660051b890101111561297557600080fd5b60005b8581101561292757813567ffffffffffffffff8082111561299857600080fd5b908901906040828c03601f19018113156129b157600080fd5b6129b9613ed3565b88840135838111156129ca57600080fd5b6129d88e8b83880101612b0e565b8252509083013590828211156129ed57600080fd5b6129fb8d8a84870101612b0e565b818a015287525050509284019290840190600101612978565b600082601f830112612a2557600080fd5b81356020612a3561282183613f91565b80838252828201915082860187848660051b8901011115612a5557600080fd5b60005b8581101561292757813567ffffffffffffffff80821115612a7857600080fd5b908901906080828c03601f19011215612a9057600080fd5b612a98613ef6565b87830135815260408084013583811115612ab157600080fd5b612abf8e8b83880101612b0e565b8a8401525060608085013584811115612ad757600080fd5b612ae58f8c83890101612b0e565b928401929092526080949094013593820193909352865250509284019290840190600101612a58565b600082601f830112612b1f57600080fd5b8135612b2d61282182613fb5565b818152846020838601011115612b4257600080fd5b816020850160208301376000918101602001919091529392505050565b600082601f830112612b7057600080fd5b8151612b7e61282182613fb5565b818152846020838601011115612b9357600080fd5b61207982602083016020870161403f565b805161ffff81168114611d7057600080fd5b600060208284031215612bc857600080fd5b813561144281614144565b600060208284031215612be557600080fd5b815161144281614144565b60008060408385031215612c0357600080fd5b8235612c0e81614144565b91506020830135612c1e81614144565b809150509250929050565b600080600060608486031215612c3e57600080fd5b8335612c4981614144565b92506020840135612c5981614144565b929592945050506040919091013590565b60008060008060808587031215612c8057600080fd5b8435612c8b81614144565b93506020850135612c9b81614144565b925060408501359150606085013567ffffffffffffffff811115612cbe57600080fd5b612cca87828801612b0e565b91505092959194509250565b60008060408385031215612ce957600080fd5b8235612cf481614144565b915060208301358015158114612c1e57600080fd5b60008060408385031215612d1c57600080fd5b8235612d2781614144565b946020939093013593505050565b600060208284031215612d4757600080fd5b813561144281614159565b600060208284031215612d6457600080fd5b815161144281614159565b600060208284031215612d8157600080fd5b815167ffffffffffffffff811115612d9857600080fd5b61207984828501612b5f565b600060208284031215612db657600080fd5b813567ffffffffffffffff811115612dcd57600080fd5b61207984828501612b0e565b60008060408385031215612dec57600080fd5b825167ffffffffffffffff80821115612e0457600080fd5b612e1086838701612b5f565b93506020850151915080821115612e2657600080fd5b50612e3385828601612b5f565b9150509250929050565b600080600060608486031215612e5257600080fd5b833567ffffffffffffffff80821115612e6a57600080fd5b612e7687838801612b0e565b9450602086013593506040860135915080821115612e9357600080fd5b50612ea086828701612b0e565b9150509250925092565b600060208284031215612ebc57600080fd5b815167ffffffffffffffff80821115612ed457600080fd5b908301906101208286031215612ee957600080fd5b612ef1613f19565b825182811115612f0057600080fd5b612f0c87828601612b5f565b825250602083015182811115612f2157600080fd5b612f2d87828601612b5f565b602083015250604083015182811115612f4557600080fd5b612f5187828601612b5f565b604083015250606083015182811115612f6957600080fd5b612f7587828601612b5f565b606083015250608083015182811115612f8d57600080fd5b612f9987828601612b5f565b608083015250612fab60a084016127f5565b60a082015260c083015182811115612fc257600080fd5b612fce87828601612b5f565b60c083015250612fe060e08401612ba4565b60e08201526101009150612ff5828401612ba4565b91810191909152949350505050565b600080600080600060a0868803121561301c57600080fd5b853567ffffffffffffffff8082111561303457600080fd5b9087019060e0828a03121561304857600080fd5b613050613f3d565b82358281111561305f57600080fd5b61306b8b828601612b0e565b82525060208301358281111561308057600080fd5b61308c8b828601612b0e565b6020830152506040830135828111156130a457600080fd5b6130b08b828601612b0e565b6040830152506060830135828111156130c857600080fd5b6130d48b828601612b0e565b6060830152506130e6608084016127ea565b608082015260a0830135828111156130fd57600080fd5b6131098b828601612b0e565b60a08301525060c08301358281111561312157600080fd5b61312d8b828601612934565b60c08301525096506020880135955060408801359450606088013591508082111561315757600080fd5b61316389838a01612a14565b9350608088013591508082111561317957600080fd5b5061318688828901612800565b9150509295509295909350565b6000602082840312156131a557600080fd5b5035919050565b6000602082840312156131be57600080fd5b5051919050565b600081518084526020808501808196508360051b8101915082860160005b8581101561323357828403895281516040815181875261320582880182613240565b9150508682015191508581038787015261321f8183613240565b9a87019a95505050908401906001016131e3565b5091979650505050505050565b6000815180845261325881602086016020860161403f565b601f01601f19169290920160200192915050565b6000815161327e81856020860161403f565b9290920192915050565b6000835161329a81846020880161403f565b7f203c75736520687265663d22230000000000000000000000000000000000000090830190815283516132d481600d84016020880161403f565b641110179f0560d91b600d9290910191820152601201949350505050565b6000825161330481846020870161403f565b7f3c2f646566733e0a000000000000000000000000000000000000000000000000920191825250600801919050565b6000825161334581846020870161403f565b7f3c2f7376673e0a00000000000000000000000000000000000000000000000000920191825250600701919050565b6000825161338681846020870161403f565b7f3c6c696e6561724772616469656e742069643d22676f6c64222078313d22302e9201918252507f32222078323d2230222079313d2230222079323d2231223e0a20203c73746f7060208201527f206f66667365743d223025222073746f702d636f6c6f723d222343434142303960408201527f222f3e0a203c73746f70206f66667365743d22353025222073746f702d636f6c60608201527f6f723d222346464631383622202f3e0a203c73746f70206f66667365743d223160808201527f303025222073746f702d636f6c6f723d2223434341423039222f3e0a3c2f6c6960a08201527f6e6561724772616469656e743e0a00000000000000000000000000000000000060c082015260ce01919050565b600082516134ab81846020870161403f565b7f3c6c696e6561724772616469656e742069643d2273696c766572222078313d229201918252507f302e32222078323d2230222079313d2230222079323d2231223e0a20203c737460208201527f6f70206f66667365743d223025222073746f702d636f6c6f723d22233830383060408201527f3746222f3e0a203c73746f70206f66667365743d22353025222073746f702d6360608201527f6f6c6f723d222345454630463222202f3e0a203c73746f70206f66667365743d60808201527f2231303025222073746f702d636f6c6f723d2223383038303746222f3e0a3c2f60a08201527f6c696e6561724772616469656e743e0a0000000000000000000000000000000060c082015260d001919050565b600083516135d081846020880161403f565b7f203c7573652066696c7465723d2275726c28236631292220687265663d222300908301908152835161360a81601f84016020880161403f565b641110179f0560d91b601f9290910191820152602401949350505050565b6000845161363a81846020890161403f565b80830190507f7d2c7b2274726169745f74797065223a224d696e746572222c2276616c7565228152611d1160f11b8060208301528551613681816022850160208a0161403f565b7f227d2c7b2274726169745f74797065223a2252656d6978222c2276616c75652260229390910192830152604282015283516136c481604484016020880161403f565b61227d60f01b6044929091019182015260460195945050505050565b600083516136f281846020880161403f565b80830190507f203c7265637420783d22302220793d2230222077696474683d2231303025222081527f6865696768743d2231303025222066696c6c3d220000000000000000000000006020820152835161375381603484016020880161403f565b641110179f0560d91b60349290910191820152603901949350505050565b6000825161378381846020870161403f565b7f203c66696c7465722069643d2266312220783d22302220793d223022207769649201918252507f74683d223230302522206865696768743d2232303025223e0a20203c66654f6660208201527f6673657420726573756c743d226f66664f75742220696e3d22536f757263654160408201527f6c706861222064783d223234222064793d22333222202f3e0a20203c6665476160608201527f75737369616e426c757220726573756c743d22626c75724f75742220696e3d2260808201527f6f66664f75742220737464446576696174696f6e3d22313622202f3e0a20203c60a08201527f6665426c656e6420696e3d22536f75726365477261706869632220696e323d2260c08201527f626c75724f757422206d6f64653d226e6f726d616c22202f3e0a203c2f66696c60e08201527f7465723e0a00000000000000000000000000000000000000000000000000000061010082015261010501919050565b600083516138f681846020880161403f565b83519083019061390a81836020880161403f565b01949350505050565b7f4472617720596f7572204f776e2000000000000000000000000000000000000081526000825161394b81600e85016020870161403f565b91909101600e0192915050565b7f7b226e616d65223a2244726177696e672000000000000000000000000000000081526000855160206139918260118601838b0161403f565b7f222c226465736372697074696f6e223a220000000000000000000000000000006011928501928301528654602290600090600181811c90808316806139d857607f831692505b8683108114156139f557634e487b7160e01b855285600452602485fd5b808015613a095760018114613a1e57613a4f565b60ff1985168988015283890187019550613a4f565b60008e81526020902060005b85811015613a455781548b82018a0152908401908901613a2a565b505086848a010195505b5050505050613af6613ae8613ae2613a93613a8d857f222c2261747472696275746573223a5b00000000000000000000000000000000815260100190565b8c61326c565b7f5d2c22696d616765223a22646174613a696d6167652f7376672b786d6c3b626181527f736536342c000000000000000000000000000000000000000000000000000000602082015260250190565b8961326c565b61227d60f01b815260020190565b9a9950505050505050505050565b7f646174613a6170706c69636174696f6e2f6a736f6e3b6261736536342c000000815260008251613b3c81601d85016020870161403f565b91909101601d0192915050565b7f7b2274726169745f74797065223a225072696d617279222c2276616c7565223a8152601160f91b602082015260008551613b8b816021850160208a0161403f565b7f227d2c7b2274726169745f74797065223a2247726f7570222c2276616c756522602191840191820152611d1160f11b60418201528551613bd3816043840160208a0161403f565b8082019150507f227d2c7b2274726169745f74797065223a2243617465676f7279222c2276616c60438201527f7565223a220000000000000000000000000000000000000000000000000000008060638301528551613c39816068850160208a0161403f565b7f227d2c7b2274726169745f74797065223a224173736574204964222c2276616c606893909101928301526088820152613c86613c79608d83018661326c565b601160f91b815260010190565b979650505050505050565b60006001600160a01b03808716835280861660208401525083604083015260806060830152613cc36080830184613240565b9695505050505050565b60006020808301818452808551808352604092508286019150828160051b87010184880160005b83811015613d7657603f19898403018552815160a08151855288820151818a870152613d2282870182613240565b9150508782015185820389870152613d3a8282613240565b91505060608083015186830382880152613d548382613240565b6080948501519790940196909652505094870194925090860190600101613cf4565b509098975050505050505050565b6020815260006114426020830184613240565b604081526000613daa6040830185613240565b8281036020840152613dbc8185613240565b95945050505050565b602081526000825160e06020840152613de2610100840182613240565b90506020840151601f1980858403016040860152613e008383613240565b92506040860151915080858403016060860152613e1d8383613240565b92506060860151915080858403016080860152613e3a8383613240565b925060808601519150613e5860a08601836001600160a01b03169052565b60a08601519150808584030160c0860152613e738383613240565b925060c08601519150808584030160e086015250613dbc82826131c5565b8281526040602082015260006120796040830184613240565b60405160a0810167ffffffffffffffff81118282101715613ecd57613ecd61412e565b60405290565b6040805190810167ffffffffffffffff81118282101715613ecd57613ecd61412e565b6040516080810167ffffffffffffffff81118282101715613ecd57613ecd61412e565b604051610120810167ffffffffffffffff81118282101715613ecd57613ecd61412e565b60405160e0810167ffffffffffffffff81118282101715613ecd57613ecd61412e565b604051601f8201601f1916810167ffffffffffffffff81118282101715613f8957613f8961412e565b604052919050565b600067ffffffffffffffff821115613fab57613fab61412e565b5060051b60200190565b600067ffffffffffffffff821115613fcf57613fcf61412e565b50601f01601f191660200190565b60008219821115613ff057613ff06140ec565b500190565b60008261400457614004614102565b500490565b6000816000190483118215151615614023576140236140ec565b500290565b60008282101561403a5761403a6140ec565b500390565b60005b8381101561405a578181015183820152602001614042565b83811115610f175750506000910152565b60008161407a5761407a6140ec565b506000190190565b600181811c9082168061409657607f821691505b602082108114156140b757634e487b7160e01b600052602260045260246000fd5b50919050565b60006000198214156140d1576140d16140ec565b5060010190565b6000826140e7576140e7614102565b500690565b634e487b7160e01b600052601160045260246000fd5b634e487b7160e01b600052601260045260246000fd5b634e487b7160e01b600052603260045260246000fd5b634e487b7160e01b600052604160045260246000fd5b6001600160a01b0381168114611d2357600080fd5b6001600160e01b031981168114611d2357600080fdfe4142434445464748494a4b4c4d4e4f505152535455565758595a6162636465666768696a6b6c6d6e6f707172737475767778797a303132333435363738392b2f3c7376672076696577426f783d2230203020313032342031303234222020786d6c6e733d22687474703a2f2f7777772e77332e6f72672f323030302f737667223e0a3c646566733e0aa2646970667358221220e57f6527e0731ed40ce3fd9a288adad0e63a383de34a55a89ce803d98ad067dc64736f6c63430008060033608060405234801561001057600080fd5b5061001a3361001f565b61006f565b600080546001600160a01b038381166001600160a01b0319831681178455604051919092169283917f8be0079c531659141344cd1fd0a4f28419497f9722a3daafe3b4186f6b6457e09190a35050565b610de18061007e6000396000f3fe608060405234801561001057600080fd5b50600436106100be5760003560e01c8063715018a6116100765780638da5cb5b1161005b5780638da5cb5b14610155578063f2fde38b1461017a578063f851a4401461018d57600080fd5b8063715018a61461014557806374c832681461014d57600080fd5b80634854078f116100a75780634854078f146100fe5780635c42d07914610111578063704b6c021461013257600080fd5b80630e260016146100c3578063475b77f9146100e9575b600080fd5b6100d66100d13660046109b4565b6101a0565b6040519081526020015b60405180910390f35b6100fc6100f7366004610b40565b6105b3565b005b6100d661010c3660046109ee565b610677565b61012461011f366004610b27565b6106f0565b6040516100e0929190610c3b565b6100fc6101403660046109b4565b6107d0565b6100fc610807565b6001546100d6565b6000546001600160a01b03165b6040516001600160a01b0390911681526020016100e0565b6100fc6101883660046109b4565b61081b565b600554610162906001600160a01b031681565b600080826001600160a01b0316638c40188e6040518163ffffffff1660e01b815260040160006040518083038186803b1580156101dc57600080fd5b505afa1580156101f0573d6000803e3d6000fd5b505050506040513d6000823e601f3d908101601f191682016040526102189190810190610a69565b90506002816000015160405161022e9190610ba1565b908152602001604051809103902054915081600014610464578161025181610d38565b6000818152600360209081526040918290205482517f893d20e800000000000000000000000000000000000000000000000000000000815292519396506001600160a01b03169350839263893d20e8926004808201939291829003018186803b1580156102bd57600080fd5b505afa1580156102d1573d6000803e3d6000fd5b505050506040513d601f19601f820116820180604052508101906102f591906109d1565b6001600160a01b0316846001600160a01b031663893d20e86040518163ffffffff1660e01b815260040160206040518083038186803b15801561033757600080fd5b505afa15801561034b573d6000803e3d6000fd5b505050506040513d601f19601f8201168201806040525081019061036f91906109d1565b6001600160a01b0316146103f05760405162461bcd60e51b815260206004820152603260248201527f4173736574436f6d706f7365723a726567697374657250726f76696465722c2060448201527f616c72656164792072656769737465726564000000000000000000000000000060648201526084015b60405180910390fd5b600083815260036020908152604091829020805473ffffffffffffffffffffffffffffffffffffffff19166001600160a01b03881617905581513381529081018590527f4141f33bf490d9190a43ac8dc2fd923fdd3a01d78b82d1fa85f803a91f4bf4ae910160405180910390a1506105ad565b80604001516001600160a01b0316836001600160a01b0316146104ef5760405162461bcd60e51b815260206004820152603060248201527f4173736574436f6d706f7365723a726567697374657250726f76696465722c2060448201527f61646472657373206d69736d617463680000000000000000000000000000000060648201526084016103e7565b6001805484916003916000918261050583610d4f565b91905055815260200190815260200160002060006101000a8154816001600160a01b0302191690836001600160a01b03160217905550600154600282600001516040516105529190610ba1565b90815260405190819003602001902055600180546105709190610cf1565b60408051338152602081018390529193507f90c9734131c1e4fb36cde2d71e6feb93fb258f71be8a85411c173d25e1516e80910160405180910390a15b50919050565b336105c66000546001600160a01b031690565b6001600160a01b031614806105e557506005546001600160a01b031633145b6106575760405162461bcd60e51b815260206004820152602660248201527f4173736574436f6d706f7365723a2063616c6c6572206973206e6f742074686560448201527f2061646d696e000000000000000000000000000000000000000000000000000060648201526084016103e7565b600091825260046020526040909120805460ff1916911515919091179055565b60008060028360405161068a9190610ba1565b908152602001604051809103902054905060008111836040516020016106b09190610bbd565b604051602081830303815290604052906106dd5760405162461bcd60e51b81526004016103e79190610c28565b506106e9600182610cf1565b9392505050565b604080516060808201835280825260208201526000918101919091526000828152600360205260408082205481517f8c40188e00000000000000000000000000000000000000000000000000000000815291516001600160a01b03909116918291638c40188e916004808201928792909190829003018186803b15801561077657600080fd5b505afa15801561078a573d6000803e3d6000fd5b505050506040513d6000823e601f3d908101601f191682016040526107b29190810190610a69565b60009485526004602052604090942054939460ff9094169392505050565b6107d86108ab565b6005805473ffffffffffffffffffffffffffffffffffffffff19166001600160a01b0392909216919091179055565b61080f6108ab565b6108196000610905565b565b6108236108ab565b6001600160a01b03811661089f5760405162461bcd60e51b815260206004820152602660248201527f4f776e61626c653a206e6577206f776e657220697320746865207a65726f206160448201527f646472657373000000000000000000000000000000000000000000000000000060648201526084016103e7565b6108a881610905565b50565b6000546001600160a01b031633146108195760405162461bcd60e51b815260206004820181905260248201527f4f776e61626c653a2063616c6c6572206973206e6f7420746865206f776e657260448201526064016103e7565b600080546001600160a01b0383811673ffffffffffffffffffffffffffffffffffffffff19831681178455604051919092169283917f8be0079c531659141344cd1fd0a4f28419497f9722a3daafe3b4186f6b6457e09190a35050565b600082601f83011261097357600080fd5b815161098661098182610cc9565b610c98565b81815284602083860101111561099b57600080fd5b6109ac826020830160208701610d08565b949350505050565b6000602082840312156109c657600080fd5b81356106e981610d96565b6000602082840312156109e357600080fd5b81516106e981610d96565b600060208284031215610a0057600080fd5b813567ffffffffffffffff811115610a1757600080fd5b8201601f81018413610a2857600080fd5b8035610a3661098182610cc9565b818152856020838501011115610a4b57600080fd5b81602084016020830137600091810160200191909152949350505050565b600060208284031215610a7b57600080fd5b815167ffffffffffffffff80821115610a9357600080fd5b9083019060608286031215610aa757600080fd5b604051606081018181108382111715610ac257610ac2610d80565b604052825182811115610ad457600080fd5b610ae087828601610962565b825250602083015182811115610af557600080fd5b610b0187828601610962565b60208301525060408301519250610b1783610d96565b6040810192909252509392505050565b600060208284031215610b3957600080fd5b5035919050565b60008060408385031215610b5357600080fd5b8235915060208301358015158114610b6a57600080fd5b809150509250929050565b60008151808452610b8d816020860160208601610d08565b601f01601f19169290920160200192915050565b60008251610bb3818460208701610d08565b9190910192915050565b7f417373657374436f6d706f7365723a67657450726f766964657249642c20746881527f652070726f766964657220646f6573206e6f742065786973743a000000000000602082015260008251610c1b81603a850160208701610d08565b91909101603a0192915050565b6020815260006106e96020830184610b75565b604081526000835160606040840152610c5760a0840182610b75565b90506020850151603f19848303016060850152610c748282610b75565b604096909601516001600160a01b0316608085015250505090151560209091015290565b604051601f8201601f1916810167ffffffffffffffff81118282101715610cc157610cc1610d80565b604052919050565b600067ffffffffffffffff821115610ce357610ce3610d80565b50601f01601f191660200190565b600082821015610d0357610d03610d6a565b500390565b60005b83811015610d23578181015183820152602001610d0b565b83811115610d32576000848401525b50505050565b600081610d4757610d47610d6a565b506000190190565b6000600019821415610d6357610d63610d6a565b5060010190565b634e487b7160e01b600052601160045260246000fd5b634e487b7160e01b600052604160045260246000fd5b6001600160a01b03811681146108a857600080fdfea2646970667358221220a91241491f8b917bc3d9553292362e8bccb58efdae6ee18faaeeba20fc140bc964736f6c6343000806003360c06040523480156200001157600080fd5b50604051620021c4380380620021c48339810160408190526200003491620000d5565b8181620000413362000085565b600054600180546001600160a01b0319166001600160a01b039092169190911790556001600160601b0319606092831b8116608052911b1660a052506200012d9050565b600080546001600160a01b038381166001600160a01b0319831681178455604051919092169283917f8be0079c531659141344cd1fd0a4f28419497f9722a3daafe3b4186f6b6457e09190a35050565b60008060408385031215620000e957600080fd5b8251620000f68162000114565b6020840151909250620001098162000114565b809150509250929050565b6001600160a01b03811681146200012a57600080fd5b50565b60805160601c60a05160601c61204f62000175600039600081816102770152818161076f01528181610d200152610f4e0152600081816101c60152610e5d015261204f6000f3fe6080604052600436106101445760003560e01c806389ee68bf116100c0578063e893d6f911610074578063f2c593ee11610059578063f2c593ee146103e0578063f2fde38b14610400578063f851a4401461042057600080fd5b8063e893d6f9146103b7578063ea575c61146103ca57600080fd5b80638da5cb5b116100a55780638da5cb5b14610299578063c6f7509c14610369578063e3f24f021461038957600080fd5b806389ee68bf146102b75780638c40188e146102ca57600080fd5b8063704b6c021161011757806379363801116100fc57806379363801146102355780637b10399914610265578063893d20e81461029957600080fd5b8063704b6c0214610200578063715018a61461022057600080fd5b806301ffc9a71461014957806318160ddd1461017e5780633ccfd60b1461019d578063597a0e36146101b4575b600080fd5b34801561015557600080fd5b5061016961016436600461187a565b610440565b60405190151581526020015b60405180910390f35b34801561018a57600080fd5b506003545b604051908152602001610175565b3480156101a957600080fd5b506101b2610511565b005b3480156101c057600080fd5b506101e87f000000000000000000000000000000000000000000000000000000000000000081565b6040516001600160a01b039091168152602001610175565b34801561020c57600080fd5b506101b261021b3660046116dc565b610562565b34801561022c57600080fd5b506101b2610599565b34801561024157600080fd5b506101696102503660046119de565b60026020526000908152604090205460ff1681565b34801561027157600080fd5b506101e87f000000000000000000000000000000000000000000000000000000000000000081565b3480156102a557600080fd5b506000546001600160a01b03166101e8565b6101b26102c53660046119de565b6105ad565b3480156102d657600080fd5b5061035c60408051606080820183528082526020820152600091810191909152506040805160a081018252600460608201908152630636f6d760e41b6080830152815281518083018352600e81527f417373657420436f6d706f736572000000000000000000000000000000000000602082810191909152820152309181019190915290565b6040516101759190611df7565b34801561037557600080fd5b506101b2610384366004611a10565b6105bf565b34801561039557600080fd5b506103a96103a43660046119de565b610688565b604051610175929190611dc9565b6101b26103c5366004611a40565b610c54565b3480156103d657600080fd5b5061018f60035481565b3480156103ec57600080fd5b5061018f6103fb366004611700565b610e58565b34801561040c57600080fd5b506101b261041b3660046116dc565b6112c0565b34801561042c57600080fd5b506001546101e8906001600160a01b031681565b60006001600160e01b031982167f6ef8e5880000000000000000000000000000000000000000000000000000000014806104a357506001600160e01b031982167ff2c593ee00000000000000000000000000000000000000000000000000000000145b806104d757506001600160e01b031982167f7777120600000000000000000000000000000000000000000000000000000000145b8061050b57506001600160e01b031982167f01ffc9a700000000000000000000000000000000000000000000000000000000145b92915050565b61051961134d565b600080546001600160a01b03166040519091506001600160a01b038216904780156108fc02916000818181858888f1935050505015801561055e573d6000803e3d6000fd5b5050565b61056a61134d565b6001805473ffffffffffffffffffffffffffffffffffffffff19166001600160a01b0392909216919091179055565b6105a161134d565b6105ab60006113a7565b565b6105bc816402540be400610c54565b50565b336105d26000546001600160a01b031690565b6001600160a01b031614806105f157506001546001600160a01b031633145b6106685760405162461bcd60e51b815260206004820152602660248201527f4173736574436f6d706f7365723a2063616c6c6572206973206e6f742074686560448201527f2061646d696e000000000000000000000000000000000000000000000000000060648201526084015b60405180910390fd5b600091825260026020526040909120805460ff1916911515919091179055565b60008181526004602052604081205460609182919082908190819081908567ffffffffffffffff8111156106be576106be611fe0565b6040519080825280602002602001820160405280156106e7578160200160208202803683370190505b5060008a81526002602052604090205490915060ff16610bd85760005b86811015610bd65760008a815260056020908152604080832084845282528083208151808301835290546fffffffffffffffffffffffffffffffff808216808452600160801b90920416938201939093529051635c42d07960e01b81526004810192909252919081907f00000000000000000000000000000000000000000000000000000000000000006001600160a01b031690635c42d0799060240160006040518083038186803b1580156107b957600080fd5b505afa1580156107cd573d6000803e3d6000fd5b505050506040513d6000823e601f3d908101601f191682016040526107f59190810190611925565b91509150801561080757505050610bc4565b604080830151602085015191517fe3f24f020000000000000000000000000000000000000000000000000000000081526fffffffffffffffffffffffffffffffff90921660048301526001600160a01b03169063e3f24f029060240160006040518083038186803b15801561087b57600080fd5b505afa15801561088f573d6000803e3d6000fd5b505050506040513d6000823e601f3d908101601f191682016040526108b791908101906118c1565b60405191985096506000906108d0908890602001611d9a565b60408051601f1981840301815291905280516020909101209050600160005b86811015610933578288828151811061090a5761090a611fca565b602002602001015114156109215760009150610933565b8061092b81611f99565b9150506108ef565b50801561097e578a8960405160200161094d929190611a8e565b6040516020818303038152906040529a508187878151811061097157610971611fca565b6020026020010181815250505b50508786604051602001610993929190611abd565b60408051601f1981840301815291815260008f81526006602090815282822088835290529081208054929a5090916109ca90611f5e565b80601f01602080910402602001604051908101604052809291908181526020018280546109f690611f5e565b8015610a435780601f10610a1857610100808354040283529160200191610a43565b820191906000526020600020905b815481529060010190602001808311610a2657829003601f168201915b50505050509050600081511115610a79578881604051602001610a67929190611d34565b60405160208183030381529060405298505b60008e815260076020908152604080832088845290915290208054610a9d90611f5e565b80601f0160208091040260200160405190810160405280929190818152602001828054610ac990611f5e565b8015610b165780601f10610aeb57610100808354040283529160200191610b16565b820191906000526020600020905b815481529060010190602001808311610af957829003601f168201915b50505050509050600081511115610b4c578881604051602001610b3a929190611c0d565b60405160208183030381529060405298505b5060008d81526008602090815260408083208784529091529020548015610b9d5788610b7a8260ff16611404565b604051602001610b8b929190611b23565b60405160208183030381529060405298505b5087604051602001610baf9190611bcc565b60405160208183030381529060405297505050505b80610bce81611f99565b915050610704565b505b604051806040016040528060048152602001630636f6d760e41b815250610bfe8a611404565b604051602001610c0f929190611a8e565b6040516020818303038152906040529150848285604051602001610c3593929190611c73565b60408051601f1981840301815291905299919850909650505050505050565b60008281526004602052604081205490610c6e8234611ef5565b90508183108015610c7f5750600182115b15610c9c57610c8f600183611f17565b610c999034611ef5565b90505b80610ca75750505050565b60005b82811015610e515783811415610cbf57610e3f565b600085815260056020908152604080832084845282528083208151808301835290546fffffffffffffffffffffffffffffffff808216808452600160801b90920416938201939093529051635c42d07960e01b8152600481019290925291907f00000000000000000000000000000000000000000000000000000000000000006001600160a01b031690635c42d0799060240160006040518083038186803b158015610d6a57600080fd5b505afa158015610d7e573d6000803e3d6000fd5b505050506040513d6000823e601f3d908101601f19168201604052610da69190810190611925565b50604080820151602085015191517f89ee68bf0000000000000000000000000000000000000000000000000000000081526fffffffffffffffffffffffffffffffff90921660048301529192506001600160a01b03909116906389ee68bf9086906024016000604051808303818588803b158015610e2357600080fd5b505af1158015610e37573d6000803e3d6000fd5b505050505050505b80610e4981611f99565b915050610caa565b5050505050565b6000807f00000000000000000000000000000000000000000000000000000000000000006001600160a01b031663a57cfb246040518163ffffffff1660e01b815260040160206040518083038186803b158015610eb457600080fd5b505afa158015610ec8573d6000803e3d6000fd5b505050506040513d601f19601f82011682018060405250810190610eec91906118a4565b600380549192506000610efe83611f99565b9091555083516000828152600460205260408120919091559092505b8351811015611280576000848281518110610f3757610f37611fca565b6020026020010151905060008160000151905060007f00000000000000000000000000000000000000000000000000000000000000006001600160a01b0316634854078f84602001516040518263ffffffff1660e01b8152600401610f9c9190611db6565b60206040518083038186803b158015610fb457600080fd5b505afa158015610fc8573d6000803e3d6000fd5b505050506040513d601f19601f82011682018060405250810190610fec91906119f7565b6040805180820182526fffffffffffffffffffffffffffffffff8084168252858116602080840191825260008c8152600582528581208b825290915293909320915192518116600160801b0292169190911790556060840151805191925090156111415760405163c16e50ef60e01b81526001600160a01b0387169063c16e50ef9061107c908490600401611db6565b60206040518083038186803b15801561109457600080fd5b505afa1580156110a8573d6000803e3d6000fd5b505050506040513d601f19601f820116820180604052508101906110cc919061185d565b6111185760405162461bcd60e51b815260206004820152601b60248201527f72656769737465723a20496e76616c6964207472616e73666f726d0000000000604482015260640161065f565b60008781526006602090815260408083208884528252909120825161113f92840190611590565b505b604084015180511561123e5760405163c16e50ef60e01b81526001600160a01b0388169063c16e50ef90611179908490600401611db6565b60206040518083038186803b15801561119157600080fd5b505afa1580156111a5573d6000803e3d6000fd5b505050506040513d601f19601f820116820180604052508101906111c9919061185d565b6112155760405162461bcd60e51b815260206004820152601660248201527f72656769737465723a20496e76616c69642066696c6c00000000000000000000604482015260640161065f565b60008881526007602090815260408083208984528252909120825161123c92840190611590565b505b60808501511561126857608085015160008981526008602090815260408083208a84529091529020555b5050505050808061127890611f99565b915050610f1a565b5060408051338152602081018490527fb6b49fb493aab716d37ffe3ad9f192adb9d7c116b0ca7423db8d0e56a1dc93b2910160405180910390a150919050565b6112c861134d565b6001600160a01b0381166113445760405162461bcd60e51b815260206004820152602660248201527f4f776e61626c653a206e6577206f776e657220697320746865207a65726f206160448201527f6464726573730000000000000000000000000000000000000000000000000000606482015260840161065f565b6105bc816113a7565b6000546001600160a01b031633146105ab5760405162461bcd60e51b815260206004820181905260248201527f4f776e61626c653a2063616c6c6572206973206e6f7420746865206f776e6572604482015260640161065f565b600080546001600160a01b0383811673ffffffffffffffffffffffffffffffffffffffff19831681178455604051919092169283917f8be0079c531659141344cd1fd0a4f28419497f9722a3daafe3b4186f6b6457e09190a35050565b60606000611411836114ae565b600101905060008167ffffffffffffffff81111561143157611431611fe0565b6040519080825280601f01601f19166020018201604052801561145b576020820181803683370190505b5090508181016020015b600019017f3031323334353637383961626364656600000000000000000000000000000000600a86061a8153600a85049450846114a1576114a6565b611465565b509392505050565b6000807a184f03e93ff9f4daa797ed6e38ed64bf6a1f01000000000000000083106114f7577a184f03e93ff9f4daa797ed6e38ed64bf6a1f010000000000000000830492506040015b6d04ee2d6d415b85acef81000000008310611523576d04ee2d6d415b85acef8100000000830492506020015b662386f26fc10000831061154157662386f26fc10000830492506010015b6305f5e1008310611559576305f5e100830492506008015b612710831061156d57612710830492506004015b6064831061157f576064830492506002015b600a831061050b5760010192915050565b82805461159c90611f5e565b90600052602060002090601f0160209004810192826115be5760008555611604565b82601f106115d757805160ff1916838001178555611604565b82800160010185558215611604579182015b828111156116045782518255916020019190600101906115e9565b50611610929150611614565b5090565b5b808211156116105760008155600101611615565b80516116348161200b565b919050565b600082601f83011261164a57600080fd5b813561165d61165882611ecd565b611e9c565b81815284602083860101111561167257600080fd5b816020850160208301376000918101602001919091529392505050565b600082601f8301126116a057600080fd5b81516116ae61165882611ecd565b8181528460208386010111156116c357600080fd5b6116d4826020830160208701611f2e565b949350505050565b6000602082840312156116ee57600080fd5b81356116f981611ff6565b9392505050565b6000602080838503121561171357600080fd5b823567ffffffffffffffff8082111561172b57600080fd5b818501915085601f83011261173f57600080fd5b81358181111561175157611751611fe0565b8060051b611760858201611e9c565b8281528581019085870183870188018b101561177b57600080fd5b600093505b8484101561184f5780358681111561179757600080fd5b870160a0818d03601f190112156117ad57600080fd5b6117b5611e50565b8982013581526040820135888111156117cd57600080fd5b6117db8e8c83860101611639565b8b83015250606080830135898111156117f357600080fd5b6118018f8d83870101611639565b60408401525060808301358981111561181957600080fd5b6118278f8d83870101611639565b918301919091525060a091909101356080820152835260019390930192918701918701611780565b509998505050505050505050565b60006020828403121561186f57600080fd5b81516116f98161200b565b60006020828403121561188c57600080fd5b81356001600160e01b0319811681146116f957600080fd5b6000602082840312156118b657600080fd5b81516116f981611ff6565b600080604083850312156118d457600080fd5b825167ffffffffffffffff808211156118ec57600080fd5b6118f88683870161168f565b9350602085015191508082111561190e57600080fd5b5061191b8582860161168f565b9150509250929050565b6000806040838503121561193857600080fd5b825167ffffffffffffffff8082111561195057600080fd5b908401906060828703121561196457600080fd5b61196c611e79565b82518281111561197b57600080fd5b6119878882860161168f565b82525060208301518281111561199c57600080fd5b6119a88882860161168f565b602083015250604083015192506119be83611ff6565b60408101929092525091506119d560208401611629565b90509250929050565b6000602082840312156119f057600080fd5b5035919050565b600060208284031215611a0957600080fd5b5051919050565b60008060408385031215611a2357600080fd5b823591506020830135611a358161200b565b809150509250929050565b60008060408385031215611a5357600080fd5b50508035926020909101359150565b60008151808452611a7a816020860160208601611f2e565b601f01601f19169290920160200192915050565b60008351611aa0818460208801611f2e565b835190830190611ab4818360208801611f2e565b01949350505050565b60008351611acf818460208801611f2e565b7f203c75736520687265663d2223000000000000000000000000000000000000009083019081528351611b0981600d840160208801611f2e565b601160f91b600d9290910191820152600e01949350505050565b60008351611b35818460208801611f2e565b80830190507f207374726f6b653d22626c61636b22207374726f6b652d6c696e656361703d2281527f726f756e6422207374726f6b652d77696474683d22000000000000000000000060208201528351611b96816035840160208801611f2e565b7f707822000000000000000000000000000000000000000000000000000000000060359290910191820152603801949350505050565b60008251611bde818460208701611f2e565b7f202f3e0a00000000000000000000000000000000000000000000000000000000920191825250600401919050565b60008351611c1f818460208801611f2e565b7f2066696c6c3d22000000000000000000000000000000000000000000000000009083019081528351611c59816007840160208801611f2e565b601160f91b60079290910191820152600801949350505050565b60008451611c85818460208901611f2e565b7f3c672069643d22000000000000000000000000000000000000000000000000009083019081528451611cbf816007840160208901611f2e565b7f22203e0a00000000000000000000000000000000000000000000000000000000600792909101918201528351611cfd81600b840160208801611f2e565b7f3c2f673e0a000000000000000000000000000000000000000000000000000000600b929091019182015260100195945050505050565b60008351611d46818460208801611f2e565b7f207472616e73666f726d3d2200000000000000000000000000000000000000009083019081528351611d8081600c840160208801611f2e565b601160f91b600c9290910191820152600d01949350505050565b60008251611dac818460208701611f2e565b9190910192915050565b6020815260006116f96020830184611a62565b604081526000611ddc6040830185611a62565b8281036020840152611dee8185611a62565b95945050505050565b602081526000825160606020840152611e136080840182611a62565b90506020840151601f19848303016040850152611e308282611a62565b9150506001600160a01b0360408501511660608401528091505092915050565b60405160a0810167ffffffffffffffff81118282101715611e7357611e73611fe0565b60405290565b6040516060810167ffffffffffffffff81118282101715611e7357611e73611fe0565b604051601f8201601f1916810167ffffffffffffffff81118282101715611ec557611ec5611fe0565b604052919050565b600067ffffffffffffffff821115611ee757611ee7611fe0565b50601f01601f191660200190565b600082611f1257634e487b7160e01b600052601260045260246000fd5b500490565b600082821015611f2957611f29611fb4565b500390565b60005b83811015611f49578181015183820152602001611f31565b83811115611f58576000848401525b50505050565b600181811c90821680611f7257607f821691505b60208210811415611f9357634e487b7160e01b600052602260045260246000fd5b50919050565b6000600019821415611fad57611fad611fb4565b5060010190565b634e487b7160e01b600052601160045260246000fd5b634e487b7160e01b600052603260045260246000fd5b634e487b7160e01b600052604160045260246000fd5b6001600160a01b03811681146105bc57600080fd5b80151581146105bc57600080fdfea2646970667358221220c62f3092356089598591344f950e812e737c793c2714034e2f8370ffe7de4c1c64736f6c6343000806003360a060405234801561001057600080fd5b506040516115b53803806115b583398101604081905261002f9161009d565b6100383361004d565b60601b6001600160601b0319166080526100cd565b600080546001600160a01b038381166001600160a01b0319831681178455604051919092169283917f8be0079c531659141344cd1fd0a4f28419497f9722a3daafe3b4186f6b6457e09190a35050565b6000602082840312156100af57600080fd5b81516001600160a01b03811681146100c657600080fd5b9392505050565b60805160601c611484610131600039600081816101cc0152818161044a015281816104e2015281816105770152818161065a0152818161071f015281816107ec01528181610883015281816109f201528181610a860152610b3b01526114846000f3fe6080604052600436106100f35760003560e01c80637805544c1161008a5780638da5cb5b116100595780638da5cb5b1461026a578063d4f056d41461033b578063e3f24f021461035b578063f2fde38b1461038957600080fd5b80637805544c1461024a578063893d20e81461026a57806389ee68bf146102885780638c40188e1461029b57600080fd5b8063515f28cb116100c6578063515f28cb1461019a578063597a0e36146101ba5780635c73924c14610206578063715018a61461023357600080fd5b806301ffc9a7146100f857806306545a931461012d57806318160ddd14610157578063468823e21461017a575b600080fd5b34801561010457600080fd5b50610118610113366004610e16565b6103a9565b60405190151581526020015b60405180910390f35b34801561013957600080fd5b50610142610446565b60405163ffffffff9091168152602001610124565b34801561016357600080fd5b5061016c6104de565b604051908152602001610124565b34801561018657600080fd5b5061016c610195366004610f0e565b610571565b3480156101a657600080fd5b506101426101b5366004610eaa565b610627565b3480156101c657600080fd5b506101ee7f000000000000000000000000000000000000000000000000000000000000000081565b6040516001600160a01b039091168152602001610124565b34801561021257600080fd5b50610226610221366004611164565b6106e8565b60405161012491906111ca565b34801561023f57600080fd5b506102486107a5565b005b34801561025657600080fd5b50610226610265366004610f86565b6107b9565b34801561027657600080fd5b506000546001600160a01b03166101ee565b610248610296366004611132565b610877565b3480156102a757600080fd5b5061032e60408051606080820183528082526020820152600091810191909152506040805160a08101825260056060820190815264185cdcd95d60da1b6080830152815281518083018352600b81527f41737365742053746f7265000000000000000000000000000000000000000000602082810191909152820152309181019190915290565b60405161012491906112a7565b34801561034757600080fd5b50610142610356366004610e40565b6109bf565b34801561036757600080fd5b5061037b610376366004611132565b610a77565b6040516101249291906111dd565b34801561039557600080fd5b506102486103a4366004610df9565b610be5565b60006001600160e01b031982167f7777120600000000000000000000000000000000000000000000000000000000148061040c57506001600160e01b031982167fe105c16e00000000000000000000000000000000000000000000000000000000145b8061044057506001600160e01b031982167f01ffc9a700000000000000000000000000000000000000000000000000000000145b92915050565b60007f00000000000000000000000000000000000000000000000000000000000000006001600160a01b03166306545a936040518163ffffffff1660e01b815260040160206040518083038186803b1580156104a157600080fd5b505afa1580156104b5573d6000803e3d6000fd5b505050506040513d601f19601f820116820180604052508101906104d99190611181565b905090565b60007f00000000000000000000000000000000000000000000000000000000000000006001600160a01b031663a0aead4d6040518163ffffffff1660e01b815260040160206040518083038186803b15801561053957600080fd5b505afa15801561054d573d6000803e3d6000fd5b505050506040513d601f19601f820116820180604052508101906104d9919061114b565b600060017f00000000000000000000000000000000000000000000000000000000000000006001600160a01b031663468823e28686866040518463ffffffff1660e01b81526004016105c59392919061120b565b60206040518083038186803b1580156105dd57600080fd5b505afa1580156105f1573d6000803e3d6000fd5b505050506040513d601f19601f82011682018060405250810190610615919061114b565b61061f91906113b4565b949350505050565b6040517f515f28cb0000000000000000000000000000000000000000000000000000000081526000906001600160a01b037f0000000000000000000000000000000000000000000000000000000000000000169063515f28cb9061069190869086906004016111dd565b60206040518083038186803b1580156106a957600080fd5b505afa1580156106bd573d6000803e3d6000fd5b505050506040513d601f19601f820116820180604052508101906106e19190611181565b9392505050565b6040517f5c73924c00000000000000000000000000000000000000000000000000000000815263ffffffff821660048201526060907f00000000000000000000000000000000000000000000000000000000000000006001600160a01b031690635c73924c9060240160006040518083038186803b15801561076957600080fd5b505afa15801561077d573d6000803e3d6000fd5b505050506040513d6000823e601f3d908101601f191682016040526104409190810190610e75565b6107ad610c7a565b6107b76000610cd4565b565b6040517f7805544c0000000000000000000000000000000000000000000000000000000081526060906001600160a01b037f00000000000000000000000000000000000000000000000000000000000000001690637805544c90610823908690869060040161127f565b60006040518083038186803b15801561083b57600080fd5b505afa15801561084f573d6000803e3d6000fd5b505050506040513d6000823e601f3d908101601f191682016040526106e19190810190610e75565b60006001600160a01b037f000000000000000000000000000000000000000000000000000000000000000016634378a6e36108b384600161139c565b6040518263ffffffff1660e01b81526004016108d191815260200190565b60006040518083038186803b1580156108e957600080fd5b505afa1580156108fd573d6000803e3d6000fd5b505050506040513d6000823e601f3d908101601f191682016040526109259190810190610fd8565b60a0810151604051919250906001600160a01b038216903480156108fc02916000818181858888f19350505050158015610963573d6000803e3d6000fd5b506040805180820182526005815264185cdcd95d60da1b602082015290517fbb0eeee27936db25b1a46a81ab6d97326392a3e961efa7273d5d756d7a2e1cad916109b291869085903490611247565b60405180910390a1505050565b6040517fd4f056d40000000000000000000000000000000000000000000000000000000081526000906001600160a01b037f0000000000000000000000000000000000000000000000000000000000000000169063d4f056d490610a279085906004016111ca565b60206040518083038186803b158015610a3f57600080fd5b505afa158015610a53573d6000803e3d6000fd5b505050506040513d601f19601f820116820180604052508101906104409190611181565b60608060006001600160a01b037f000000000000000000000000000000000000000000000000000000000000000016634378a6e3610ab686600161139c565b6040518263ffffffff1660e01b8152600401610ad491815260200190565b60006040518083038186803b158015610aec57600080fd5b505afa158015610b00573d6000803e3d6000fd5b505050506040513d6000823e601f3d908101601f19168201604052610b289190810190610fd8565b6060810151925090506001600160a01b037f0000000000000000000000000000000000000000000000000000000000000000166334320bf1610b6b86600161139c565b846040518363ffffffff1660e01b8152600401610b89929190611300565b60006040518083038186803b158015610ba157600080fd5b505afa158015610bb5573d6000803e3d6000fd5b505050506040513d6000823e601f3d908101601f19168201604052610bdd9190810190610e75565b925050915091565b610bed610c7a565b6001600160a01b038116610c6e5760405162461bcd60e51b815260206004820152602660248201527f4f776e61626c653a206e6577206f776e657220697320746865207a65726f206160448201527f646472657373000000000000000000000000000000000000000000000000000060648201526084015b60405180910390fd5b610c7781610cd4565b50565b6000546001600160a01b031633146107b75760405162461bcd60e51b815260206004820181905260248201527f4f776e61626c653a2063616c6c6572206973206e6f7420746865206f776e65726044820152606401610c65565b600080546001600160a01b038381167fffffffffffffffffffffffff0000000000000000000000000000000000000000831681178455604051919092169283917f8be0079c531659141344cd1fd0a4f28419497f9722a3daafe3b4186f6b6457e09190a35050565b8051610d4781611427565b919050565b600082601f830112610d5d57600080fd5b8151610d70610d6b82611374565b611343565b818152846020838601011115610d8557600080fd5b61061f8260208301602087016113cb565b600082601f830112610da757600080fd5b8135610db5610d6b82611374565b818152846020838601011115610dca57600080fd5b816020850160208301376000918101602001919091529392505050565b805161ffff81168114610d4757600080fd5b600060208284031215610e0b57600080fd5b81356106e181611427565b600060208284031215610e2857600080fd5b81356001600160e01b0319811681146106e157600080fd5b600060208284031215610e5257600080fd5b813567ffffffffffffffff811115610e6957600080fd5b61061f84828501610d96565b600060208284031215610e8757600080fd5b815167ffffffffffffffff811115610e9e57600080fd5b61061f84828501610d4c565b60008060408385031215610ebd57600080fd5b823567ffffffffffffffff80821115610ed557600080fd5b610ee186838701610d96565b93506020850135915080821115610ef757600080fd5b50610f0485828601610d96565b9150509250929050565b600080600060608486031215610f2357600080fd5b833567ffffffffffffffff80821115610f3b57600080fd5b610f4787838801610d96565b94506020860135915080821115610f5d57600080fd5b50610f6a86828701610d96565b9250506040840135610f7b8161143c565b809150509250925092565b60008060408385031215610f9957600080fd5b823567ffffffffffffffff811115610fb057600080fd5b610fbc85828601610d96565b9250506020830135610fcd8161143c565b809150509250929050565b600060208284031215610fea57600080fd5b815167ffffffffffffffff8082111561100257600080fd5b90830190610120828603121561101757600080fd5b61101f611319565b82518281111561102e57600080fd5b61103a87828601610d4c565b82525060208301518281111561104f57600080fd5b61105b87828601610d4c565b60208301525060408301518281111561107357600080fd5b61107f87828601610d4c565b60408301525060608301518281111561109757600080fd5b6110a387828601610d4c565b6060830152506080830151828111156110bb57600080fd5b6110c787828601610d4c565b6080830152506110d960a08401610d3c565b60a082015260c0830151828111156110f057600080fd5b6110fc87828601610d4c565b60c08301525061110e60e08401610de7565b60e08201526101009150611123828401610de7565b91810191909152949350505050565b60006020828403121561114457600080fd5b5035919050565b60006020828403121561115d57600080fd5b5051919050565b60006020828403121561117657600080fd5b81356106e18161143c565b60006020828403121561119357600080fd5b81516106e18161143c565b600081518084526111b68160208601602086016113cb565b601f01601f19169290920160200192915050565b6020815260006106e1602083018461119e565b6040815260006111f0604083018561119e565b8281036020840152611202818561119e565b95945050505050565b60608152600061121e606083018661119e565b8281036020840152611230818661119e565b91505063ffffffff83166040830152949350505050565b60808152600061125a608083018761119e565b6020830195909552506001600160a01b03929092166040830152606090910152919050565b604081526000611292604083018561119e565b905063ffffffff831660208301529392505050565b6020815260008251606060208401526112c3608084018261119e565b90506020840151601f198483030160408501526112e0828261119e565b9150506001600160a01b0360408501511660608401528091505092915050565b82815260406020820152600061061f604083018461119e565b604051610120810167ffffffffffffffff8111828210171561133d5761133d611411565b60405290565b604051601f8201601f1916810167ffffffffffffffff8111828210171561136c5761136c611411565b604052919050565b600067ffffffffffffffff82111561138e5761138e611411565b50601f01601f191660200190565b600082198211156113af576113af6113fb565b500190565b6000828210156113c6576113c66113fb565b500390565b60005b838110156113e65781810151838201526020016113ce565b838111156113f5576000848401525b50505050565b634e487b7160e01b600052601160045260246000fd5b634e487b7160e01b600052604160045260246000fd5b6001600160a01b0381168114610c7757600080fd5b63ffffffff81168114610c7757600080fdfea26469706673582212203685c133fe9cb7d16062fb482f9341c5d9a53b8441e2fa583de587fa0de2a4c864736f6c6343000806003354686973206973206f6e65206f6620656666747320746f2063726561746520284f6e2d436861696e2041737365742053746f7265295b68747470733a2f2f617373657473746f72652e7774662f647261775d2e20",
  "linkReferences": {},
  "deployedLinkReferences": {}
}