{
  "_format": "hh-sol-artifact-1",
  "contractName": "AppStoreRegistory",
  "sourceName": "contracts/AssetStore.sol",
  "abi": [
    {
      "anonymous": false,
      "inputs": [
        {
          "indexed": false,
          "internalType": "address",
          "name": "from",
          "type": "address"
        },
        {
          "indexed": false,
          "internalType": "uint256",
          "name": "assetId",
          "type": "uint256"
        }
      ],
      "name": "AssetRegistered",
      "type": "event"
    },
    {
      "anonymous": false,
      "inputs": [
        {
          "indexed": false,
          "internalType": "string",
          "name": "group",
          "type": "string"
        },
        {
          "indexed": false,
          "internalType": "string",
          "name": "category",
          "type": "string"
        }
      ],
      "name": "CategoryAdded",
      "type": "event"
    },
    {
      "anonymous": false,
      "inputs": [
        {
          "indexed": false,
          "internalType": "string",
          "name": "group",
          "type": "string"
        }
      ],
      "name": "GroupAdded",
      "type": "event"
    },
    {
      "anonymous": false,
      "inputs": [
        {
          "indexed": true,
          "internalType": "address",
          "name": "previousOwner",
          "type": "address"
        },
        {
          "indexed": true,
          "internalType": "address",
          "name": "newOwner",
          "type": "address"
        }
      ],
      "name": "OwnershipTransferred",
      "type": "event"
    },
    {
      "inputs": [],
      "name": "admin",
      "outputs": [
        {
          "internalType": "address",
          "name": "",
          "type": "address"
        }
      ],
      "stateMutability": "view",
      "type": "function"
    },
    {
      "inputs": [],
      "name": "decoder",
      "outputs": [
        {
          "internalType": "contract IPathDecoder",
          "name": "",
          "type": "address"
        }
      ],
      "stateMutability": "view",
      "type": "function"
    },
    {
      "inputs": [],
      "name": "getAssetCount",
      "outputs": [
        {
          "internalType": "uint256",
          "name": "",
          "type": "uint256"
        }
      ],
      "stateMutability": "view",
      "type": "function"
    },
    {
      "inputs": [
        {
          "internalType": "uint256",
          "name": "_assetId",
          "type": "uint256"
        }
      ],
      "name": "getRawAsset",
      "outputs": [
        {
          "components": [
            {
              "internalType": "uint32",
              "name": "groupId",
              "type": "uint32"
            },
            {
              "internalType": "uint32",
              "name": "categoryId",
              "type": "uint32"
            },
            {
              "internalType": "string",
              "name": "name",
              "type": "string"
            },
            {
              "internalType": "string",
              "name": "minter",
              "type": "string"
            },
            {
              "internalType": "bytes",
              "name": "metadata",
              "type": "bytes"
            },
            {
              "internalType": "address",
              "name": "soulbound",
              "type": "address"
            },
            {
              "internalType": "uint256[]",
              "name": "partsIds",
              "type": "uint256[]"
            }
          ],
          "internalType": "struct AssetStoreCore.Asset",
          "name": "",
          "type": "tuple"
        }
      ],
      "stateMutability": "view",
      "type": "function"
    },
    {
      "inputs": [
        {
          "internalType": "uint256",
          "name": "_partId",
          "type": "uint256"
        }
      ],
      "name": "getRawPart",
      "outputs": [
        {
          "components": [
            {
              "internalType": "bytes",
              "name": "body",
              "type": "bytes"
            },
            {
              "internalType": "string",
              "name": "color",
              "type": "string"
            }
          ],
          "internalType": "struct IAssetStoreRegistry.Part",
          "name": "",
          "type": "tuple"
        }
      ],
      "stateMutability": "view",
      "type": "function"
    },
    {
      "inputs": [],
      "name": "owner",
      "outputs": [
        {
          "internalType": "address",
          "name": "",
          "type": "address"
        }
      ],
      "stateMutability": "view",
      "type": "function"
    },
    {
      "inputs": [
        {
          "components": [
            {
              "internalType": "string",
              "name": "group",
              "type": "string"
            },
            {
              "internalType": "string",
              "name": "category",
              "type": "string"
            },
            {
              "internalType": "string",
              "name": "name",
              "type": "string"
            },
            {
              "internalType": "string",
              "name": "minter",
              "type": "string"
            },
            {
              "internalType": "address",
              "name": "soulbound",
              "type": "address"
            },
            {
              "internalType": "bytes",
              "name": "metadata",
              "type": "bytes"
            },
            {
              "components": [
                {
                  "internalType": "bytes",
                  "name": "body",
                  "type": "bytes"
                },
                {
                  "internalType": "string",
                  "name": "color",
                  "type": "string"
                }
              ],
              "internalType": "struct IAssetStoreRegistry.Part[]",
              "name": "parts",
              "type": "tuple[]"
            }
          ],
          "internalType": "struct IAssetStoreRegistry.AssetInfo",
          "name": "_assetInfo",
          "type": "tuple"
        }
      ],
      "name": "registerAsset",
      "outputs": [
        {
          "internalType": "uint256",
          "name": "",
          "type": "uint256"
        }
      ],
      "stateMutability": "nonpayable",
      "type": "function"
    },
    {
      "inputs": [
        {
          "components": [
            {
              "internalType": "string",
              "name": "group",
              "type": "string"
            },
            {
              "internalType": "string",
              "name": "category",
              "type": "string"
            },
            {
              "internalType": "string",
              "name": "name",
              "type": "string"
            },
            {
              "internalType": "string",
              "name": "minter",
              "type": "string"
            },
            {
              "internalType": "address",
              "name": "soulbound",
              "type": "address"
            },
            {
              "internalType": "bytes",
              "name": "metadata",
              "type": "bytes"
            },
            {
              "components": [
                {
                  "internalType": "bytes",
                  "name": "body",
                  "type": "bytes"
                },
                {
                  "internalType": "string",
                  "name": "color",
                  "type": "string"
                }
              ],
              "internalType": "struct IAssetStoreRegistry.Part[]",
              "name": "parts",
              "type": "tuple[]"
            }
          ],
          "internalType": "struct IAssetStoreRegistry.AssetInfo[]",
          "name": "_assetInfos",
          "type": "tuple[]"
        }
      ],
      "name": "registerAssets",
      "outputs": [],
      "stateMutability": "nonpayable",
      "type": "function"
    },
    {
      "inputs": [],
      "name": "renounceOwnership",
      "outputs": [],
      "stateMutability": "nonpayable",
      "type": "function"
    },
    {
      "inputs": [
        {
          "internalType": "address",
          "name": "_admin",
          "type": "address"
        }
      ],
      "name": "setAdmin",
      "outputs": [],
      "stateMutability": "nonpayable",
      "type": "function"
    },
    {
      "inputs": [
        {
          "internalType": "bool",
          "name": "_disable",
          "type": "bool"
        }
      ],
      "name": "setDisableWhitelist",
      "outputs": [],
      "stateMutability": "nonpayable",
      "type": "function"
    },
    {
      "inputs": [
        {
          "internalType": "uint256",
          "name": "_assetId",
          "type": "uint256"
        },
        {
          "internalType": "bool",
          "name": "_status",
          "type": "bool"
        }
      ],
      "name": "setDisabled",
      "outputs": [],
      "stateMutability": "nonpayable",
      "type": "function"
    },
    {
      "inputs": [
        {
          "internalType": "contract IPathDecoder",
          "name": "_decoder",
          "type": "address"
        }
      ],
      "name": "setPathDecoder",
      "outputs": [],
      "stateMutability": "nonpayable",
      "type": "function"
    },
    {
      "inputs": [
        {
          "internalType": "contract IStringValidator",
          "name": "_validator",
          "type": "address"
        }
      ],
      "name": "setValidator",
      "outputs": [],
      "stateMutability": "nonpayable",
      "type": "function"
    },
    {
      "inputs": [
        {
          "internalType": "address",
          "name": "_address",
          "type": "address"
        },
        {
          "internalType": "bool",
          "name": "_status",
          "type": "bool"
        }
      ],
      "name": "setWhitelistStatus",
      "outputs": [],
      "stateMutability": "nonpayable",
      "type": "function"
    },
    {
      "inputs": [
        {
          "internalType": "address",
          "name": "newOwner",
          "type": "address"
        }
      ],
      "name": "transferOwnership",
      "outputs": [],
      "stateMutability": "nonpayable",
      "type": "function"
    },
    {
      "inputs": [],
      "name": "validator",
      "outputs": [
        {
          "internalType": "contract IStringValidator",
          "name": "",
          "type": "address"
        }
      ],
      "stateMutability": "view",
      "type": "function"
    }
  ],
  "bytecode": "0x608060405260016004819055600655600e805460ff191690553480156200002557600080fd5b50620000313362000107565b6040516200003f9062000157565b604051809103906000f0801580156200005c573d6000803e3d6000fd5b50600180546001600160a01b0319166001600160a01b03929092169190911790556040516200008b9062000165565b604051809103906000f080158015620000a8573d6000803e3d6000fd5b50600280546001600160a01b0319166001600160a01b03928316179055336000908152600d60205260408120805460ff191660011790555416600c80546001600160a01b0319166001600160a01b039290921691909117905562000173565b600080546001600160a01b038381166001600160a01b0319831681178455604051919092169283917f8be0079c531659141344cd1fd0a4f28419497f9722a3daafe3b4186f6b6457e09190a35050565b610688806200229d83390190565b61080f806200292583390190565b61211a80620001836000396000f3fe608060405234801561001057600080fd5b506004361061011b5760003560e01c8063704b6c02116100b2578063a0aead4d11610081578063eedf630911610066578063eedf63091461024c578063f2fde38b1461026c578063f851a4401461027f57600080fd5b8063a0aead4d14610224578063b688a0e21461022c57600080fd5b8063704b6c02146101e5578063715018a6146101f85780638da5cb5b146102005780639cb330051461021157600080fd5b80633a5381b5116100ee5780633a5381b51461016e578063587d62c21461019e5780635b7eea86146101b15780636613845c146101d257600080fd5b80630727ca4c146101205780630c424284146101355780631327d3d81461014857806315ea29be1461015b575b600080fd5b61013361012e366004611cb7565b610292565b005b610133610143366004611bc6565b61032a565b610133610156366004611ba2565b6103d5565b610133610169366004611d47565b610477565b600154610181906001600160a01b031681565b6040516001600160a01b0390911681526020015b60405180910390f35b6101336101ac366004611bff565b610582565b6101c46101bf366004611cf1565b610659565b604051908152602001610195565b6101336101e0366004611ba2565b6106ff565b6101336101f3366004611ba2565b6107a1565b6101336107cb565b6000546001600160a01b0316610181565b600254610181906001600160a01b031681565b6101c46107df565b61023f61023a366004611d2e565b6107f5565b6040516101959190611eea565b61025f61025a366004611d2e565b610892565b6040516101959190611e30565b61013361027a366004611ba2565b61096b565b600c54610181906001600160a01b031681565b6000546001600160a01b03163314806102b55750600c546001600160a01b031633145b6103175760405162461bcd60e51b815260206004820152602860248201527f417373657453746f726541646d696e3a2063616c6c6572206973206e6f74207460448201526734329030b236b4b760c11b60648201526084015b60405180910390fd5b600e805460ff1916911515919091179055565b6000546001600160a01b031633148061034d5750600c546001600160a01b031633145b6103aa5760405162461bcd60e51b815260206004820152602860248201527f417373657453746f726541646d696e3a2063616c6c6572206973206e6f74207460448201526734329030b236b4b760c11b606482015260840161030e565b6001600160a01b03919091166000908152600d60205260409020805460ff1916911515919091179055565b6000546001600160a01b03163314806103f85750600c546001600160a01b031633145b6104555760405162461bcd60e51b815260206004820152602860248201527f417373657453746f726541646d696e3a2063616c6c6572206973206e6f74207460448201526734329030b236b4b760c11b606482015260840161030e565b600180546001600160a01b0319166001600160a01b0392909216919091179055565b81600081118015610489575060045481105b6104e15760405162461bcd60e51b815260206004820152602360248201527f417373657453746f72653a2061737365744964206973206f7574206f662072616044820152626e676560e81b606482015260840161030e565b6000546001600160a01b03163314806105045750600c546001600160a01b031633145b6105615760405162461bcd60e51b815260206004820152602860248201527f417373657453746f726541646d696e3a2063616c6c6572206973206e6f74207460448201526734329030b236b4b760c11b606482015260840161030e565b506000918252600f6020526040909120805460ff1916911515919091179055565b600e5460ff16806105a25750336000908152600d602052604090205460ff165b6106145760405162461bcd60e51b815260206004820152603160248201527f417373657453746f72653a205468652073656e646572206d757374206265206960448201527f6e20746865207768697465206c6973742e000000000000000000000000000000606482015260840161030e565b60005b81518110156106555761064282828151811061063557610635612095565b60200260200101516109fb565b508061064d81612040565b915050610617565b5050565b600e5460009060ff168061067c5750336000908152600d602052604090205460ff165b6106ee5760405162461bcd60e51b815260206004820152603160248201527f417373657453746f72653a205468652073656e646572206d757374206265206960448201527f6e20746865207768697465206c6973742e000000000000000000000000000000606482015260840161030e565b6106f7826109fb565b90505b919050565b6000546001600160a01b03163314806107225750600c546001600160a01b031633145b61077f5760405162461bcd60e51b815260206004820152602860248201527f417373657453746f726541646d696e3a2063616c6c6572206973206e6f74207460448201526734329030b236b4b760c11b606482015260840161030e565b600280546001600160a01b0319166001600160a01b0392909216919091179055565b6107a9610fb7565b600c80546001600160a01b0319166001600160a01b0392909216919091179055565b6107d3610fb7565b6107dd6000611011565b565b600060016004546107f09190611fc4565b905090565b60408051808201909152606080825260208201526000546001600160a01b031633148061082c5750600c546001600160a01b031633145b6108895760405162461bcd60e51b815260206004820152602860248201527f417373657453746f726541646d696e3a2063616c6c6572206973206e6f74207460448201526734329030b236b4b760c11b606482015260840161030e565b6106f782611061565b6040805160e08101825260008082526020820181905260609282018390528282018390526080820183905260a082015260c0810191909152336001600160a01b03166108e66000546001600160a01b031690565b6001600160a01b031614806109055750600c546001600160a01b031633145b6109625760405162461bcd60e51b815260206004820152602860248201527f417373657453746f726541646d696e3a2063616c6c6572206973206e6f74207460448201526734329030b236b4b760c11b606482015260840161030e565b6106f782611217565b610973610fb7565b6001600160a01b0381166109ef5760405162461bcd60e51b815260206004820152602660248201527f4f776e61626c653a206e6577206f776e657220697320746865207a65726f206160448201527f6464726573730000000000000000000000000000000000000000000000000000606482015260840161030e565b6109f881611011565b50565b60c0810151516000908290825b81811015610b195760008360c001518281518110610a2857610a28612095565b6020908102919091018101516001549181015160405163c16e50ef60e01b81529193506001600160a01b039092169163c16e50ef91610a6a9190600401611def565b60206040518083038186803b158015610a8257600080fd5b505afa158015610a96573d6000803e3d6000fd5b505050506040513d601f19601f82011682018060405250810190610aba9190611cd4565b610b065760405162461bcd60e51b815260206004820152601760248201527f496e76616c69642041737365744461746120436f6c6f72000000000000000000604482015260640161030e565b5080610b1181612040565b915050610a08565b600154604080850151905163c16e50ef60e01b81526001600160a01b039092169163c16e50ef91610b4c91600401611def565b60206040518083038186803b158015610b6457600080fd5b505afa158015610b78573d6000803e3d6000fd5b505050506040513d601f19601f82011682018060405250810190610b9c9190611cd4565b610be85760405162461bcd60e51b815260206004820152601660248201527f496e76616c696420417373657444617461204e616d6500000000000000000000604482015260640161030e565b6000610bf7866000015161151c565b90506000610c0e8760000151838960200151611586565b60c08801515190915060008167ffffffffffffffff811115610c3257610c326120ab565b604051908082528060200260200182016040528015610c5b578160200160208202803683370190505b50905060005b82811015610cbe57610c8f8a60c001518281518110610c8257610c82612095565b602002602001015161160f565b828281518110610ca157610ca1612095565b602090810291909101015280610cb681612040565b915050610c61565b6004805460009182610ccf83612040565b90915550600081815260036020908152604091829020918e015180519394509192610d00926001850192019061184e565b5060808c01516004820180546001600160a01b0319166001600160a01b0390921691909117905560608c0151518015610dc7576020811115610daa5760405162461bcd60e51b815260206004820152603460248201527f417373657453676f72653a205f726567697374657241737365742c206d696e7460448201527f6572206e616d6520697320746f6f206c6f6e672e000000000000000000000000606482015260840161030e565b60608d01518051610dc591600285019160209091019061184e565b505b60a08d01515115610def5760a08d01518051610ded91600385019160209091019061184e565b505b815463ffffffff8881166401000000000267ffffffffffffffff19909216908a16171782558451610e2990600584019060208801906118d2565b5063ffffffff8089166000908152600b60209081526040808320938b1683529290528190208e820151915190916002830191610e659190611dd3565b908152602001604051809103902054600014610ee95760405162461bcd60e51b815260206004820152603b60248201527f417373657420616c72656164792065786973747320776974682074686520736160448201527f6d652067726f75702c2063617465676f727920616e64206e616d650000000000606482015260840161030e565b6001810180548591839160009163ffffffff9091169082610f098361205b565b91906101000a81548163ffffffff021916908363ffffffff16021790555063ffffffff1663ffffffff1681526020019081526020016000208190555083816002018f60400151604051610f5c9190611dd3565b9081526040805160209281900383018120939093553383529082018690527ffd64e3f1068245597a589d8b057edbd3d3c312207d5c6d0d770825f68604ff1a910160405180910390a150919c9b505050505050505050505050565b6000546001600160a01b031633146107dd5760405162461bcd60e51b815260206004820181905260248201527f4f776e61626c653a2063616c6c6572206973206e6f7420746865206f776e6572604482015260640161030e565b600080546001600160a01b038381166001600160a01b0319831681178455604051919092169283917f8be0079c531659141344cd1fd0a4f28419497f9722a3daafe3b4186f6b6457e09190a35050565b604080518082019091526060808252602082015281600081118015611087575060065481105b6110d35760405162461bcd60e51b815260206004820152601660248201527f706172744964206973206f7574206f662072616e676500000000000000000000604482015260640161030e565b6000838152600560205260409081902081518083019092528054829082906110fa9061200b565b80601f01602080910402602001604051908101604052809291908181526020018280546111269061200b565b80156111735780601f1061114857610100808354040283529160200191611173565b820191906000526020600020905b81548152906001019060200180831161115657829003601f168201915b5050505050815260200160018201805461118c9061200b565b80601f01602080910402602001604051908101604052809291908181526020018280546111b89061200b565b80156112055780601f106111da57610100808354040283529160200191611205565b820191906000526020600020905b8154815290600101906020018083116111e857829003601f168201915b50505050508152505091505b50919050565b6040805160e08101825260008082526020820181905260609282018390528282018390526080820183905260a082015260c081019190915281600081118015611261575060045481105b6112b95760405162461bcd60e51b815260206004820152602360248201527f417373657453746f72653a2061737365744964206973206f7574206f662072616044820152626e676560e81b606482015260840161030e565b600083815260036020908152604091829020825160e081018452815463ffffffff8082168352640100000000909104169281019290925260018101805492939192918401916113079061200b565b80601f01602080910402602001604051908101604052809291908181526020018280546113339061200b565b80156113805780601f1061135557610100808354040283529160200191611380565b820191906000526020600020905b81548152906001019060200180831161136357829003601f168201915b505050505081526020016002820180546113999061200b565b80601f01602080910402602001604051908101604052809291908181526020018280546113c59061200b565b80156114125780601f106113e757610100808354040283529160200191611412565b820191906000526020600020905b8154815290600101906020018083116113f557829003601f168201915b5050505050815260200160038201805461142b9061200b565b80601f01602080910402602001604051908101604052809291908181526020018280546114579061200b565b80156114a45780601f10611479576101008083540402835291602001916114a4565b820191906000526020600020905b81548152906001019060200180831161148757829003601f168201915b505050918352505060048201546001600160a01b0316602080830191909152600583018054604080518285028101850182528281529401939283018282801561120557602002820191906000526020600020905b8154815260200190600101908083116114f857505050505081525050915050919050565b6001546000908190819061153d9060079086906001600160a01b031661167e565b91509150801561157f577ff38f46310740c7f6f3e724364a429e671b125298f7a65e69fc18ff94a1e2d047846040516115769190611def565b60405180910390a15b5092915050565b63ffffffff8083166000908152600a6020526040812060015491929091839182916115c191859188916001600160a01b039091169061167e16565b915091508015611605577fcbc1b8c1fb300e15a9e99dc508aecdff1352f0fad4a5e4b7832d41e369635c0387866040516115fc929190611e02565b60405180910390a15b5095945050505050565b600081600560006006600081548092919061162990612040565b9091555081526020808201929092526040016000208251805191926116539284929091019061184e565b50602082810151805161166c926001850192019061184e565b50506006546106f79150600190611fc4565b600080600085600201856040516116959190611dd3565b9081526040519081900360200190205463ffffffff16905080156116be57915060009050611846565b60405163c16e50ef60e01b81526001600160a01b0385169063c16e50ef906116ea908890600401611def565b60206040518083038186803b15801561170257600080fd5b505afa158015611716573d6000803e3d6000fd5b505050506040513d601f19601f8201168201806040525081019061173a9190611cd4565b6117865760405162461bcd60e51b815260206004820152601f60248201527f537472696e675365742e67657449643a20496e76616c696420537472696e6700604482015260640161030e565b6001860180548691889160009163ffffffff90911690826117a68361205b565b91906101000a81548163ffffffff021916908363ffffffff16021790555063ffffffff1663ffffffff16815260200190815260200160002090805190602001906117f192919061184e565b5050600185015460405163ffffffff9091169081906002880190611816908890611dd3565b908152604051908190036020019020805463ffffffff9290921663ffffffff199092169190911790559150600190505b935093915050565b82805461185a9061200b565b90600052602060002090601f01602090048101928261187c57600085556118c2565b82601f1061189557805160ff19168380011785556118c2565b828001600101855582156118c2579182015b828111156118c25782518255916020019190600101906118a7565b506118ce92915061190c565b5090565b8280548282559060005260206000209081019282156118c257916020028201828111156118c25782518255916020019190600101906118a7565b5b808211156118ce576000815560010161190d565b80356106fa816120c1565b600082601f83011261193d57600080fd5b8135602061195261194d83611fa0565b611f6f565b80838252828201915082860187848660051b890101111561197257600080fd5b60005b85811015611a1157813567ffffffffffffffff8082111561199557600080fd5b908901906040828c03601f19018113156119ae57600080fd5b6119b6611f23565b88840135838111156119c757600080fd5b6119d58e8b83880101611a1e565b8252509083013590828211156119ea57600080fd5b6119f88d8a84870101611a1e565b818a015287525050509284019290840190600101611975565b5090979650505050505050565b600082601f830112611a2f57600080fd5b813567ffffffffffffffff811115611a4957611a496120ab565b611a5c601f8201601f1916602001611f6f565b818152846020838601011115611a7157600080fd5b816020850160208301376000918101602001919091529392505050565b600060e08284031215611aa057600080fd5b611aa8611f4c565b9050813567ffffffffffffffff80821115611ac257600080fd5b611ace85838601611a1e565b83526020840135915080821115611ae457600080fd5b611af085838601611a1e565b60208401526040840135915080821115611b0957600080fd5b611b1585838601611a1e565b60408401526060840135915080821115611b2e57600080fd5b611b3a85838601611a1e565b6060840152611b4b60808501611921565b608084015260a0840135915080821115611b6457600080fd5b611b7085838601611a1e565b60a084015260c0840135915080821115611b8957600080fd5b50611b968482850161192c565b60c08301525092915050565b600060208284031215611bb457600080fd5b8135611bbf816120c1565b9392505050565b60008060408385031215611bd957600080fd5b8235611be4816120c1565b91506020830135611bf4816120d6565b809150509250929050565b60006020808385031215611c1257600080fd5b823567ffffffffffffffff80821115611c2a57600080fd5b818501915085601f830112611c3e57600080fd5b8135611c4c61194d82611fa0565b80828252858201915085850189878560051b8801011115611c6c57600080fd5b6000805b85811015611ca757823587811115611c86578283fd5b611c948d8b838c0101611a8e565b8652509388019391880191600101611c70565b50919a9950505050505050505050565b600060208284031215611cc957600080fd5b8135611bbf816120d6565b600060208284031215611ce657600080fd5b8151611bbf816120d6565b600060208284031215611d0357600080fd5b813567ffffffffffffffff811115611d1a57600080fd5b611d2684828501611a8e565b949350505050565b600060208284031215611d4057600080fd5b5035919050565b60008060408385031215611d5a57600080fd5b823591506020830135611bf4816120d6565b600081518084526020808501945080840160005b83811015611d9c57815187529582019590820190600101611d80565b509495945050505050565b60008151808452611dbf816020860160208601611fdb565b601f01601f19169290920160200192915050565b60008251611de5818460208701611fdb565b9190910192915050565b602081526000611bbf6020830184611da7565b604081526000611e156040830185611da7565b8281036020840152611e278185611da7565b95945050505050565b6020815263ffffffff825116602082015260006020830151611e5a604084018263ffffffff169052565b50604083015160e06060840152611e75610100840182611da7565b90506060840151601f1980858403016080860152611e938383611da7565b925060808601519150808584030160a0860152611eb08383611da7565b925060a08601519150611ece60c08601836001600160a01b03169052565b60c08601519150808584030160e086015250611e278282611d6c565b602081526000825160406020840152611f066060840182611da7565b90506020840151601f19848303016040850152611e278282611da7565b6040805190810167ffffffffffffffff81118282101715611f4657611f466120ab565b60405290565b60405160e0810167ffffffffffffffff81118282101715611f4657611f466120ab565b604051601f8201601f1916810167ffffffffffffffff81118282101715611f9857611f986120ab565b604052919050565b600067ffffffffffffffff821115611fba57611fba6120ab565b5060051b60200190565b600082821015611fd657611fd661207f565b500390565b60005b83811015611ff6578181015183820152602001611fde565b83811115612005576000848401525b50505050565b600181811c9082168061201f57607f821691505b6020821081141561121157634e487b7160e01b600052602260045260246000fd5b60006000198214156120545761205461207f565b5060010190565b600063ffffffff808316818114156120755761207561207f565b6001019392505050565b634e487b7160e01b600052601160045260246000fd5b634e487b7160e01b600052603260045260246000fd5b634e487b7160e01b600052604160045260246000fd5b6001600160a01b03811681146109f857600080fd5b80151581146109f857600080fdfea26469706673582212207f1184d63b545c945073ac98ea9a19f2509ff62704404ca8c3b16137ffcfe30464736f6c63430008060033608060405234801561001057600080fd5b50610668806100206000396000f3fe608060405234801561001057600080fd5b50600436106100365760003560e01c8063841b9d971461003b578063c16e50ef14610064575b600080fd5b61004e6100493660046104c8565b610087565b60405161005b919061057a565b60405180910390f35b6100776100723660046104c8565b61015c565b604051901515815260200161005b565b6060818160005b82518110156101545760008382815181106100ab576100ab610606565b0160209081015160f81c91508110610141578060ff16605c14806100d257508060ff166022145b1561011c5760405161010a9084907f5c0000000000000000000000000000000000000000000000000000000000000090602001610519565b60405160208183030381529060405292505b828160405160200161012f929190610548565b60405160208183030381529060405292505b508061014c816105dd565b91505061008e565b509392505050565b6000805b825181101561044957600083828151811061017d5761017d610606565b01602001516001600160f81b03191690507f300000000000000000000000000000000000000000000000000000000000000081108015906101e857507f39000000000000000000000000000000000000000000000000000000000000006001600160f81b0319821611155b8061025257507f41000000000000000000000000000000000000000000000000000000000000006001600160f81b031982161080159061025257507f5a000000000000000000000000000000000000000000000000000000000000006001600160f81b0319821611155b806102bc57507f61000000000000000000000000000000000000000000000000000000000000006001600160f81b03198216108015906102bc57507f7a000000000000000000000000000000000000000000000000000000000000006001600160f81b0319821611155b806102f057507f20000000000000000000000000000000000000000000000000000000000000006001600160f81b03198216145b8061032457507f23000000000000000000000000000000000000000000000000000000000000006001600160f81b03198216145b8061035857507f28000000000000000000000000000000000000000000000000000000000000006001600160f81b03198216145b8061038c57507f29000000000000000000000000000000000000000000000000000000000000006001600160f81b03198216145b806103c057507f2c000000000000000000000000000000000000000000000000000000000000006001600160f81b03198216145b806103f457507f2d000000000000000000000000000000000000000000000000000000000000006001600160f81b03198216145b8061042857507f2e000000000000000000000000000000000000000000000000000000000000006001600160f81b03198216145b610436575060009392505050565b5080610441816105dd565b915050610160565b50600192915050565b600067ffffffffffffffff8084111561046d5761046d61061c565b604051601f8501601f19908116603f011681019082821181831017156104955761049561061c565b816040528093508581528686860111156104ae57600080fd5b858560208301376000602087830101525050509392505050565b6000602082840312156104da57600080fd5b813567ffffffffffffffff8111156104f157600080fd5b8201601f8101841361050257600080fd5b61051184823560208401610452565b949350505050565b6000835161052b8184602088016105ad565b6001600160f81b0319939093169190920190815260010192915050565b6000835161055a8184602088016105ad565b60f89390931b6001600160f81b0319169190920190815260010192915050565b60208152600082518060208401526105998160408501602087016105ad565b601f01601f19169190910160400192915050565b60005b838110156105c85781810151838201526020016105b0565b838111156105d7576000848401525b50505050565b60006000198214156105ff57634e487b7160e01b600052601160045260246000fd5b5060010190565b634e487b7160e01b600052603260045260246000fd5b634e487b7160e01b600052604160045260246000fdfea26469706673582212209a8c356ad359986aaf9ee97d64154bbdf3e632fd1450b0f4a659894b7768091064736f6c63430008060033608060405234801561001057600080fd5b506107ef806100206000396000f3fe608060405234801561001057600080fd5b506004361061002b5760003560e01c8063c25ddce014610030575b600080fd5b61004361003e366004610447565b610059565b60405161005091906105e3565b60405180910390f35b60608060008060038551600261006f919061067f565b610079919061063c565b9050600091505b8061ffff168261ffff1610156102b157600061009d60028461063c565b6100a890600361067f565b90506000806100b860028661071e565b61ffff1661011b57878361ffff16815181106100d6576100d661078d565b016020015160f81c91506010886100ee856001610616565b61ffff16815181106101025761010261078d565b0160200151610114919060f81c61073f565b905061017c565b87610127846002610616565b61ffff168151811061013b5761013b61078d565b016020015160f81c9150601088610153856001610616565b61ffff16815181106101675761016761078d565b0160200151610179919060f81c61065d565b90505b60ff81166101e95760418260ff161015801561019c5750605a8260ff1611155b806101ba575060618260ff16101580156101ba5750607a8260ff1611155b156101e45785826040516020016101d2929190610599565b60405160208183030381529060405295505b61029b565b60006101008360ff168360ff16610100610203919061067f565b61020d9190610616565b61021791906106a9565b90506104008161ffff1610610266578661023f610236610400846106a9565b61ffff166102ba565b6040516020016102509291906104f8565b6040516020818303038152906040529650610299565b86610276610236836104006106a9565b604051602001610287929190610533565b60405160208183030381529060405296505b505b50505081806102a9906106fc565b925050610080565b50909392505050565b606060006102c783610364565b600101905060008167ffffffffffffffff8111156102e7576102e76107a3565b6040519080825280601f01601f191660200182016040528015610311576020820181803683370190505b5090508181016020015b600019017f3031323334353637383961626364656600000000000000000000000000000000600a86061a8153600a85049450846103575761035c565b61031b565b509392505050565b6000807a184f03e93ff9f4daa797ed6e38ed64bf6a1f01000000000000000083106103ad577a184f03e93ff9f4daa797ed6e38ed64bf6a1f010000000000000000830492506040015b6d04ee2d6d415b85acef810000000083106103d9576d04ee2d6d415b85acef8100000000830492506020015b662386f26fc1000083106103f757662386f26fc10000830492506010015b6305f5e100831061040f576305f5e100830492506008015b612710831061042357612710830492506004015b60648310610435576064830492506002015b600a8310610441576001015b92915050565b60006020828403121561045957600080fd5b813567ffffffffffffffff8082111561047157600080fd5b818401915084601f83011261048557600080fd5b813581811115610497576104976107a3565b604051601f8201601f19908116603f011681019083821181831017156104bf576104bf6107a3565b816040528281528760208487010111156104d857600080fd5b826020860160208301376000928101602001929092525095945050505050565b6000835161050a8184602088016106cc565b83519083019061051e8183602088016106cc565b600160fd1b9101908152600101949350505050565b600083516105458184602088016106cc565b7f2d00000000000000000000000000000000000000000000000000000000000000908301908152835161057f8160018401602088016106cc565b600160fd1b60019290910191820152600201949350505050565b600083516105ab8184602088016106cc565b60f89390931b7fff00000000000000000000000000000000000000000000000000000000000000169190920190815260010192915050565b60208152600082518060208401526106028160408501602087016106cc565b601f01601f19169190910160400192915050565b600061ffff80831681851680830382111561063357610633610761565b01949350505050565b600061ffff8084168061065157610651610777565b92169190910492915050565b600060ff83168061067057610670610777565b8060ff84160491505092915050565b600061ffff808316818516818304811182151516156106a0576106a0610761565b02949350505050565b600061ffff838116908316818110156106c4576106c4610761565b039392505050565b60005b838110156106e75781810151838201526020016106cf565b838111156106f6576000848401525b50505050565b600061ffff8083168181141561071457610714610761565b6001019392505050565b600061ffff8084168061073357610733610777565b92169190910692915050565b600060ff83168061075257610752610777565b8060ff84160691505092915050565b634e487b7160e01b600052601160045260246000fd5b634e487b7160e01b600052601260045260246000fd5b634e487b7160e01b600052603260045260246000fd5b634e487b7160e01b600052604160045260246000fdfea264697066735822122095c303d53dde18921d9dca849620fd69293521b08e2ec84524dd3d6735dd8f4c64736f6c63430008060033",
  "linkReferences": {},
  "deployedLinkReferences": {}
}