{
  "_format": "hh-sol-artifact-1",
  "contractName": "SplatterToken",
  "sourceName": "contracts/SplatterToken.sol",
  "abi": [
    {
      "inputs": [
        {
          "internalType": "address",
          "name": "_developer",
          "type": "address"
        },
        {
          "internalType": "contract IProxyRegistry",
          "name": "_proxyRegistry",
          "type": "address"
        }
      ],
      "stateMutability": "nonpayable",
      "type": "constructor"
    },
    {
      "inputs": [],
      "name": "ApprovalCallerNotOwnerNorApproved",
      "type": "error"
    },
    {
      "inputs": [],
      "name": "ApprovalQueryForNonexistentToken",
      "type": "error"
    },
    {
      "inputs": [],
      "name": "BalanceQueryForZeroAddress",
      "type": "error"
    },
    {
      "inputs": [],
      "name": "MintERC2309QuantityExceedsLimit",
      "type": "error"
    },
    {
      "inputs": [],
      "name": "MintToZeroAddress",
      "type": "error"
    },
    {
      "inputs": [],
      "name": "MintZeroQuantity",
      "type": "error"
    },
    {
      "inputs": [],
      "name": "NotCompatibleWithSpotMints",
      "type": "error"
    },
    {
      "inputs": [],
      "name": "OwnerQueryForNonexistentToken",
      "type": "error"
    },
    {
      "inputs": [],
      "name": "OwnershipNotInitializedForExtraData",
      "type": "error"
    },
    {
      "inputs": [],
      "name": "SequentialMintExceedsLimit",
      "type": "error"
    },
    {
      "inputs": [],
      "name": "SequentialUpToTooSmall",
      "type": "error"
    },
    {
      "inputs": [],
      "name": "SpotMintTokenIdTooSmall",
      "type": "error"
    },
    {
      "inputs": [],
      "name": "TokenAlreadyExists",
      "type": "error"
    },
    {
      "inputs": [],
      "name": "TransferCallerNotOwnerNorApproved",
      "type": "error"
    },
    {
      "inputs": [],
      "name": "TransferFromIncorrectOwner",
      "type": "error"
    },
    {
      "inputs": [],
      "name": "TransferToNonERC721ReceiverImplementer",
      "type": "error"
    },
    {
      "inputs": [],
      "name": "TransferToZeroAddress",
      "type": "error"
    },
    {
      "inputs": [],
      "name": "URIQueryForNonexistentToken",
      "type": "error"
    },
    {
      "anonymous": false,
      "inputs": [
        {
          "indexed": true,
          "internalType": "address",
          "name": "owner",
          "type": "address"
        },
        {
          "indexed": true,
          "internalType": "address",
          "name": "approved",
          "type": "address"
        },
        {
          "indexed": true,
          "internalType": "uint256",
          "name": "tokenId",
          "type": "uint256"
        }
      ],
      "name": "Approval",
      "type": "event"
    },
    {
      "anonymous": false,
      "inputs": [
        {
          "indexed": true,
          "internalType": "address",
          "name": "owner",
          "type": "address"
        },
        {
          "indexed": true,
          "internalType": "address",
          "name": "operator",
          "type": "address"
        },
        {
          "indexed": false,
          "internalType": "bool",
          "name": "approved",
          "type": "bool"
        }
      ],
      "name": "ApprovalForAll",
      "type": "event"
    },
    {
      "anonymous": false,
      "inputs": [
        {
          "indexed": true,
          "internalType": "uint256",
          "name": "fromTokenId",
          "type": "uint256"
        },
        {
          "indexed": false,
          "internalType": "uint256",
          "name": "toTokenId",
          "type": "uint256"
        },
        {
          "indexed": true,
          "internalType": "address",
          "name": "from",
          "type": "address"
        },
        {
          "indexed": true,
          "internalType": "address",
          "name": "to",
          "type": "address"
        }
      ],
      "name": "ConsecutiveTransfer",
      "type": "event"
    },
    {
      "anonymous": false,
      "inputs": [
        {
          "indexed": true,
          "internalType": "address",
          "name": "previousOwner",
          "type": "address"
        },
        {
          "indexed": true,
          "internalType": "address",
          "name": "newOwner",
          "type": "address"
        }
      ],
      "name": "OwnershipTransferred",
      "type": "event"
    },
    {
      "anonymous": false,
      "inputs": [
        {
          "indexed": true,
          "internalType": "address",
          "name": "from",
          "type": "address"
        },
        {
          "indexed": true,
          "internalType": "address",
          "name": "to",
          "type": "address"
        },
        {
          "indexed": true,
          "internalType": "uint256",
          "name": "tokenId",
          "type": "uint256"
        }
      ],
      "name": "Transfer",
      "type": "event"
    },
    {
      "inputs": [
        {
          "internalType": "address",
          "name": "to",
          "type": "address"
        },
        {
          "internalType": "uint256",
          "name": "tokenId",
          "type": "uint256"
        }
      ],
      "name": "approve",
      "outputs": [],
      "stateMutability": "payable",
      "type": "function"
    },
    {
      "inputs": [
        {
          "internalType": "address",
          "name": "owner",
          "type": "address"
        }
      ],
      "name": "balanceOf",
      "outputs": [
        {
          "internalType": "uint256",
          "name": "",
          "type": "uint256"
        }
      ],
      "stateMutability": "view",
      "type": "function"
    },
    {
      "inputs": [],
      "name": "description",
      "outputs": [
        {
          "internalType": "string",
          "name": "",
          "type": "string"
        }
      ],
      "stateMutability": "view",
      "type": "function"
    },
    {
      "inputs": [],
      "name": "developer",
      "outputs": [
        {
          "internalType": "address",
          "name": "",
          "type": "address"
        }
      ],
      "stateMutability": "view",
      "type": "function"
    },
    {
      "inputs": [
        {
          "internalType": "string",
          "name": "_svgPart",
          "type": "string"
        },
        {
          "internalType": "uint256",
          "name": "_style",
          "type": "uint256"
        },
        {
          "internalType": "string",
          "name": "_tag",
          "type": "string"
        }
      ],
      "name": "generateSVG",
      "outputs": [
        {
          "internalType": "string",
          "name": "",
          "type": "string"
        }
      ],
      "stateMutability": "pure",
      "type": "function"
    },
    {
      "inputs": [
        {
          "internalType": "uint256",
          "name": "tokenId",
          "type": "uint256"
        }
      ],
      "name": "getApproved",
      "outputs": [
        {
          "internalType": "address",
          "name": "",
          "type": "address"
        }
      ],
      "stateMutability": "view",
      "type": "function"
    },
    {
      "inputs": [],
      "name": "getCurrentToken",
      "outputs": [
        {
          "internalType": "uint256",
          "name": "",
          "type": "uint256"
        }
      ],
      "stateMutability": "view",
      "type": "function"
    },
    {
      "inputs": [
        {
          "internalType": "address",
          "name": "owner",
          "type": "address"
        },
        {
          "internalType": "address",
          "name": "operator",
          "type": "address"
        }
      ],
      "name": "isApprovedForAll",
      "outputs": [
        {
          "internalType": "bool",
          "name": "",
          "type": "bool"
        }
      ],
      "stateMutability": "view",
      "type": "function"
    },
    {
      "inputs": [
        {
          "internalType": "uint256",
          "name": "_affiliate",
          "type": "uint256"
        }
      ],
      "name": "mint",
      "outputs": [],
      "stateMutability": "nonpayable",
      "type": "function"
    },
    {
      "inputs": [],
      "name": "name",
      "outputs": [
        {
          "internalType": "string",
          "name": "",
          "type": "string"
        }
      ],
      "stateMutability": "view",
      "type": "function"
    },
    {
      "inputs": [],
      "name": "owner",
      "outputs": [
        {
          "internalType": "address",
          "name": "",
          "type": "address"
        }
      ],
      "stateMutability": "view",
      "type": "function"
    },
    {
      "inputs": [
        {
          "internalType": "uint256",
          "name": "tokenId",
          "type": "uint256"
        }
      ],
      "name": "ownerOf",
      "outputs": [
        {
          "internalType": "address",
          "name": "",
          "type": "address"
        }
      ],
      "stateMutability": "view",
      "type": "function"
    },
    {
      "inputs": [],
      "name": "proxyRegistry",
      "outputs": [
        {
          "internalType": "contract IProxyRegistry",
          "name": "",
          "type": "address"
        }
      ],
      "stateMutability": "view",
      "type": "function"
    },
    {
      "inputs": [],
      "name": "renounceOwnership",
      "outputs": [],
      "stateMutability": "nonpayable",
      "type": "function"
    },
    {
      "inputs": [
        {
          "internalType": "address",
          "name": "from",
          "type": "address"
        },
        {
          "internalType": "address",
          "name": "to",
          "type": "address"
        },
        {
          "internalType": "uint256",
          "name": "tokenId",
          "type": "uint256"
        }
      ],
      "name": "safeTransferFrom",
      "outputs": [],
      "stateMutability": "payable",
      "type": "function"
    },
    {
      "inputs": [
        {
          "internalType": "address",
          "name": "from",
          "type": "address"
        },
        {
          "internalType": "address",
          "name": "to",
          "type": "address"
        },
        {
          "internalType": "uint256",
          "name": "tokenId",
          "type": "uint256"
        },
        {
          "internalType": "bytes",
          "name": "_data",
          "type": "bytes"
        }
      ],
      "name": "safeTransferFrom",
      "outputs": [],
      "stateMutability": "payable",
      "type": "function"
    },
    {
      "inputs": [
        {
          "internalType": "address",
          "name": "operator",
          "type": "address"
        },
        {
          "internalType": "bool",
          "name": "approved",
          "type": "bool"
        }
      ],
      "name": "setApprovalForAll",
      "outputs": [],
      "stateMutability": "nonpayable",
      "type": "function"
    },
    {
      "inputs": [
        {
          "internalType": "string",
          "name": "_description",
          "type": "string"
        }
      ],
      "name": "setDescription",
      "outputs": [],
      "stateMutability": "nonpayable",
      "type": "function"
    },
    {
      "inputs": [
        {
          "internalType": "bytes4",
          "name": "interfaceId",
          "type": "bytes4"
        }
      ],
      "name": "supportsInterface",
      "outputs": [
        {
          "internalType": "bool",
          "name": "",
          "type": "bool"
        }
      ],
      "stateMutability": "view",
      "type": "function"
    },
    {
      "inputs": [],
      "name": "symbol",
      "outputs": [
        {
          "internalType": "string",
          "name": "",
          "type": "string"
        }
      ],
      "stateMutability": "view",
      "type": "function"
    },
    {
      "inputs": [
        {
          "internalType": "uint256",
          "name": "_tokenId",
          "type": "uint256"
        }
      ],
      "name": "tokenURI",
      "outputs": [
        {
          "internalType": "string",
          "name": "",
          "type": "string"
        }
      ],
      "stateMutability": "view",
      "type": "function"
    },
    {
      "inputs": [],
      "name": "tokensPerAsset",
      "outputs": [
        {
          "internalType": "uint256",
          "name": "",
          "type": "uint256"
        }
      ],
      "stateMutability": "pure",
      "type": "function"
    },
    {
      "inputs": [],
      "name": "totalSupply",
      "outputs": [
        {
          "internalType": "uint256",
          "name": "result",
          "type": "uint256"
        }
      ],
      "stateMutability": "view",
      "type": "function"
    },
    {
      "inputs": [
        {
          "internalType": "address",
          "name": "from",
          "type": "address"
        },
        {
          "internalType": "address",
          "name": "to",
          "type": "address"
        },
        {
          "internalType": "uint256",
          "name": "tokenId",
          "type": "uint256"
        }
      ],
      "name": "transferFrom",
      "outputs": [],
      "stateMutability": "payable",
      "type": "function"
    },
    {
      "inputs": [
        {
          "internalType": "address",
          "name": "newOwner",
          "type": "address"
        }
      ],
      "name": "transferOwnership",
      "outputs": [],
      "stateMutability": "nonpayable",
      "type": "function"
    }
  ],
  "bytecode": "0x61018060405260aa60a0818152906200270860c03980516200002a91600a9160209091019062000187565b503480156200003857600080fd5b50604051620027b2380380620027b28339810160408190526200005b916200022d565b6040518060400160405280601d81526020017f4b616d6f6e2053796d626f6c732062792048616b6b6f204461696f646f0000008152506040518060400160405280600581526020016425a0a6a7a760d91b815250620000c9620000c36200013360201b60201c565b62000137565b8151620000de90600390602085019062000187565b508051620000f490600490602084019062000187565b5060006001555050600b80546001600160a01b0319166001600160a01b03939093169290921790915560601b6001600160601b031916608052620002c2565b3390565b600080546001600160a01b038381166001600160a01b0319831681178455604051919092169283917f8be0079c531659141344cd1fd0a4f28419497f9722a3daafe3b4186f6b6457e09190a35050565b82805462000195906200026c565b90600052602060002090601f016020900481019282620001b9576000855562000204565b82601f10620001d457805160ff191683800117855562000204565b8280016001018555821562000204579182015b8281111562000204578251825591602001919060010190620001e7565b506200021292915062000216565b5090565b5b8082111562000212576000815560010162000217565b600080604083850312156200024157600080fd5b82516200024e81620002a9565b60208401519092506200026181620002a9565b809150509250929050565b600181811c908216806200028157607f821691505b60208210811415620002a357634e487b7160e01b600052602260045260246000fd5b50919050565b6001600160a01b0381168114620002bf57600080fd5b50565b60805160601c612420620002e8600039600081816103ce015261108e01526124206000f3fe6080604052600436106101955760003560e01c80637284e416116100e1578063b50cbd9f1161008a578063ca4b208b11610064578063ca4b208b14610423578063e985e9c514610443578063ef2d174614610463578063f2fde38b1461047857600080fd5b8063b50cbd9f146103bc578063b88d4fde146103f0578063c87b56dd1461040357600080fd5b806395d89b41116100bb57806395d89b4114610367578063a0712d681461037c578063a22cb4651461039c57600080fd5b80637284e416146103145780638da5cb5b1461032957806390c3f38f1461034757600080fd5b806323b872dd116101435780636352211e1161011d5780636352211e146102bf57806370a08231146102df578063715018a6146102ff57600080fd5b806323b872dd1461028557806342842e0e146102985780634b00371f146102ab57600080fd5b8063081812fc11610174578063081812fc14610215578063095ea7b31461024d57806318160ddd1461026257600080fd5b80626e59e91461019a57806301ffc9a7146101d057806306fdde0314610200575b600080fd5b3480156101a657600080fd5b506101ba6101b5366004611bb0565b610498565b6040516101c791906121d7565b60405180910390f35b3480156101dc57600080fd5b506101f06101eb366004611b41565b61092b565b60405190151581526020016101c7565b34801561020c57600080fd5b506101ba6109c8565b34801561022157600080fd5b50610235610230366004611c1d565b610a5a565b6040516001600160a01b0390911681526020016101c7565b61026061025b366004611b15565b610aae565b005b34801561026e57600080fd5b50600254600154035b6040519081526020016101c7565b610260610293366004611a21565b610abe565b6102606102a6366004611a21565b610c65565b3480156102b757600080fd5b50600a610277565b3480156102cb57600080fd5b506102356102da366004611c1d565b610c85565b3480156102eb57600080fd5b506102776102fa3660046119ae565b610c90565b34801561030b57600080fd5b50610260610cef565b34801561032057600080fd5b506101ba610d03565b34801561033557600080fd5b506000546001600160a01b0316610235565b34801561035357600080fd5b50610260610362366004611b7b565b610d91565b34801561037357600080fd5b506101ba610dac565b34801561038857600080fd5b50610260610397366004611c1d565b610dbb565b3480156103a857600080fd5b506102606103b7366004611ae2565b610e6d565b3480156103c857600080fd5b506102357f000000000000000000000000000000000000000000000000000000000000000081565b6102606103fe366004611a62565b610ed9565b34801561040f57600080fd5b506101ba61041e366004611c1d565b610f1a565b34801561042f57600080fd5b50600b54610235906001600160a01b031681565b34801561044f57600080fd5b506101f061045e3660046119e8565b61104f565b34801561046f57600080fd5b50610277611150565b34801561048457600080fd5b506102606104933660046119ae565b611160565b6060600060405180610140016040528060405180604001604052806005815260200164626c61636b60d81b815250815260200160405180604001604052806005815260200164776869746560d81b8152508152602001604051806040016040528060078152602001662345464538414360c81b81525081526020016040518060400160405280600781526020017f234546453541460000000000000000000000000000000000000000000000000081525081526020016040518060400160405280600781526020017f233542333331390000000000000000000000000000000000000000000000000081525081526020016040518060400160405280600781526020017f234246324531360000000000000000000000000000000000000000000000000081525081526020016040518060400160405280600781526020017f233039363341440000000000000000000000000000000000000000000000000081525081526020016040518060400160405280600781526020017f2333443539343300000000000000000000000000000000000000000000000000815250815260200160405180604001604052806005815260200164626c61636b60d81b81525081526020016040518060400160405280600a81526020016975726c2823676f6c642960b01b8152508152509050600060405180610140016040528060405180604001604052806005815260200164776869746560d81b815250815260200160405180604001604052806005815260200164626c61636b60d81b81525081526020016040518060400160405280600781526020017f233044393541300000000000000000000000000000000000000000000000000081525081526020016040518060400160405280600781526020017f23353834353642000000000000000000000000000000000000000000000000008152508152602001604051806040016040528060078152602001662345464538414360c81b8152508152602001604051806040016040528060078152602001662345464538414360c81b81525081526020016040518060400160405280600781526020016611a3232323232360c91b81525081526020016040518060400160405280600781526020016611a3232323232360c91b81525081526020016040518060400160405280600a81526020016975726c2823676f6c642960b01b815250815260200160405180604001604052806005815260200164626c61636b60d81b8152508152509050600084604051602001610841919061209a565b60408051601f1981840301815291905290506000610860600a886122ca565b905060006040518060800160405280604981526020016123a2604991398960405160200161088f929190611eca565b6040516020818303038152906040529050600882106108cb57806040516020016108b99190611c7e565b60405160208183030381529060405290505b808583600a81106108de576108de61230a565b6020020151848685600a81106108f6576108f661230a565b602002015160405160200161090e9493929190611da3565b60408051808303601f190181529190529998505050505050505050565b60007f01ffc9a7000000000000000000000000000000000000000000000000000000006001600160e01b03198316148061098e57507f80ac58cd000000000000000000000000000000000000000000000000000000006001600160e01b03198316145b806109c257507f5b5e139f000000000000000000000000000000000000000000000000000000006001600160e01b03198316145b92915050565b6060600380546109d79061228f565b80601f0160208091040260200160405190810160405280929190818152602001828054610a039061228f565b8015610a505780601f10610a2557610100808354040283529160200191610a50565b820191906000526020600020905b815481529060010190602001808311610a3357829003601f168201915b5050505050905090565b6000610a65826111f0565b610a9257610a927fcf4700e400000000000000000000000000000000000000000000000000000000611233565b506000908152600760205260409020546001600160a01b031690565b610aba8282600161123d565b5050565b6000610ac982611306565b6001600160a01b039485169490915081168414610b0957610b097fa114810000000000000000000000000000000000000000000000000000000000611233565b60008281526007602052604090208054338082146001600160a01b03881690911417610b6657610b39863361104f565b610b6657610b667f59c896be00000000000000000000000000000000000000000000000000000000611233565b8015610b7157600082555b6001600160a01b038681166000908152600660205260408082208054600019019055918716808252919020805460010190554260a01b17600160e11b17600085815260056020526040902055600160e11b8316610bfc5760018401600081815260056020526040902054610bfa576001548114610bfa5760008181526005602052604090208490555b505b6001600160a01b0385168481887fddf252ad1be2c89b69c2b068fc378daa952ba7f163c4a11628f55a4df523b3ef600080a480610c5c57610c5c7fea553b3400000000000000000000000000000000000000000000000000000000611233565b50505050505050565b610c8083838360405180602001604052806000815250610ed9565b505050565b60006109c282611306565b60006001600160a01b038216610cc957610cc97f8f4eb60400000000000000000000000000000000000000000000000000000000611233565b506001600160a01b031660009081526006602052604090205467ffffffffffffffff1690565b610cf7611397565b610d0160006113f1565b565b600a8054610d109061228f565b80601f0160208091040260200160405190810160405280929190818152602001828054610d3c9061228f565b8015610d895780601f10610d5e57610100808354040283529160200191610d89565b820191906000526020600020905b815481529060010190602001808311610d6c57829003601f168201915b505050505081565b610d99611397565b8051610aba90600a90602084019061187f565b6060600480546109d79061228f565b6000610dc660015490565b9050610ddd33610dd86001600a612235565b61144e565b600082118015610df15750610df182611538565b8015610e0e575033610e0283610c85565b6001600160a01b031614155b15610e2657610aba610e1f83610c85565b600161144e565b6002610e33600a83612202565b610e3d91906122ca565b610e5857600b54610aba906001600160a01b0316600161144e565b610aba610e1f6000546001600160a01b031690565b3360008181526008602090815260408083206001600160a01b03871680855290835292819020805460ff191686151590811790915590519081529192917f17307eab39ab6107e8899845ad3d59bd9653f200f220920489ca2b5937696c31910160405180910390a35050565b610ee4848484610abe565b6001600160a01b0383163b15610f1457610f008484848461154c565b610f1457610f146368d2bf6b60e11b611233565b50505050565b6060610f25826111f0565b610f9c5760405162461bcd60e51b815260206004820152602660248201527f4b616d6f6e546f6b656e2e746f6b656e5552493a206e6f6e6578697374656e7460448201527f20746f6b656e000000000000000000000000000000000000000000000000000060648201526084015b60405180910390fd5b6040805180820190915260038152620f0f0f60eb1b60208201526000610fe882610fc7600a876122ca565b604051806040016040528060038152602001620f0f0f60eb1b815250610498565b9050611027600a610ff88661163b565b611001846116e2565b60405160200161101393929190611ef9565b6040516020818303038152906040526116e2565b60405160200161103791906120df565b60405160208183030381529060405292505050919050565b6040517fc45527910000000000000000000000000000000000000000000000000000000081526001600160a01b038381166004830152600091818416917f0000000000000000000000000000000000000000000000000000000000000000169063c45527919060240160206040518083038186803b1580156110d057600080fd5b505afa1580156110e4573d6000803e3d6000fd5b505050506040513d601f19601f8201168201806040525081019061110891906119cb565b6001600160a01b0316141561111f575060016109c2565b6001600160a01b0380841660009081526008602090815260408083209386168352929052205460ff165b9392505050565b600061115b60015490565b905090565b611168611397565b6001600160a01b0381166111e45760405162461bcd60e51b815260206004820152602660248201527f4f776e61626c653a206e6577206f776e657220697320746865207a65726f206160448201527f64647265737300000000000000000000000000000000000000000000000000006064820152608401610f93565b6111ed816113f1565b50565b600060015482101561122e5760005b50600082815260056020526040902054806112245761121d83612278565b92506111ff565b600160e01b161590505b919050565b8060005260046000fd5b600061124883610c85565b90508180156112605750336001600160a01b03821614155b1561129c5761126f813361104f565b61129c5761129c7fcfb3b94200000000000000000000000000000000000000000000000000000000611233565b600083815260076020526040808220805473ffffffffffffffffffffffffffffffffffffffff19166001600160a01b0388811691821790925591518693918516917f8c5be1e5ebec7d5bd14f71427d1e84f3dd0314c0f7b2291e5b200ac8c7c3b92591a450505050565b6000818152600560205260409020548061137757600154821061133357611333636f96cda160e11b611233565b5b50600019016000818152600560205260409020548061135257611334565b600160e01b811661136257919050565b611372636f96cda160e11b611233565b611334565b600160e01b811661138757919050565b61122e636f96cda160e11b611233565b6000546001600160a01b03163314610d015760405162461bcd60e51b815260206004820181905260248201527f4f776e61626c653a2063616c6c6572206973206e6f7420746865206f776e65726044820152606401610f93565b600080546001600160a01b0383811673ffffffffffffffffffffffffffffffffffffffff19831681178455604051919092169283917f8be0079c531659141344cd1fd0a4f28419497f9722a3daafe3b4186f6b6457e09190a35050565b6001548161147f5761147f7fb562e8dd00000000000000000000000000000000000000000000000000000000611233565b60008181526005602090815260408083206001600160a01b0387164260a01b6001881460e11b17811790915580845260069092529091208054680100000000000000018502019055806114f5576114f57f2e07630000000000000000000000000000000000000000000000000000000000611233565b818301825b808360007fddf252ad1be2c89b69c2b068fc378daa952ba7f163c4a11628f55a4df523b3ef600080a4600101808214156114fa575060015550505050565b6000611545600a836122ca565b1592915050565b604051630a85bd0160e11b81526000906001600160a01b0385169063150b7a029061158190339089908890889060040161219b565b602060405180830381600087803b15801561159b57600080fd5b505af19250505080156115cb575060408051601f3d908101601f191682019092526115c891810190611b5e565b60015b61161d573d8080156115f9576040519150601f19603f3d011682016040523d82523d6000602084013e6115fe565b606091505b508051611615576116156368d2bf6b60e11b611233565b805181602001fd5b6001600160e01b031916630a85bd0160e11b1490505b949350505050565b606061164682611538565b611685576040518060400160405280600281526020017f4e6f0000000000000000000000000000000000000000000000000000000000008152506116bc565b6040518060400160405280600381526020017f59657300000000000000000000000000000000000000000000000000000000008152505b6040516020016116cc9190612124565b6040516020818303038152906040529050919050565b606081516000141561170257505060408051602081019091526000815290565b6000604051806060016040528060408152602001612362604091399050600060038451600261173191906121ea565b61173b9190612202565b611746906004612216565b905060006117558260206121ea565b67ffffffffffffffff81111561176d5761176d612320565b6040519080825280601f01601f191660200182016040528015611797576020820181803683370190505b509050818152600183018586518101602084015b81831015611803576003830192508251603f8160121c168501518253600182019150603f81600c1c168501518253600182019150603f8160061c168501518253600182019150603f81168501518253506001016117ab565b60038951066001811461181d576002811461184957611871565b7f3d3d000000000000000000000000000000000000000000000000000000000000600119830152611871565b7f3d000000000000000000000000000000000000000000000000000000000000006000198301525b509398975050505050505050565b82805461188b9061228f565b90600052602060002090601f0160209004810192826118ad57600085556118f3565b82601f106118c657805160ff19168380011785556118f3565b828001600101855582156118f3579182015b828111156118f35782518255916020019190600101906118d8565b506118ff929150611903565b5090565b5b808211156118ff5760008155600101611904565b600067ffffffffffffffff8084111561193357611933612320565b604051601f8501601f19908116603f0116810190828211818310171561195b5761195b612320565b8160405280935085815286868601111561197457600080fd5b858560208301376000602087830101525050509392505050565b600082601f83011261199f57600080fd5b61114983833560208501611918565b6000602082840312156119c057600080fd5b813561114981612336565b6000602082840312156119dd57600080fd5b815161114981612336565b600080604083850312156119fb57600080fd5b8235611a0681612336565b91506020830135611a1681612336565b809150509250929050565b600080600060608486031215611a3657600080fd5b8335611a4181612336565b92506020840135611a5181612336565b929592945050506040919091013590565b60008060008060808587031215611a7857600080fd5b8435611a8381612336565b93506020850135611a9381612336565b925060408501359150606085013567ffffffffffffffff811115611ab657600080fd5b8501601f81018713611ac757600080fd5b611ad687823560208401611918565b91505092959194509250565b60008060408385031215611af557600080fd5b8235611b0081612336565b915060208301358015158114611a1657600080fd5b60008060408385031215611b2857600080fd5b8235611b3381612336565b946020939093013593505050565b600060208284031215611b5357600080fd5b81356111498161234b565b600060208284031215611b7057600080fd5b81516111498161234b565b600060208284031215611b8d57600080fd5b813567ffffffffffffffff811115611ba457600080fd5b6116338482850161198e565b600080600060608486031215611bc557600080fd5b833567ffffffffffffffff80821115611bdd57600080fd5b611be98783880161198e565b9450602086013593506040860135915080821115611c0657600080fd5b50611c138682870161198e565b9150509250925092565b600060208284031215611c2f57600080fd5b5035919050565b60008151808452611c4e81602086016020860161224c565b601f01601f19169290920160200192915050565b60008151611c7481856020860161224c565b9290920192915050565b60008251611c9081846020870161224c565b7f3c6c696e6561724772616469656e742069643d22676f6c64222078313d22302e9201918252507f32222078323d2230222079313d2230222079323d2231223e0a20203c73746f7060208201527f206f66667365743d223025222073746f702d636f6c6f723d222343434142303960408201527f222f3e0a203c73746f70206f66667365743d22353025222073746f702d636f6c60608201527f6f723d222346464631383622202f3e0a203c73746f70206f66667365743d223160808201527f303025222073746f702d636f6c6f723d2223434341423039222f3e0a3c2f6c6960a08201527f6e6561724772616469656e743e0a00000000000000000000000000000000000060c082015260ce01919050565b60008551611db5818460208a0161224c565b80830190507f3c2f646566733e0a203c7265637420783d22302220793d22302220776964746881527f3d223130302522206865696768743d2231303025222066696c6c3d220000000060208201528551611e1681603c840160208a0161224c565b7f22202f3e0a203c75736520687265663d22000000000000000000000000000000603c92909101918201528451611e5481604d84016020890161224c565b7f222066696c6c3d22000000000000000000000000000000000000000000000000604d92909101918201528351611e9281605584016020880161224c565b7f22202f3e0a3c2f7376673e0a0000000000000000000000000000000000000000605592909101918201526061019695505050505050565b60008351611edc81846020880161224c565b835190830190611ef081836020880161224c565b01949350505050565b7f7b226e616d65223a2200000000000000000000000000000000000000000000008152620f0f0f60eb1b60098201527f222c226465736372697074696f6e223a22000000000000000000000000000000600c8201526000601d6000865481600182811c915080831680611f6d57607f831692505b6020808410821415611f8d57634e487b7160e01b86526022600452602486fd5b818015611fa15760018114611fb657611fe7565b60ff1986168a890152848a0188019650611fe7565b60008d81526020902060005b86811015611fdd5781548c82018b0152908501908301611fc2565b505087858b010196505b50505050505061208f61208161207b61202c612026857f222c2261747472696275746573223a5b00000000000000000000000000000000815260100190565b8a611c62565b7f5d2c22696d616765223a22646174613a696d6167652f7376672b786d6c3b626181527f736536342c000000000000000000000000000000000000000000000000000000602082015260250190565b87611c62565b61227d60f01b815260020190565b979650505050505050565b7f23000000000000000000000000000000000000000000000000000000000000008152600082516120d281600185016020870161224c565b9190910160010192915050565b7f646174613a6170706c69636174696f6e2f6a736f6e3b6261736536342c00000081526000825161211781601d85016020870161224c565b91909101601d0192915050565b7f7b2274726169745f74797065223a225072696d617279222c2276616c7565223a81527f220000000000000000000000000000000000000000000000000000000000000060208201526000825161218281602185016020870161224c565b61227d60f01b6021939091019283015250602301919050565b60006001600160a01b038087168352808616602084015250836040830152608060608301526121cd6080830184611c36565b9695505050505050565b6020815260006111496020830184611c36565b600082198211156121fd576121fd6122de565b500190565b600082612211576122116122f4565b500490565b6000816000190483118215151615612230576122306122de565b500290565b600082821015612247576122476122de565b500390565b60005b8381101561226757818101518382015260200161224f565b83811115610f145750506000910152565b600081612287576122876122de565b506000190190565b600181811c908216806122a357607f821691505b602082108114156122c457634e487b7160e01b600052602260045260246000fd5b50919050565b6000826122d9576122d96122f4565b500690565b634e487b7160e01b600052601160045260246000fd5b634e487b7160e01b600052601260045260246000fd5b634e487b7160e01b600052603260045260246000fd5b634e487b7160e01b600052604160045260246000fd5b6001600160a01b03811681146111ed57600080fd5b6001600160e01b0319811681146111ed57600080fdfe4142434445464748494a4b4c4d4e4f505152535455565758595a6162636465666768696a6b6c6d6e6f707172737475767778797a303132333435363738392b2f3c7376672076696577426f783d2230203020313032342031303234222020786d6c6e733d22687474703a2f2f7777772e77332e6f72672f323030302f737667223e0a3c646566733e0aa2646970667358221220ca8008a2f832bff82507d7350fd0ed91f1032bce6ea3680550d131a3ee00167164736f6c6343000806003354686973206973206f6e65206f6620656666747320746f2063726561746520284f6e2d436861696e2041737365742053746f7265295b68747470733a2f2f617373657473746f72652e7774665d2e2020416c6c206b616d6f6e20766563746f72732077657265206372656174656420616e6420636f707972696768746564206279202848616b6b6f204461696f646f295b687474703a2f2f68616b6b6f2d6461696f646f2e636f6d5d2e",
  "linkReferences": {},
  "deployedLinkReferences": {}
}