{
  "_format": "hh-sol-artifact-1",
  "contractName": "SVGHelper",
  "sourceName": "contracts/libs/SVGHelper.sol",
  "abi": [
    {
      "inputs": [
        {
          "components": [
            {
              "internalType": "int32",
              "name": "x",
              "type": "int32"
            },
            {
              "internalType": "int32",
              "name": "y",
              "type": "int32"
            },
            {
              "internalType": "bool",
              "name": "c",
              "type": "bool"
            },
            {
              "internalType": "int32",
              "name": "r",
              "type": "int32"
            }
          ],
          "internalType": "struct ISVGHelper.Point[]",
          "name": "points",
          "type": "tuple[]"
        }
      ],
      "name": "PathFromPoints",
      "outputs": [
        {
          "internalType": "bytes",
          "name": "path",
          "type": "bytes"
        }
      ],
      "stateMutability": "pure",
      "type": "function"
    }
  ],
  "bytecode": "0x608060405234801561001057600080fd5b50610af5806100206000396000f3fe608060405234801561001057600080fd5b506004361061002b5760003560e01c8063598be2e114610030575b600080fd5b61004361003e3660046104fc565b610059565b60405161005091906107ef565b60405180910390f35b805160609060005b8181101561035157600084828151811061007d5761007d610a93565b60200260200101519050600085846001868661009991906108c5565b6100a391906109f1565b6100ad9190610a53565b815181106100bd576100bd610a93565b6020026020010151905060006002826000015184600001516100df919061087c565b6100e991906108dd565b90506000600283602001518560200151610103919061087c565b61010d91906108dd565b905084610155576101238263ffffffff16610358565b6101328263ffffffff16610358565b60405160200161014392919061078a565b60405160208183030381529060405296505b8360400151156101ae5786610173856000015163ffffffff16610358565b610186866020015163ffffffff16610358565b6040516020016101989392919061070f565b604051602081830303815290604052965061033a565b600088876101bd8860016108c5565b6101c79190610a53565b815181106101d7576101d7610a93565b6020026020010151905060006002826000015187600001516101f9919061087c565b61020391906108dd565b9050600060028360200151886020015161021d919061087c565b61022791906108dd565b90508961026e610400878a6000015161024091906109a7565b8a6060015161024f9190610918565b61025991906108dd565b610263908861087c565b63ffffffff16610358565b610293610400878b6020015161028491906109a7565b8b6060015161024f9190610918565b6102cc610400868c600001516102a991906109a7565b8c606001516102b89190610918565b6102c291906108dd565b610263908761087c565b6102f1610400868d602001516102e291906109a7565b8d606001516102b89190610918565b6103008763ffffffff16610358565b61030f8763ffffffff16610358565b604051602001610325979695949392919061061f565b60405160208183030381529060405299505050505b50505050808061034990610a38565b915050610061565b5050919050565b6060600061036583610402565b600101905060008167ffffffffffffffff81111561038557610385610aa9565b6040519080825280601f01601f1916602001820160405280156103af576020820181803683370190505b5090508181016020015b600019017f3031323334353637383961626364656600000000000000000000000000000000600a86061a8153600a85049450846103f5576103fa565b6103b9565b509392505050565b6000807a184f03e93ff9f4daa797ed6e38ed64bf6a1f010000000000000000831061044b577a184f03e93ff9f4daa797ed6e38ed64bf6a1f010000000000000000830492506040015b6d04ee2d6d415b85acef81000000008310610477576d04ee2d6d415b85acef8100000000830492506020015b662386f26fc10000831061049557662386f26fc10000830492506010015b6305f5e10083106104ad576305f5e100830492506008015b61271083106104c157612710830492506004015b606483106104d3576064830492506002015b600a83106104df576001015b92915050565b8035600381900b81146104f757600080fd5b919050565b6000602080838503121561050f57600080fd5b823567ffffffffffffffff8082111561052757600080fd5b818501915085601f83011261053b57600080fd5b81358181111561054d5761054d610aa9565b61055b848260051b0161084b565b8181528481019250838501600783901b8501860189101561057b57600080fd5b600094505b828510156105f757608080828b03121561059957600080fd5b6105a1610822565b6105aa836104e5565b81526105b78884016104e5565b8882015260408084013580151581146105cf57600080fd5b9082015260606105e08482016104e5565b908201528552600195909501949386019301610580565b50979650505050505050565b60008151610615818560208601610a08565b9290920192915050565b6000885160206106328285838e01610a08565b7f4300000000000000000000000000000000000000000000000000000000000000918401918252895161066b8160018501848e01610a08565b808301925050600b60fa1b806001840152895161068e8160028601858e01610a08565b6002930192830181905288516106aa8160038601858d01610a08565b6003930192830181905287516106c68160048601858c01610a08565b600493019283015285516106e08160058501848a01610a08565b6106ff6106f9600583860101600b60fa1b815260010190565b87610603565b9c9b505050505050505050505050565b60008451610721818460208901610a08565b7f4c00000000000000000000000000000000000000000000000000000000000000908301908152845161075b816001840160208901610a08565b600b60fa1b60019290910191820152835161077d816002840160208801610a08565b0160020195945050505050565b7f4d000000000000000000000000000000000000000000000000000000000000008152600083516107c2816001850160208801610a08565b600b60fa1b60019184019182015283516107e3816002840160208801610a08565b01600201949350505050565b602081526000825180602084015261080e816040850160208701610a08565b601f01601f19169190910160400192915050565b6040516080810167ffffffffffffffff8111828210171561084557610845610aa9565b60405290565b604051601f8201601f1916810167ffffffffffffffff8111828210171561087457610874610aa9565b604052919050565b60008160030b8360030b6000821282637fffffff038213811516156108a3576108a3610a67565b82637fffffff190382128116156108bc576108bc610a67565b50019392505050565b600082198211156108d8576108d8610a67565b500190565b60008160030b8360030b806108f4576108f4610a7d565b637fffffff1982146000198214161561090f5761090f610a67565b90059392505050565b60008160030b8360030b637fffffff60008213600084138383048511828216161561094557610945610a67565b637fffffff19600085128281168783058712161561096557610965610a67565b6000871292508582058712848416161561098157610981610a67565b8585058712818416161561099757610997610a67565b5050509290910295945050505050565b60008160030b8360030b6000811281637fffffff19018312811516156109cf576109cf610a67565b81637fffffff0183138116156109e7576109e7610a67565b5090039392505050565b600082821015610a0357610a03610a67565b500390565b60005b83811015610a23578181015183820152602001610a0b565b83811115610a32576000848401525b50505050565b6000600019821415610a4c57610a4c610a67565b5060010190565b600082610a6257610a62610a7d565b500690565b634e487b7160e01b600052601160045260246000fd5b634e487b7160e01b600052601260045260246000fd5b634e487b7160e01b600052603260045260246000fd5b634e487b7160e01b600052604160045260246000fdfea2646970667358221220fcedf7877026a56d1ad576f056f770efa932d0cf50fad38271738c983f0c20d164736f6c63430008060033",
  "linkReferences": {},
  "deployedLinkReferences": {}
}