{
  "_format": "hh-sol-artifact-1",
  "contractName": "AssetStoreProvider",
  "sourceName": "contracts/AssetStoreProvider.sol",
  "abi": [
    {
      "inputs": [
        {
          "internalType": "contract IAssetStoreEx",
          "name": "_assetStore",
          "type": "address"
        }
      ],
      "stateMutability": "nonpayable",
      "type": "constructor"
    },
    {
      "anonymous": false,
      "inputs": [
        {
          "indexed": true,
          "internalType": "address",
          "name": "previousOwner",
          "type": "address"
        },
        {
          "indexed": true,
          "internalType": "address",
          "name": "newOwner",
          "type": "address"
        }
      ],
      "name": "OwnershipTransferred",
      "type": "event"
    },
    {
      "anonymous": false,
      "inputs": [
        {
          "indexed": false,
          "internalType": "string",
          "name": "providerKey",
          "type": "string"
        },
        {
          "indexed": false,
          "internalType": "uint256",
          "name": "assetId",
          "type": "uint256"
        },
        {
          "indexed": false,
          "internalType": "address payable",
          "name": "to",
          "type": "address"
        },
        {
          "indexed": false,
          "internalType": "uint256",
          "name": "amount",
          "type": "uint256"
        }
      ],
      "name": "Payout",
      "type": "event"
    },
    {
      "inputs": [],
      "name": "assetStore",
      "outputs": [
        {
          "internalType": "contract IAssetStoreEx",
          "name": "",
          "type": "address"
        }
      ],
      "stateMutability": "view",
      "type": "function"
    },
    {
      "inputs": [
        {
          "internalType": "uint256",
          "name": "_assetId",
          "type": "uint256"
        }
      ],
      "name": "generateSVGPart",
      "outputs": [
        {
          "internalType": "string",
          "name": "svgPart",
          "type": "string"
        },
        {
          "internalType": "string",
          "name": "tag",
          "type": "string"
        }
      ],
      "stateMutability": "view",
      "type": "function"
    },
    {
      "inputs": [
        {
          "internalType": "string",
          "name": "_group",
          "type": "string"
        },
        {
          "internalType": "string",
          "name": "_category",
          "type": "string"
        }
      ],
      "name": "getAssetCountInCategory",
      "outputs": [
        {
          "internalType": "uint32",
          "name": "",
          "type": "uint32"
        }
      ],
      "stateMutability": "view",
      "type": "function"
    },
    {
      "inputs": [
        {
          "internalType": "string",
          "name": "_group",
          "type": "string"
        },
        {
          "internalType": "string",
          "name": "_category",
          "type": "string"
        },
        {
          "internalType": "uint32",
          "name": "_assetIndex",
          "type": "uint32"
        }
      ],
      "name": "getAssetIdInCategory",
      "outputs": [
        {
          "internalType": "uint256",
          "name": "",
          "type": "uint256"
        }
      ],
      "stateMutability": "view",
      "type": "function"
    },
    {
      "inputs": [
        {
          "internalType": "string",
          "name": "_group",
          "type": "string"
        }
      ],
      "name": "getCategoryCount",
      "outputs": [
        {
          "internalType": "uint32",
          "name": "",
          "type": "uint32"
        }
      ],
      "stateMutability": "view",
      "type": "function"
    },
    {
      "inputs": [
        {
          "internalType": "string",
          "name": "_group",
          "type": "string"
        },
        {
          "internalType": "uint32",
          "name": "_categoryIndex",
          "type": "uint32"
        }
      ],
      "name": "getCategoryNameAtIndex",
      "outputs": [
        {
          "internalType": "string",
          "name": "",
          "type": "string"
        }
      ],
      "stateMutability": "view",
      "type": "function"
    },
    {
      "inputs": [],
      "name": "getGroupCount",
      "outputs": [
        {
          "internalType": "uint32",
          "name": "",
          "type": "uint32"
        }
      ],
      "stateMutability": "view",
      "type": "function"
    },
    {
      "inputs": [
        {
          "internalType": "uint32",
          "name": "_groupIndex",
          "type": "uint32"
        }
      ],
      "name": "getGroupNameAtIndex",
      "outputs": [
        {
          "internalType": "string",
          "name": "",
          "type": "string"
        }
      ],
      "stateMutability": "view",
      "type": "function"
    },
    {
      "inputs": [],
      "name": "getOwner",
      "outputs": [
        {
          "internalType": "address",
          "name": "",
          "type": "address"
        }
      ],
      "stateMutability": "view",
      "type": "function"
    },
    {
      "inputs": [],
      "name": "getProviderInfo",
      "outputs": [
        {
          "components": [
            {
              "internalType": "string",
              "name": "key",
              "type": "string"
            },
            {
              "internalType": "string",
              "name": "name",
              "type": "string"
            },
            {
              "internalType": "contract IAssetProvider",
              "name": "provider",
              "type": "address"
            }
          ],
          "internalType": "struct IAssetProvider.ProviderInfo",
          "name": "",
          "type": "tuple"
        }
      ],
      "stateMutability": "view",
      "type": "function"
    },
    {
      "inputs": [],
      "name": "owner",
      "outputs": [
        {
          "internalType": "address",
          "name": "",
          "type": "address"
        }
      ],
      "stateMutability": "view",
      "type": "function"
    },
    {
      "inputs": [
        {
          "internalType": "uint256",
          "name": "_assetId",
          "type": "uint256"
        }
      ],
      "name": "processPayout",
      "outputs": [],
      "stateMutability": "payable",
      "type": "function"
    },
    {
      "inputs": [],
      "name": "renounceOwnership",
      "outputs": [],
      "stateMutability": "nonpayable",
      "type": "function"
    },
    {
      "inputs": [
        {
          "internalType": "bytes4",
          "name": "interfaceId",
          "type": "bytes4"
        }
      ],
      "name": "supportsInterface",
      "outputs": [
        {
          "internalType": "bool",
          "name": "",
          "type": "bool"
        }
      ],
      "stateMutability": "view",
      "type": "function"
    },
    {
      "inputs": [],
      "name": "totalSupply",
      "outputs": [
        {
          "internalType": "uint256",
          "name": "",
          "type": "uint256"
        }
      ],
      "stateMutability": "view",
      "type": "function"
    },
    {
      "inputs": [
        {
          "internalType": "address",
          "name": "newOwner",
          "type": "address"
        }
      ],
      "name": "transferOwnership",
      "outputs": [],
      "stateMutability": "nonpayable",
      "type": "function"
    }
  ],
  "bytecode": "0x60a060405234801561001057600080fd5b506040516115b53803806115b583398101604081905261002f9161009d565b6100383361004d565b60601b6001600160601b0319166080526100cd565b600080546001600160a01b038381166001600160a01b0319831681178455604051919092169283917f8be0079c531659141344cd1fd0a4f28419497f9722a3daafe3b4186f6b6457e09190a35050565b6000602082840312156100af57600080fd5b81516001600160a01b03811681146100c657600080fd5b9392505050565b60805160601c611484610131600039600081816101cc0152818161044a015281816104e2015281816105770152818161065a0152818161071f015281816107ec01528181610883015281816109f201528181610a860152610b3b01526114846000f3fe6080604052600436106100f35760003560e01c80637805544c1161008a5780638da5cb5b116100595780638da5cb5b1461026a578063d4f056d41461033b578063e3f24f021461035b578063f2fde38b1461038957600080fd5b80637805544c1461024a578063893d20e81461026a57806389ee68bf146102885780638c40188e1461029b57600080fd5b8063515f28cb116100c6578063515f28cb1461019a578063597a0e36146101ba5780635c73924c14610206578063715018a61461023357600080fd5b806301ffc9a7146100f857806306545a931461012d57806318160ddd14610157578063468823e21461017a575b600080fd5b34801561010457600080fd5b50610118610113366004610e16565b6103a9565b60405190151581526020015b60405180910390f35b34801561013957600080fd5b50610142610446565b60405163ffffffff9091168152602001610124565b34801561016357600080fd5b5061016c6104de565b604051908152602001610124565b34801561018657600080fd5b5061016c610195366004610f0e565b610571565b3480156101a657600080fd5b506101426101b5366004610eaa565b610627565b3480156101c657600080fd5b506101ee7f000000000000000000000000000000000000000000000000000000000000000081565b6040516001600160a01b039091168152602001610124565b34801561021257600080fd5b50610226610221366004611164565b6106e8565b60405161012491906111ca565b34801561023f57600080fd5b506102486107a5565b005b34801561025657600080fd5b50610226610265366004610f86565b6107b9565b34801561027657600080fd5b506000546001600160a01b03166101ee565b610248610296366004611132565b610877565b3480156102a757600080fd5b5061032e60408051606080820183528082526020820152600091810191909152506040805160a08101825260056060820190815264185cdcd95d60da1b6080830152815281518083018352600b81527f41737365742053746f7265000000000000000000000000000000000000000000602082810191909152820152309181019190915290565b60405161012491906112a7565b34801561034757600080fd5b50610142610356366004610e40565b6109bf565b34801561036757600080fd5b5061037b610376366004611132565b610a77565b6040516101249291906111dd565b34801561039557600080fd5b506102486103a4366004610df9565b610be5565b60006001600160e01b031982167f7777120600000000000000000000000000000000000000000000000000000000148061040c57506001600160e01b031982167fe105c16e00000000000000000000000000000000000000000000000000000000145b8061044057506001600160e01b031982167f01ffc9a700000000000000000000000000000000000000000000000000000000145b92915050565b60007f00000000000000000000000000000000000000000000000000000000000000006001600160a01b03166306545a936040518163ffffffff1660e01b815260040160206040518083038186803b1580156104a157600080fd5b505afa1580156104b5573d6000803e3d6000fd5b505050506040513d601f19601f820116820180604052508101906104d99190611181565b905090565b60007f00000000000000000000000000000000000000000000000000000000000000006001600160a01b031663a0aead4d6040518163ffffffff1660e01b815260040160206040518083038186803b15801561053957600080fd5b505afa15801561054d573d6000803e3d6000fd5b505050506040513d601f19601f820116820180604052508101906104d9919061114b565b600060017f00000000000000000000000000000000000000000000000000000000000000006001600160a01b031663468823e28686866040518463ffffffff1660e01b81526004016105c59392919061120b565b60206040518083038186803b1580156105dd57600080fd5b505afa1580156105f1573d6000803e3d6000fd5b505050506040513d601f19601f82011682018060405250810190610615919061114b565b61061f91906113b4565b949350505050565b6040517f515f28cb0000000000000000000000000000000000000000000000000000000081526000906001600160a01b037f0000000000000000000000000000000000000000000000000000000000000000169063515f28cb9061069190869086906004016111dd565b60206040518083038186803b1580156106a957600080fd5b505afa1580156106bd573d6000803e3d6000fd5b505050506040513d601f19601f820116820180604052508101906106e19190611181565b9392505050565b6040517f5c73924c00000000000000000000000000000000000000000000000000000000815263ffffffff821660048201526060907f00000000000000000000000000000000000000000000000000000000000000006001600160a01b031690635c73924c9060240160006040518083038186803b15801561076957600080fd5b505afa15801561077d573d6000803e3d6000fd5b505050506040513d6000823e601f3d908101601f191682016040526104409190810190610e75565b6107ad610c7a565b6107b76000610cd4565b565b6040517f7805544c0000000000000000000000000000000000000000000000000000000081526060906001600160a01b037f00000000000000000000000000000000000000000000000000000000000000001690637805544c90610823908690869060040161127f565b60006040518083038186803b15801561083b57600080fd5b505afa15801561084f573d6000803e3d6000fd5b505050506040513d6000823e601f3d908101601f191682016040526106e19190810190610e75565b60006001600160a01b037f000000000000000000000000000000000000000000000000000000000000000016634378a6e36108b384600161139c565b6040518263ffffffff1660e01b81526004016108d191815260200190565b60006040518083038186803b1580156108e957600080fd5b505afa1580156108fd573d6000803e3d6000fd5b505050506040513d6000823e601f3d908101601f191682016040526109259190810190610fd8565b60a0810151604051919250906001600160a01b038216903480156108fc02916000818181858888f19350505050158015610963573d6000803e3d6000fd5b506040805180820182526005815264185cdcd95d60da1b602082015290517fbb0eeee27936db25b1a46a81ab6d97326392a3e961efa7273d5d756d7a2e1cad916109b291869085903490611247565b60405180910390a1505050565b6040517fd4f056d40000000000000000000000000000000000000000000000000000000081526000906001600160a01b037f0000000000000000000000000000000000000000000000000000000000000000169063d4f056d490610a279085906004016111ca565b60206040518083038186803b158015610a3f57600080fd5b505afa158015610a53573d6000803e3d6000fd5b505050506040513d601f19601f820116820180604052508101906104409190611181565b60608060006001600160a01b037f000000000000000000000000000000000000000000000000000000000000000016634378a6e3610ab686600161139c565b6040518263ffffffff1660e01b8152600401610ad491815260200190565b60006040518083038186803b158015610aec57600080fd5b505afa158015610b00573d6000803e3d6000fd5b505050506040513d6000823e601f3d908101601f19168201604052610b289190810190610fd8565b6060810151925090506001600160a01b037f0000000000000000000000000000000000000000000000000000000000000000166334320bf1610b6b86600161139c565b846040518363ffffffff1660e01b8152600401610b89929190611300565b60006040518083038186803b158015610ba157600080fd5b505afa158015610bb5573d6000803e3d6000fd5b505050506040513d6000823e601f3d908101601f19168201604052610bdd9190810190610e75565b925050915091565b610bed610c7a565b6001600160a01b038116610c6e5760405162461bcd60e51b815260206004820152602660248201527f4f776e61626c653a206e6577206f776e657220697320746865207a65726f206160448201527f646472657373000000000000000000000000000000000000000000000000000060648201526084015b60405180910390fd5b610c7781610cd4565b50565b6000546001600160a01b031633146107b75760405162461bcd60e51b815260206004820181905260248201527f4f776e61626c653a2063616c6c6572206973206e6f7420746865206f776e65726044820152606401610c65565b600080546001600160a01b038381167fffffffffffffffffffffffff0000000000000000000000000000000000000000831681178455604051919092169283917f8be0079c531659141344cd1fd0a4f28419497f9722a3daafe3b4186f6b6457e09190a35050565b8051610d4781611427565b919050565b600082601f830112610d5d57600080fd5b8151610d70610d6b82611374565b611343565b818152846020838601011115610d8557600080fd5b61061f8260208301602087016113cb565b600082601f830112610da757600080fd5b8135610db5610d6b82611374565b818152846020838601011115610dca57600080fd5b816020850160208301376000918101602001919091529392505050565b805161ffff81168114610d4757600080fd5b600060208284031215610e0b57600080fd5b81356106e181611427565b600060208284031215610e2857600080fd5b81356001600160e01b0319811681146106e157600080fd5b600060208284031215610e5257600080fd5b813567ffffffffffffffff811115610e6957600080fd5b61061f84828501610d96565b600060208284031215610e8757600080fd5b815167ffffffffffffffff811115610e9e57600080fd5b61061f84828501610d4c565b60008060408385031215610ebd57600080fd5b823567ffffffffffffffff80821115610ed557600080fd5b610ee186838701610d96565b93506020850135915080821115610ef757600080fd5b50610f0485828601610d96565b9150509250929050565b600080600060608486031215610f2357600080fd5b833567ffffffffffffffff80821115610f3b57600080fd5b610f4787838801610d96565b94506020860135915080821115610f5d57600080fd5b50610f6a86828701610d96565b9250506040840135610f7b8161143c565b809150509250925092565b60008060408385031215610f9957600080fd5b823567ffffffffffffffff811115610fb057600080fd5b610fbc85828601610d96565b9250506020830135610fcd8161143c565b809150509250929050565b600060208284031215610fea57600080fd5b815167ffffffffffffffff8082111561100257600080fd5b90830190610120828603121561101757600080fd5b61101f611319565b82518281111561102e57600080fd5b61103a87828601610d4c565b82525060208301518281111561104f57600080fd5b61105b87828601610d4c565b60208301525060408301518281111561107357600080fd5b61107f87828601610d4c565b60408301525060608301518281111561109757600080fd5b6110a387828601610d4c565b6060830152506080830151828111156110bb57600080fd5b6110c787828601610d4c565b6080830152506110d960a08401610d3c565b60a082015260c0830151828111156110f057600080fd5b6110fc87828601610d4c565b60c08301525061110e60e08401610de7565b60e08201526101009150611123828401610de7565b91810191909152949350505050565b60006020828403121561114457600080fd5b5035919050565b60006020828403121561115d57600080fd5b5051919050565b60006020828403121561117657600080fd5b81356106e18161143c565b60006020828403121561119357600080fd5b81516106e18161143c565b600081518084526111b68160208601602086016113cb565b601f01601f19169290920160200192915050565b6020815260006106e1602083018461119e565b6040815260006111f0604083018561119e565b8281036020840152611202818561119e565b95945050505050565b60608152600061121e606083018661119e565b8281036020840152611230818661119e565b91505063ffffffff83166040830152949350505050565b60808152600061125a608083018761119e565b6020830195909552506001600160a01b03929092166040830152606090910152919050565b604081526000611292604083018561119e565b905063ffffffff831660208301529392505050565b6020815260008251606060208401526112c3608084018261119e565b90506020840151601f198483030160408501526112e0828261119e565b9150506001600160a01b0360408501511660608401528091505092915050565b82815260406020820152600061061f604083018461119e565b604051610120810167ffffffffffffffff8111828210171561133d5761133d611411565b60405290565b604051601f8201601f1916810167ffffffffffffffff8111828210171561136c5761136c611411565b604052919050565b600067ffffffffffffffff82111561138e5761138e611411565b50601f01601f191660200190565b600082198211156113af576113af6113fb565b500190565b6000828210156113c6576113c66113fb565b500390565b60005b838110156113e65781810151838201526020016113ce565b838111156113f5576000848401525b50505050565b634e487b7160e01b600052601160045260246000fd5b634e487b7160e01b600052604160045260246000fd5b6001600160a01b0381168114610c7757600080fd5b63ffffffff81168114610c7757600080fdfea26469706673582212203685c133fe9cb7d16062fb482f9341c5d9a53b8441e2fa583de587fa0de2a4c864736f6c63430008060033",
  "linkReferences": {},
  "deployedLinkReferences": {}
}