{
  "_format": "hh-sol-artifact-1",
  "contractName": "SVGPathDecoder3",
  "sourceName": "contracts/libs/SVGPathDecoder3.sol",
  "abi": [
    {
      "inputs": [
        {
          "internalType": "bytes",
          "name": "body",
          "type": "bytes"
        }
      ],
      "name": "decodePath",
      "outputs": [
        {
          "internalType": "bytes",
          "name": "",
          "type": "bytes"
        }
      ],
      "stateMutability": "pure",
      "type": "function"
    }
  ],
  "bytecode": "0x608060405234801561001057600080fd5b506109bc806100206000396000f3fe608060405234801561001057600080fd5b506004361061002b5760003560e01c8063c25ddce014610030575b600080fd5b61004361003e3660046106e0565b610059565b6040516100509190610791565b60405180910390f35b606060008060006003855160026100709190610855565b61007a91906107fe565b9050600080600080600095505b8461ffff168661ffff161015610245576100a26002876107fe565b6100ad906003610855565b61ffff1691506100be6002876108d7565b61ffff16610119578882815181106100d8576100d861095a565b016020015160f81c93506010896100f08460016107e6565b815181106101005761010061095a565b0160200151610112919060f81c61090c565b9250610172565b886101258360026107e6565b815181106101355761013561095a565b016020015160f81c935060108961014d8460016107e6565b8151811061015d5761015d61095a565b016020015161016f919060f81c610833565b92505b60ff831615610233576101008460ff168460ff16610100610193919061087f565b61019d91906107e6565b6101a7919061089e565b905061040081106101c5576101be6104008261089e565b90506101e1565b6101d06001886107e6565b96506101de8161040061089e565b90505b606481101561021057600a81106101f95760026101fc565b60015b6102099060ff16886107e6565b9650610233565b6103e88110610220576004610223565b60035b6102309060ff16886107e6565b96505b8561023d816108b5565b965050610087565b600061025561ffff8716896107e6565b905060008167ffffffffffffffff81111561027257610272610970565b6040519080825280601f01601f19166020018201604052801561029c576020820181803683370190505b50905060009850600080600099505b8861ffff168a61ffff161015610662576102c660028b6107fe565b6102d1906003610855565b61ffff1695506102e260028b6108d7565b61ffff1661033d578c86815181106102fc576102fc61095a565b016020015160f81c975060108d6103148860016107e6565b815181106103245761032461095a565b0160200151610336919060f81c61090c565b9650610396565b8c6103498760026107e6565b815181106103595761035961095a565b016020015160f81c975060108d6103718860016107e6565b815181106103815761038161095a565b0160200151610393919060f81c610833565b96505b60ff871661044c5760418860ff16101580156103b65750605a8860ff1611155b806103d4575060618860ff16101580156103d45750607a8860ff1611155b1561040b578760f81b838c815181106103ef576103ef61095a565b60200101906001600160f81b031916908160001a90535061043a565b600160fd1b838c815181106104225761042261095a565b60200101906001600160f81b031916908160001a9053505b61044560018c6107e6565b9a50610650565b6101008860ff168860ff16610100610464919061087f565b61046e91906107e6565b610478919061089e565b945061040085106104965761048f6104008661089e565b94506104fc565b7f2d00000000000000000000000000000000000000000000000000000000000000838c815181106104c9576104c961095a565b60200101906001600160f81b031916908160001a9053506104eb60018c6107e6565b9a506104f98561040061089e565b94505b606485101561052157600a8510610514576002610517565b60015b60ff16915061053a565b6103e88510610531576004610534565b60035b60ff1691505b8461058e577f3000000000000000000000000000000000000000000000000000000000000000838c815181106105725761057261095a565b60200101906001600160f81b031916908160001a905350610601565b50805b8415610601576105a260018261089e565b90506105af600a866108f8565b6105ba9060306107e6565b60f81b836105c8838e6107e6565b815181106105d8576105d861095a565b60200101906001600160f81b031916908160001a9053506105fa600a8661081f565b9450610591565b600160fd1b83610611848e6107e6565b815181106106215761062161095a565b60200101906001600160f81b031916908160001a9053506106438260016107e6565b61064d908c6107e6565b9a505b8961065a816108b5565b9a50506102ab565b838b146106cf576040517f08c379a000000000000000000000000000000000000000000000000000000000815260206004820152601660248201527f4255474255473a20696e646578203d3d20636f756e7400000000000000000000604482015260640160405180910390fd5b50909b9a5050505050505050505050565b6000602082840312156106f257600080fd5b813567ffffffffffffffff8082111561070a57600080fd5b818401915084601f83011261071e57600080fd5b81358181111561073057610730610970565b604051601f8201601f19908116603f0116810190838211818310171561075857610758610970565b8160405282815287602084870101111561077157600080fd5b826020860160208301376000928101602001929092525095945050505050565b600060208083528351808285015260005b818110156107be578581018301518582016040015282016107a2565b818111156107d0576000604083870101525b50601f01601f1916929092016040019392505050565b600082198211156107f9576107f961092e565b500190565b600061ffff8084168061081357610813610944565b92169190910492915050565b60008261082e5761082e610944565b500490565b600060ff83168061084657610846610944565b8060ff84160491505092915050565b600061ffff808316818516818304811182151516156108765761087661092e565b02949350505050565b60008160001904831182151516156108995761089961092e565b500290565b6000828210156108b0576108b061092e565b500390565b600061ffff808316818114156108cd576108cd61092e565b6001019392505050565b600061ffff808416806108ec576108ec610944565b92169190910692915050565b60008261090757610907610944565b500690565b600060ff83168061091f5761091f610944565b8060ff84160691505092915050565b634e487b7160e01b600052601160045260246000fd5b634e487b7160e01b600052601260045260246000fd5b634e487b7160e01b600052603260045260246000fd5b634e487b7160e01b600052604160045260246000fdfea2646970667358221220bb19f917aea524a166f1e9e41e826c13e08356c6f8a917098c7a73484fb775ad64736f6c63430008060033",
  "linkReferences": {},
  "deployedLinkReferences": {}
}