{
  "_format": "hh-sol-artifact-1",
  "contractName": "SVGPathDecoderA",
  "sourceName": "contracts/libs/SVGPathDecoderA.sol",
  "abi": [
    {
      "inputs": [
        {
          "internalType": "bytes",
          "name": "body",
          "type": "bytes"
        }
      ],
      "name": "decodePath",
      "outputs": [
        {
          "internalType": "bytes",
          "name": "",
          "type": "bytes"
        }
      ],
      "stateMutability": "pure",
      "type": "function"
    }
  ],
  "bytecode": "0x608060405234801561001057600080fd5b5061034e806100206000396000f3fe608060405234801561001057600080fd5b506004361061002b5760003560e01c8063c25ddce014610030575b600080fd5b61004361003e3660046101e3565b610059565b6040516100509190610294565b60405180910390f35b6060806020830160036002855102046040519250602083016000805b838110156101cc57600f811661009057845191506018850194505b6000806001831680156100ba5760ff8560e81c169250600f8560f41c1691508460181b94506100ca565b8460f81c9250600f8560f01c1691505b5080801561019c5760006002610100858560081b010361040081106000811461010157602d93506003925081610400039150610109565b610400820391505b506009811115610172576063811115610157576103e781111561013c5760089290921b603117916001909101906103e890065b606481046030018360081b1792508160010191506064810690505b600a81046030018360081b179250816001019150600a810690505b60208160300160081b8460101b17179250508160088202610100031b8852808801975050506101c1565b607b83106060841116605b8410604085111617156101c1578260f81b86526001860195505b505050600101610075565b5050601f1984820301845260405250909392505050565b6000602082840312156101f557600080fd5b813567ffffffffffffffff8082111561020d57600080fd5b818401915084601f83011261022157600080fd5b813581811115610233576102336102e9565b604051601f8201601f19908116603f0116810190838211818310171561025b5761025b6102e9565b8160405282815287602084870101111561027457600080fd5b826020860160208301376000928101602001929092525095945050505050565b600060208083528351808285015260005b818110156102c1578581018301518582016040015282016102a5565b818111156102d3576000604083870101525b50601f01601f1916929092016040019392505050565b7f4e487b7100000000000000000000000000000000000000000000000000000000600052604160045260246000fdfea26469706673582212203df8eb21e10a1ec9b90a30c9d4ab5468e662d300e774527a8bd93763f56ef3dd64736f6c63430008060033",
  "linkReferences": {},
  "deployedLinkReferences": {}
}