{
  "_format": "hh-sol-artifact-1",
  "contractName": "SplatterProvider",
  "sourceName": "contracts/SplatterProvider.sol",
  "abi": [
    {
      "inputs": [],
      "stateMutability": "nonpayable",
      "type": "constructor"
    },
    {
      "anonymous": false,
      "inputs": [
        {
          "indexed": true,
          "internalType": "address",
          "name": "previousOwner",
          "type": "address"
        },
        {
          "indexed": true,
          "internalType": "address",
          "name": "newOwner",
          "type": "address"
        }
      ],
      "name": "OwnershipTransferred",
      "type": "event"
    },
    {
      "anonymous": false,
      "inputs": [
        {
          "indexed": false,
          "internalType": "string",
          "name": "providerKey",
          "type": "string"
        },
        {
          "indexed": false,
          "internalType": "uint256",
          "name": "assetId",
          "type": "uint256"
        },
        {
          "indexed": false,
          "internalType": "address payable",
          "name": "to",
          "type": "address"
        },
        {
          "indexed": false,
          "internalType": "uint256",
          "name": "amount",
          "type": "uint256"
        }
      ],
      "name": "Payout",
      "type": "event"
    },
    {
      "inputs": [
        {
          "components": [
            {
              "internalType": "uint256",
              "name": "seed",
              "type": "uint256"
            },
            {
              "internalType": "uint256",
              "name": "value",
              "type": "uint256"
            }
          ],
          "internalType": "struct Randomizer.Seed",
          "name": "_seed",
          "type": "tuple"
        },
        {
          "components": [
            {
              "internalType": "uint256",
              "name": "count",
              "type": "uint256"
            },
            {
              "internalType": "uint256",
              "name": "length",
              "type": "uint256"
            },
            {
              "internalType": "uint256",
              "name": "dot",
              "type": "uint256"
            }
          ],
          "internalType": "struct SplatterProvider.Props",
          "name": "_props",
          "type": "tuple"
        }
      ],
      "name": "generatePath",
      "outputs": [
        {
          "components": [
            {
              "internalType": "uint256",
              "name": "seed",
              "type": "uint256"
            },
            {
              "internalType": "uint256",
              "name": "value",
              "type": "uint256"
            }
          ],
          "internalType": "struct Randomizer.Seed",
          "name": "seed",
          "type": "tuple"
        },
        {
          "internalType": "bytes",
          "name": "svgPart",
          "type": "bytes"
        }
      ],
      "stateMutability": "view",
      "type": "function"
    },
    {
      "inputs": [
        {
          "components": [
            {
              "internalType": "uint256",
              "name": "seed",
              "type": "uint256"
            },
            {
              "internalType": "uint256",
              "name": "value",
              "type": "uint256"
            }
          ],
          "internalType": "struct Randomizer.Seed",
          "name": "_seed",
          "type": "tuple"
        }
      ],
      "name": "generateProps",
      "outputs": [
        {
          "components": [
            {
              "internalType": "uint256",
              "name": "seed",
              "type": "uint256"
            },
            {
              "internalType": "uint256",
              "name": "value",
              "type": "uint256"
            }
          ],
          "internalType": "struct Randomizer.Seed",
          "name": "seed",
          "type": "tuple"
        },
        {
          "components": [
            {
              "internalType": "uint256",
              "name": "count",
              "type": "uint256"
            },
            {
              "internalType": "uint256",
              "name": "length",
              "type": "uint256"
            },
            {
              "internalType": "uint256",
              "name": "dot",
              "type": "uint256"
            }
          ],
          "internalType": "struct SplatterProvider.Props",
          "name": "props",
          "type": "tuple"
        }
      ],
      "stateMutability": "pure",
      "type": "function"
    },
    {
      "inputs": [
        {
          "internalType": "uint256",
          "name": "_assetId",
          "type": "uint256"
        }
      ],
      "name": "generateSVGPart",
      "outputs": [
        {
          "internalType": "string",
          "name": "svgPart",
          "type": "string"
        },
        {
          "internalType": "string",
          "name": "tag",
          "type": "string"
        }
      ],
      "stateMutability": "view",
      "type": "function"
    },
    {
      "inputs": [],
      "name": "getOwner",
      "outputs": [
        {
          "internalType": "address",
          "name": "",
          "type": "address"
        }
      ],
      "stateMutability": "view",
      "type": "function"
    },
    {
      "inputs": [],
      "name": "getProviderInfo",
      "outputs": [
        {
          "components": [
            {
              "internalType": "string",
              "name": "key",
              "type": "string"
            },
            {
              "internalType": "string",
              "name": "name",
              "type": "string"
            },
            {
              "internalType": "contract IAssetProvider",
              "name": "provider",
              "type": "address"
            }
          ],
          "internalType": "struct IAssetProvider.ProviderInfo",
          "name": "",
          "type": "tuple"
        }
      ],
      "stateMutability": "view",
      "type": "function"
    },
    {
      "inputs": [],
      "name": "owner",
      "outputs": [
        {
          "internalType": "address",
          "name": "",
          "type": "address"
        }
      ],
      "stateMutability": "view",
      "type": "function"
    },
    {
      "inputs": [
        {
          "internalType": "uint256",
          "name": "_assetId",
          "type": "uint256"
        }
      ],
      "name": "processPayout",
      "outputs": [],
      "stateMutability": "payable",
      "type": "function"
    },
    {
      "inputs": [],
      "name": "receiver",
      "outputs": [
        {
          "internalType": "address",
          "name": "",
          "type": "address"
        }
      ],
      "stateMutability": "view",
      "type": "function"
    },
    {
      "inputs": [],
      "name": "renounceOwnership",
      "outputs": [],
      "stateMutability": "nonpayable",
      "type": "function"
    },
    {
      "inputs": [
        {
          "internalType": "contract ISVGHelper",
          "name": "_svgHelper",
          "type": "address"
        }
      ],
      "name": "setHelper",
      "outputs": [],
      "stateMutability": "nonpayable",
      "type": "function"
    },
    {
      "inputs": [
        {
          "internalType": "address",
          "name": "_receiver",
          "type": "address"
        }
      ],
      "name": "setReceiver",
      "outputs": [],
      "stateMutability": "nonpayable",
      "type": "function"
    },
    {
      "inputs": [
        {
          "internalType": "bytes4",
          "name": "interfaceId",
          "type": "bytes4"
        }
      ],
      "name": "supportsInterface",
      "outputs": [
        {
          "internalType": "bool",
          "name": "",
          "type": "bool"
        }
      ],
      "stateMutability": "view",
      "type": "function"
    },
    {
      "inputs": [],
      "name": "totalSupply",
      "outputs": [
        {
          "internalType": "uint256",
          "name": "",
          "type": "uint256"
        }
      ],
      "stateMutability": "pure",
      "type": "function"
    },
    {
      "inputs": [
        {
          "internalType": "address",
          "name": "newOwner",
          "type": "address"
        }
      ],
      "name": "transferOwnership",
      "outputs": [],
      "stateMutability": "nonpayable",
      "type": "function"
    }
  ],
  "bytecode": "0x60806040523480156200001157600080fd5b506200001d3362000091565b600054600180546001600160a01b0319166001600160a01b039092169190911790556040516200004d90620000e1565b604051809103906000f0801580156200006a573d6000803e3d6000fd5b50600280546001600160a01b0319166001600160a01b0392909216919091179055620000ef565b600080546001600160a01b038381166001600160a01b0319831681178455604051919092169283917f8be0079c531659141344cd1fd0a4f28419497f9722a3daafe3b4186f6b6457e09190a35050565b610b158062001fbc83390190565b611ebd80620000ff6000396000f3fe6080604052600436106100dd5760003560e01c806389ee68bf1161007f578063986ccc7f11610059578063986ccc7f146102ea578063e3f24f021461030a578063f2fde38b14610338578063f7260d3e1461035857600080fd5b806389ee68bf1461021a5780638c40188e1461022d5780638da5cb5b146102cc57600080fd5b80633ff18707116100bb5780633ff1870714610183578063715018a6146101b1578063718da7ee146101c8578063893d20e8146101e857600080fd5b806301ffc9a7146100e2578063094499f61461011757806318160ddd14610167575b600080fd5b3480156100ee57600080fd5b506101026100fd3660046117ef565b610378565b60405190151581526020015b60405180910390f35b34801561012357600080fd5b506101376101323660046118de565b610411565b6040805183518152602093840151848201528251818301529282015160608401520151608082015260a00161010e565b34801561017357600080fd5b506040516000815260200161010e565b34801561018f57600080fd5b506101a361019e3660046118fa565b6104d4565b60405161010e929190611bc8565b3480156101bd57600080fd5b506101c66105a0565b005b3480156101d457600080fd5b506101c66101e33660046117d2565b6105b4565b3480156101f457600080fd5b506000546001600160a01b03165b6040516001600160a01b03909116815260200161010e565b6101c661022836600461197b565b6105eb565b34801561023957600080fd5b506102bf60408051606080820183528082526020820152600091810191909152506040805160a081018252600460608201908152631cdc1b1d60e21b6080830152815281518083018352600881527f53706c6174746572000000000000000000000000000000000000000000000000602082810191909152820152309181019190915290565b60405161010e9190611b6f565b3480156102d857600080fd5b506000546001600160a01b0316610202565b3480156102f657600080fd5b506101c66103053660046117d2565b610680565b34801561031657600080fd5b5061032a61032536600461197b565b6106b7565b60405161010e929190611b09565b34801561034457600080fd5b506101c66103533660046117d2565b610789565b34801561036457600080fd5b50600154610202906001600160a01b031681565b60007fffffffff0000000000000000000000000000000000000000000000000000000082167f7777120600000000000000000000000000000000000000000000000000000000148061040b57507fffffffff0000000000000000000000000000000000000000000000000000000082167f01ffc9a700000000000000000000000000000000000000000000000000000000145b92915050565b604080518082019091526000808252602082015261044960405180606001604052806000815260200160008152602001600081525090565b505060408051606081018252601e808252602860208301526064928201929092528291610479908390603261081e565b82526020820151909250610490908390603261081e565b602083015260408201519092506104aa908390603261081e565b604083015281519092506104c090600390611c92565b6104cb906003611d46565b81529092909150565b60408051808201909152600080825260208201526060806104f58585610889565b6002546040517f598be2e10000000000000000000000000000000000000000000000000000000081529295509092506001600160a01b03169063598be2e190610542908490600401611a9a565b60006040518083038186803b15801561055a57600080fd5b505afa15801561056e573d6000803e3d6000fd5b505050506040513d6000823e601f3d908101601f191682016040526105969190810190611831565b9150509250929050565b6105a8611361565b6105b260006113bb565b565b6105bc611361565b6001805473ffffffffffffffffffffffffffffffffffffffff19166001600160a01b0392909216919091179055565b6001546040516001600160a01b039091169081903480156108fc02916000818181858888f19350505050158015610626573d6000803e3d6000fd5b5060408051808201825260048152631cdc1b1d60e21b602082015290517fbb0eeee27936db25b1a46a81ab6d97326392a3e961efa7273d5d756d7a2e1cad9161067491859085903490611b37565b60405180910390a15050565b610688611361565b6002805473ffffffffffffffffffffffffffffffffffffffff19166001600160a01b0392909216919091179055565b60608060006040518060400160405280858152602001600081525090506106f860405180606001604052806000815260200160008152602001600081525090565b61070182610411565b9092509050606061071283836104d4565b6040805180820190915260048152631cdc1b1d60e21b6020820152909250905061073b87611418565b60405160200161074c9291906119c0565b604051602081830303815290604052935083816040516020016107709291906119ef565b6040516020818303038152906040529450505050915091565b610791611361565b6001600160a01b0381166108125760405162461bcd60e51b815260206004820152602660248201527f4f776e61626c653a206e6577206f776e657220697320746865207a65726f206160448201527f646472657373000000000000000000000000000000000000000000000000000060648201526084015b60405180910390fd5b61081b816113bb565b50565b604080518082019091526000808252602082015260008060646108418587611d46565b61084b9190611c92565b905060006108638761085e846002611d46565b6114c2565b9094509050806108738388611d65565b61087d9190611c4c565b92505050935093915050565b60408051808201909152600080825260208201528151606090849060009067ffffffffffffffff8111156108bf576108bf611e3a565b6040519080825280602002602001820160405280156108e8578160200160208202803683370190505b5090506000805b865181101561094d576000610907856064605a61081e565b80925081965050508284838151811061092257610922611e24565b60209081029190910101526109378184611c4c565b925050808061094590611dac565b9150506108ef565b50855160dc90819060009061096490600390611c92565b61096f906005611d46565b895161097b9190611c4c565b67ffffffffffffffff81111561099357610993611e3a565b6040519080825280602002602001820160405280156109e557816020015b6040805160808101825260008082526020808301829052928201819052606082015282526000199092019101816109b15790505b5090506000805b8a5181101561135057600086888381518110610a0a57610a0a611e24565b6020026020010151614000610a1f9190611d46565b610a299190611c92565b610a3590614000611c4c565b9050610a42600383611dc7565b6111f05760208c0151600090610a5b908b90606461081e565b60408f0151919b509150600090610a75908c90603261081e565b909b50905061800087610a91610a8c601e87611d65565b611550565b610a9b9190611ca6565b610aa59190611c64565b610ab190610200611bf4565b868681518110610ac357610ac3611e24565b6020908102919091010151600391820b90910b905261800087610aef610aea601e87611d65565b611561565b610af99190611ca6565b610b039190611c64565b610b0f90610200611bf4565b868681518110610b2157610b21611e24565b60200260200101516020019060030b908160030b815250506000868681518110610b4d57610b4d611e24565b60200260200101516040019015159081151581525050610400868681518110610b7857610b78611e24565b60200260200101516060019060030b908160030b815250508480610b9b90611dac565b95506180009050610bac8389611c4c565b610bba610a8c601e87611d65565b610bc49190611ca6565b610bce9190611c64565b610bda90610200611bf4565b868681518110610bec57610bec611e24565b6020908102919091010151600391820b90910b9052618000610c0e8389611c4c565b610c1c610aea601e87611d65565b610c269190611ca6565b610c309190611c64565b610c3c90610200611bf4565b868681518110610c4e57610c4e611e24565b60200260200101516020019060030b908160030b815250506000868681518110610c7a57610c7a611e24565b60200260200101516040019015159081151581525050610236868681518110610ca557610ca5611e24565b60200260200101516060019060030b908160030b815250508480610cc890611dac565b955061800090506096610cdb8382611c4c565b610ce59085611d46565b610cef9190611c92565b610cf99089611c4c565b610d06610a8c8487611d65565b610d109190611ca6565b610d1a9190611c64565b610d2690610200611bf4565b868681518110610d3857610d38611e24565b6020908102919091010151600391820b90910b90526180006096610d5c8382611c4c565b610d669085611d46565b610d709190611c92565b610d7a9089611c4c565b610d87610aea8487611d65565b610d919190611ca6565b610d9b9190611c64565b610da790610200611bf4565b868681518110610db957610db9611e24565b60200260200101516020019060030b908160030b815250506000868681518110610de557610de5611e24565b60200260200101516040019015159081151581525050610236868681518110610e1057610e10611e24565b60200260200101516060019060030b908160030b815250508480610e3390611dac565b955061800090506096610e468382611c4c565b610e509085611d46565b610e5a9190611c92565b610e649089611c4c565b610e71610a8c8487611c4c565b610e7b9190611ca6565b610e859190611c64565b610e9190610200611bf4565b868681518110610ea357610ea3611e24565b6020908102919091010151600391820b90910b90526180006096610ec78382611c4c565b610ed19085611d46565b610edb9190611c92565b610ee59089611c4c565b610ef2610aea8487611c4c565b610efc9190611ca6565b610f069190611c64565b610f1290610200611bf4565b868681518110610f2457610f24611e24565b60200260200101516020019060030b908160030b815250506000868681518110610f5057610f50611e24565b60200260200101516040019015159081151581525050610236868681518110610f7b57610f7b611e24565b60200260200101516060019060030b908160030b815250508480610f9e90611dac565b95506180009050610faf8389611c4c565b610fbd610a8c86601e611c4c565b610fc79190611ca6565b610fd19190611c64565b610fdd90610200611bf4565b868681518110610fef57610fef611e24565b6020908102919091010151600391820b90910b90526180006110118389611c4c565b61101f610aea86601e611c4c565b6110299190611ca6565b6110339190611c64565b61103f90610200611bf4565b86868151811061105157611051611e24565b60200260200101516020019060030b908160030b81525050600086868151811061107d5761107d611e24565b602002602001015160400190151590811515815250506102368686815181106110a8576110a8611e24565b60200260200101516060019060030b908160030b8152505084806110cb90611dac565b95506180009050876110e1610a8c86601e611c4c565b6110eb9190611ca6565b6110f59190611c64565b61110190610200611bf4565b86868151811061111357611113611e24565b6020908102919091010151600391820b90910b90526180008761113a610aea86601e611c4c565b6111449190611ca6565b61114e9190611c64565b61115a90610200611bf4565b86868151811061116c5761116c611e24565b60200260200101516020019060030b908160030b81525050600086868151811061119857611198611e24565b602002602001015160400190151590811515815250506104008686815181106111c3576111c3611e24565b60200260200101516060019060030b908160030b8152505084806111e690611dac565b9550505050611304565b618000856111fd83611550565b6112079190611ca6565b6112119190611c64565b61121d90610200611bf4565b84848151811061122f5761122f611e24565b60200260200101516000019060030b908160030b815250506180008561125483611561565b61125e9190611ca6565b6112689190611c64565b61127490610200611bf4565b84848151811061128657611286611e24565b60200260200101516020019060030b908160030b8152505060008484815181106112b2576112b2611e24565b602002602001015160400190151590811515815250506102368484815181106112dd576112dd611e24565b60200260200101516060019060030b908160030b81525050828061130090611dac565b9350505b5060006113138986601461081e565b9099509050600386611326836002611d46565b6113309190611c4c565b61133a9190611c92565b945050808061134890611dac565b9150506109ec565b50959a909950975050505050505050565b6000546001600160a01b031633146105b25760405162461bcd60e51b815260206004820181905260248201527f4f776e61626c653a2063616c6c6572206973206e6f7420746865206f776e65726044820152606401610809565b600080546001600160a01b0383811673ffffffffffffffffffffffffffffffffffffffff19831681178455604051919092169283917f8be0079c531659141344cd1fd0a4f28419497f9722a3daafe3b4186f6b6457e09190a35050565b60606000611425836115d3565b600101905060008167ffffffffffffffff81111561144557611445611e3a565b6040519080825280601f01601f19166020018201604052801561146f576020820181803683370190505b5090508181016020015b600019017f3031323334353637383961626364656600000000000000000000000000000000600a86061a8153600a85049450846114b5576114ba565b611479565b509392505050565b6040805180820190915260008082526020820152508160006114e683610100611d46565b826020015110156115205781516040805160208101929092520160408051601f198184030181529190528051602091820120808452908301525b8282602001516115309190611dc7565b905082826020018181516115449190611c92565b90525090939092509050565b600061040b610aea83611000611c4c565b60008061157061400084611dc7565b90506120008110156115a65761159f61100082106115995761159482612000611d65565b6116b5565b816116b5565b9392505050565b6115ca61300082106115be5761159482614000611d65565b61159461200083611d65565b61159f90611ddb565b6000807a184f03e93ff9f4daa797ed6e38ed64bf6a1f010000000000000000831061161c577a184f03e93ff9f4daa797ed6e38ed64bf6a1f010000000000000000830492506040015b6d04ee2d6d415b85acef81000000008310611648576d04ee2d6d415b85acef8100000000830492506020015b662386f26fc10000831061166657662386f26fc10000830492506010015b6305f5e100831061167e576305f5e100830492506008015b612710831061169257612710830492506004015b606483106116a4576064830492506002015b600a831061040b5760010192915050565b60008161100014156116ca5750617fff919050565b60006116d861010084611c92565b905060ff831660006116e983611740565b61ffff16905060006117046116ff856001611c4c565b611740565b61ffff169050610100836117188484611d65565b6117229190611d46565b61172c9190611c92565b6117369083611c4c565b9695505050505050565b600080604051806060016040528060228152602001611e666022913990506000600261176d856001611c4c565b6117779190611d46565b91909101519392505050565b60006040828403121561179557600080fd5b6040516040810181811067ffffffffffffffff821117156117b8576117b8611e3a565b604052823581526020928301359281019290925250919050565b6000602082840312156117e457600080fd5b813561159f81611e50565b60006020828403121561180157600080fd5b81357fffffffff000000000000000000000000000000000000000000000000000000008116811461159f57600080fd5b60006020828403121561184357600080fd5b815167ffffffffffffffff8082111561185b57600080fd5b818401915084601f83011261186f57600080fd5b81518181111561188157611881611e3a565b604051601f8201601f19908116603f011681019083821181831017156118a9576118a9611e3a565b816040528281528760208487010111156118c257600080fd5b6118d3836020830160208801611d7c565b979650505050505050565b6000604082840312156118f057600080fd5b61159f8383611783565b60008082840360a081121561190e57600080fd5b6119188585611783565b92506060603f198201121561192c57600080fd5b506040516060810181811067ffffffffffffffff8211171561195057611950611e3a565b8060405250604084013581526060840135602082015260808401356040820152809150509250929050565b60006020828403121561198d57600080fd5b5035919050565b600081518084526119ac816020860160208601611d7c565b601f01601f19169290920160200192915050565b600083516119d2818460208801611d7c565b8351908301906119e6818360208801611d7c565b01949350505050565b7f3c672069643d2200000000000000000000000000000000000000000000000000815260008351611a27816007850160208801611d7c565b7f223e0a3c7061746820643d2200000000000000000000000000000000000000006007918401918201528351611a64816013840160208801611d7c565b7f222f3e0a3c2f673e0a000000000000000000000000000000000000000000000060139290910191820152601c01949350505050565b602080825282518282018190526000919060409081850190868401855b82811015611afc5781518051600390810b865287820151810b8887015286820151151587870152606091820151900b9085015260809093019290850190600101611ab7565b5091979650505050505050565b604081526000611b1c6040830185611994565b8281036020840152611b2e8185611994565b95945050505050565b608081526000611b4a6080830187611994565b6020830195909552506001600160a01b03929092166040830152606090910152919050565b602081526000825160606020840152611b8b6080840182611994565b90506020840151601f19848303016040850152611ba88282611994565b9150506001600160a01b0360408501511660608401528091505092915050565b8251815260208084015190820152606060408201526000611bec6060830184611994565b949350505050565b6000808212827f7fffffffffffffffffffffffffffffffffffffffffffffffffffffffffffffff03841381151615611c2e57611c2e611df8565b82600160ff1b038412811615611c4657611c46611df8565b50500190565b60008219821115611c5f57611c5f611df8565b500190565b600082611c7357611c73611e0e565b600160ff1b821460001984141615611c8d57611c8d611df8565b500590565b600082611ca157611ca1611e0e565b500490565b60007f7fffffffffffffffffffffffffffffffffffffffffffffffffffffffffffffff600084136000841385830485118282161615611ce757611ce7611df8565b600160ff1b6000871286820588128184161615611d0657611d06611df8565b60008712925087820587128484161615611d2257611d22611df8565b87850587128184161615611d3857611d38611df8565b505050929093029392505050565b6000816000190483118215151615611d6057611d60611df8565b500290565b600082821015611d7757611d77611df8565b500390565b60005b83811015611d97578181015183820152602001611d7f565b83811115611da6576000848401525b50505050565b6000600019821415611dc057611dc0611df8565b5060010190565b600082611dd657611dd6611e0e565b500690565b6000600160ff1b821415611df157611df1611df8565b5060000390565b634e487b7160e01b600052601160045260246000fd5b634e487b7160e01b600052601260045260246000fd5b634e487b7160e01b600052603260045260246000fd5b634e487b7160e01b600052604160045260246000fd5b6001600160a01b038116811461081b57600080fdfe00000c8c18f9252830fb3c56471c51335a8262f16a6d70e276417a7c7d897f617fffa2646970667358221220924f7d0fa244dc7a292aa4f6a7d4d0423e04707a6bbe75e04bc3f0c6416ff45a64736f6c63430008060033608060405234801561001057600080fd5b50610af5806100206000396000f3fe608060405234801561001057600080fd5b506004361061002b5760003560e01c8063598be2e114610030575b600080fd5b61004361003e3660046104fc565b610059565b60405161005091906107ef565b60405180910390f35b805160609060005b8181101561035157600084828151811061007d5761007d610a93565b60200260200101519050600085846001868661009991906108c5565b6100a391906109f1565b6100ad9190610a53565b815181106100bd576100bd610a93565b6020026020010151905060006002826000015184600001516100df919061087c565b6100e991906108dd565b90506000600283602001518560200151610103919061087c565b61010d91906108dd565b905084610155576101238263ffffffff16610358565b6101328263ffffffff16610358565b60405160200161014392919061078a565b60405160208183030381529060405296505b8360400151156101ae5786610173856000015163ffffffff16610358565b610186866020015163ffffffff16610358565b6040516020016101989392919061070f565b604051602081830303815290604052965061033a565b600088876101bd8860016108c5565b6101c79190610a53565b815181106101d7576101d7610a93565b6020026020010151905060006002826000015187600001516101f9919061087c565b61020391906108dd565b9050600060028360200151886020015161021d919061087c565b61022791906108dd565b90508961026e610400878a6000015161024091906109a7565b8a6060015161024f9190610918565b61025991906108dd565b610263908861087c565b63ffffffff16610358565b610293610400878b6020015161028491906109a7565b8b6060015161024f9190610918565b6102cc610400868c600001516102a991906109a7565b8c606001516102b89190610918565b6102c291906108dd565b610263908761087c565b6102f1610400868d602001516102e291906109a7565b8d606001516102b89190610918565b6103008763ffffffff16610358565b61030f8763ffffffff16610358565b604051602001610325979695949392919061061f565b60405160208183030381529060405299505050505b50505050808061034990610a38565b915050610061565b5050919050565b6060600061036583610402565b600101905060008167ffffffffffffffff81111561038557610385610aa9565b6040519080825280601f01601f1916602001820160405280156103af576020820181803683370190505b5090508181016020015b600019017f3031323334353637383961626364656600000000000000000000000000000000600a86061a8153600a85049450846103f5576103fa565b6103b9565b509392505050565b6000807a184f03e93ff9f4daa797ed6e38ed64bf6a1f010000000000000000831061044b577a184f03e93ff9f4daa797ed6e38ed64bf6a1f010000000000000000830492506040015b6d04ee2d6d415b85acef81000000008310610477576d04ee2d6d415b85acef8100000000830492506020015b662386f26fc10000831061049557662386f26fc10000830492506010015b6305f5e10083106104ad576305f5e100830492506008015b61271083106104c157612710830492506004015b606483106104d3576064830492506002015b600a83106104df576001015b92915050565b8035600381900b81146104f757600080fd5b919050565b6000602080838503121561050f57600080fd5b823567ffffffffffffffff8082111561052757600080fd5b818501915085601f83011261053b57600080fd5b81358181111561054d5761054d610aa9565b61055b848260051b0161084b565b8181528481019250838501600783901b8501860189101561057b57600080fd5b600094505b828510156105f757608080828b03121561059957600080fd5b6105a1610822565b6105aa836104e5565b81526105b78884016104e5565b8882015260408084013580151581146105cf57600080fd5b9082015260606105e08482016104e5565b908201528552600195909501949386019301610580565b50979650505050505050565b60008151610615818560208601610a08565b9290920192915050565b6000885160206106328285838e01610a08565b7f4300000000000000000000000000000000000000000000000000000000000000918401918252895161066b8160018501848e01610a08565b808301925050600b60fa1b806001840152895161068e8160028601858e01610a08565b6002930192830181905288516106aa8160038601858d01610a08565b6003930192830181905287516106c68160048601858c01610a08565b600493019283015285516106e08160058501848a01610a08565b6106ff6106f9600583860101600b60fa1b815260010190565b87610603565b9c9b505050505050505050505050565b60008451610721818460208901610a08565b7f4c00000000000000000000000000000000000000000000000000000000000000908301908152845161075b816001840160208901610a08565b600b60fa1b60019290910191820152835161077d816002840160208801610a08565b0160020195945050505050565b7f4d000000000000000000000000000000000000000000000000000000000000008152600083516107c2816001850160208801610a08565b600b60fa1b60019184019182015283516107e3816002840160208801610a08565b01600201949350505050565b602081526000825180602084015261080e816040850160208701610a08565b601f01601f19169190910160400192915050565b6040516080810167ffffffffffffffff8111828210171561084557610845610aa9565b60405290565b604051601f8201601f1916810167ffffffffffffffff8111828210171561087457610874610aa9565b604052919050565b60008160030b8360030b6000821282637fffffff038213811516156108a3576108a3610a67565b82637fffffff190382128116156108bc576108bc610a67565b50019392505050565b600082198211156108d8576108d8610a67565b500190565b60008160030b8360030b806108f4576108f4610a7d565b637fffffff1982146000198214161561090f5761090f610a67565b90059392505050565b60008160030b8360030b637fffffff60008213600084138383048511828216161561094557610945610a67565b637fffffff19600085128281168783058712161561096557610965610a67565b6000871292508582058712848416161561098157610981610a67565b8585058712818416161561099757610997610a67565b5050509290910295945050505050565b60008160030b8360030b6000811281637fffffff19018312811516156109cf576109cf610a67565b81637fffffff0183138116156109e7576109e7610a67565b5090039392505050565b600082821015610a0357610a03610a67565b500390565b60005b83811015610a23578181015183820152602001610a0b565b83811115610a32576000848401525b50505050565b6000600019821415610a4c57610a4c610a67565b5060010190565b600082610a6257610a62610a7d565b500690565b634e487b7160e01b600052601160045260246000fd5b634e487b7160e01b600052601260045260246000fd5b634e487b7160e01b600052603260045260246000fd5b634e487b7160e01b600052604160045260246000fdfea2646970667358221220fcedf7877026a56d1ad576f056f770efa932d0cf50fad38271738c983f0c20d164736f6c63430008060033",
  "linkReferences": {},
  "deployedLinkReferences": {}
}