{
  "_format": "hh-sol-artifact-1",
  "contractName": "AssetComposerCore",
  "sourceName": "contracts/AssetComposer.sol",
  "abi": [
    {
      "inputs": [
        {
          "internalType": "contract IAssetStoreEx",
          "name": "_assetStore",
          "type": "address"
        },
        {
          "internalType": "contract IAssetProviderRegistry",
          "name": "_registry",
          "type": "address"
        }
      ],
      "stateMutability": "nonpayable",
      "type": "constructor"
    },
    {
      "anonymous": false,
      "inputs": [
        {
          "indexed": false,
          "internalType": "address",
          "name": "from",
          "type": "address"
        },
        {
          "indexed": false,
          "internalType": "uint256",
          "name": "compositionId",
          "type": "uint256"
        }
      ],
      "name": "CompositionRegistered",
      "type": "event"
    },
    {
      "anonymous": false,
      "inputs": [
        {
          "indexed": true,
          "internalType": "address",
          "name": "previousOwner",
          "type": "address"
        },
        {
          "indexed": true,
          "internalType": "address",
          "name": "newOwner",
          "type": "address"
        }
      ],
      "name": "OwnershipTransferred",
      "type": "event"
    },
    {
      "inputs": [],
      "name": "admin",
      "outputs": [
        {
          "internalType": "address",
          "name": "",
          "type": "address"
        }
      ],
      "stateMutability": "view",
      "type": "function"
    },
    {
      "inputs": [],
      "name": "assetStore",
      "outputs": [
        {
          "internalType": "contract IAssetStoreEx",
          "name": "",
          "type": "address"
        }
      ],
      "stateMutability": "view",
      "type": "function"
    },
    {
      "inputs": [
        {
          "internalType": "uint256",
          "name": "",
          "type": "uint256"
        }
      ],
      "name": "disabledComposition",
      "outputs": [
        {
          "internalType": "bool",
          "name": "",
          "type": "bool"
        }
      ],
      "stateMutability": "view",
      "type": "function"
    },
    {
      "inputs": [],
      "name": "nextCompositionId",
      "outputs": [
        {
          "internalType": "uint256",
          "name": "",
          "type": "uint256"
        }
      ],
      "stateMutability": "view",
      "type": "function"
    },
    {
      "inputs": [],
      "name": "owner",
      "outputs": [
        {
          "internalType": "address",
          "name": "",
          "type": "address"
        }
      ],
      "stateMutability": "view",
      "type": "function"
    },
    {
      "inputs": [
        {
          "components": [
            {
              "internalType": "uint256",
              "name": "assetId",
              "type": "uint256"
            },
            {
              "internalType": "string",
              "name": "provider",
              "type": "string"
            },
            {
              "internalType": "string",
              "name": "fill",
              "type": "string"
            },
            {
              "internalType": "string",
              "name": "transform",
              "type": "string"
            },
            {
              "internalType": "uint256",
              "name": "stroke",
              "type": "uint256"
            }
          ],
          "internalType": "struct IAssetComposer.AssetLayer[]",
          "name": "_layers",
          "type": "tuple[]"
        }
      ],
      "name": "registerComposition",
      "outputs": [
        {
          "internalType": "uint256",
          "name": "compositionId",
          "type": "uint256"
        }
      ],
      "stateMutability": "nonpayable",
      "type": "function"
    },
    {
      "inputs": [],
      "name": "registry",
      "outputs": [
        {
          "internalType": "contract IAssetProviderRegistry",
          "name": "",
          "type": "address"
        }
      ],
      "stateMutability": "view",
      "type": "function"
    },
    {
      "inputs": [],
      "name": "renounceOwnership",
      "outputs": [],
      "stateMutability": "nonpayable",
      "type": "function"
    },
    {
      "inputs": [
        {
          "internalType": "address",
          "name": "_admin",
          "type": "address"
        }
      ],
      "name": "setAdmin",
      "outputs": [],
      "stateMutability": "nonpayable",
      "type": "function"
    },
    {
      "inputs": [
        {
          "internalType": "uint256",
          "name": "_compositionId",
          "type": "uint256"
        },
        {
          "internalType": "bool",
          "name": "_status",
          "type": "bool"
        }
      ],
      "name": "setDisabledComposition",
      "outputs": [],
      "stateMutability": "nonpayable",
      "type": "function"
    },
    {
      "inputs": [
        {
          "internalType": "address",
          "name": "newOwner",
          "type": "address"
        }
      ],
      "name": "transferOwnership",
      "outputs": [],
      "stateMutability": "nonpayable",
      "type": "function"
    },
    {
      "inputs": [],
      "name": "withdraw",
      "outputs": [],
      "stateMutability": "nonpayable",
      "type": "function"
    }
  ],
  "bytecode": "0x60c060405234801561001057600080fd5b50604051610f46380380610f4683398101604081905261002f916100c8565b61003833610078565b600054600180546001600160a01b0319166001600160a01b039092169190911790556001600160601b0319606092831b8116608052911b1660a05261011a565b600080546001600160a01b038381166001600160a01b0319831681178455604051919092169283917f8be0079c531659141344cd1fd0a4f28419497f9722a3daafe3b4186f6b6457e09190a35050565b600080604083850312156100db57600080fd5b82516100e681610102565b60208401519092506100f781610102565b809150509250929050565b6001600160a01b038116811461011757600080fd5b50565b60805160601c60a05160601c610df46101526000396000818161017a015261046b01526000818160e8015261037a0152610df46000f3fe608060405234801561001057600080fd5b50600436106100d45760003560e01c80638da5cb5b11610081578063f2c593ee1161005b578063f2c593ee146101d7578063f2fde38b146101ea578063f851a440146101fd57600080fd5b80638da5cb5b1461019c578063c6f7509c146101ad578063ea575c61146101c057600080fd5b8063715018a6116100b2578063715018a61461013a57806379363801146101425780637b1039991461017557600080fd5b80633ccfd60b146100d9578063597a0e36146100e3578063704b6c0214610127575b600080fd5b6100e1610210565b005b61010a7f000000000000000000000000000000000000000000000000000000000000000081565b6040516001600160a01b0390911681526020015b60405180910390f35b6100e1610135366004610a3a565b610261565b6100e1610298565b610165610150366004610bef565b60026020526000908152604090205460ff1681565b604051901515815260200161011e565b61010a7f000000000000000000000000000000000000000000000000000000000000000081565b6000546001600160a01b031661010a565b6100e16101bb366004610c21565b6102ac565b6101c960035481565b60405190815260200161011e565b6101c96101e5366004610a5e565b610375565b6100e16101f8366004610a3a565b6107ea565b60015461010a906001600160a01b031681565b61021861087a565b600080546001600160a01b03166040519091506001600160a01b038216904780156108fc02916000818181858888f1935050505015801561025d573d6000803e3d6000fd5b5050565b61026961087a565b6001805473ffffffffffffffffffffffffffffffffffffffff19166001600160a01b0392909216919091179055565b6102a061087a565b6102aa60006108d4565b565b336102bf6000546001600160a01b031690565b6001600160a01b031614806102de57506001546001600160a01b031633145b6103555760405162461bcd60e51b815260206004820152602660248201527f4173736574436f6d706f7365723a2063616c6c6572206973206e6f742074686560448201527f2061646d696e000000000000000000000000000000000000000000000000000060648201526084015b60405180910390fd5b600091825260026020526040909120805460ff1916911515919091179055565b6000807f00000000000000000000000000000000000000000000000000000000000000006001600160a01b031663a57cfb246040518163ffffffff1660e01b815260040160206040518083038186803b1580156103d157600080fd5b505afa1580156103e5573d6000803e3d6000fd5b505050506040513d601f19601f820116820180604052508101906104099190610bd2565b60038054919250600061041b83610d46565b9091555083516000828152600460205260408120919091559092505b83518110156107aa57600084828151811061045457610454610d6f565b6020026020010151905060008160000151905060007f00000000000000000000000000000000000000000000000000000000000000006001600160a01b0316634854078f84602001516040518263ffffffff1660e01b81526004016104b99190610c9e565b60206040518083038186803b1580156104d157600080fd5b505afa1580156104e5573d6000803e3d6000fd5b505050506040513d601f19601f820116820180604052508101906105099190610c08565b6040805180820182526fffffffffffffffffffffffffffffffff8084168252858116602080840191825260008c8152600582528581208b82529091529390932091519251811670010000000000000000000000000000000002921691909117905560608401518051919250901561066b5760405163c16e50ef60e01b81526001600160a01b0387169063c16e50ef906105a6908490600401610c9e565b60206040518083038186803b1580156105be57600080fd5b505afa1580156105d2573d6000803e3d6000fd5b505050506040513d601f19601f820116820180604052508101906105f69190610bb5565b6106425760405162461bcd60e51b815260206004820152601b60248201527f72656769737465723a20496e76616c6964207472616e73666f726d0000000000604482015260640161034c565b60008781526006602090815260408083208884528252909120825161066992840190610931565b505b60408401518051156107685760405163c16e50ef60e01b81526001600160a01b0388169063c16e50ef906106a3908490600401610c9e565b60206040518083038186803b1580156106bb57600080fd5b505afa1580156106cf573d6000803e3d6000fd5b505050506040513d601f19601f820116820180604052508101906106f39190610bb5565b61073f5760405162461bcd60e51b815260206004820152601660248201527f72656769737465723a20496e76616c69642066696c6c00000000000000000000604482015260640161034c565b60008881526007602090815260408083208984528252909120825161076692840190610931565b505b60808501511561079257608085015160008981526008602090815260408083208a84529091529020555b505050505080806107a290610d46565b915050610437565b5060408051338152602081018490527fb6b49fb493aab716d37ffe3ad9f192adb9d7c116b0ca7423db8d0e56a1dc93b2910160405180910390a150919050565b6107f261087a565b6001600160a01b03811661086e5760405162461bcd60e51b815260206004820152602660248201527f4f776e61626c653a206e6577206f776e657220697320746865207a65726f206160448201527f6464726573730000000000000000000000000000000000000000000000000000606482015260840161034c565b610877816108d4565b50565b6000546001600160a01b031633146102aa5760405162461bcd60e51b815260206004820181905260248201527f4f776e61626c653a2063616c6c6572206973206e6f7420746865206f776e6572604482015260640161034c565b600080546001600160a01b0383811673ffffffffffffffffffffffffffffffffffffffff19831681178455604051919092169283917f8be0079c531659141344cd1fd0a4f28419497f9722a3daafe3b4186f6b6457e09190a35050565b82805461093d90610d0b565b90600052602060002090601f01602090048101928261095f57600085556109a5565b82601f1061097857805160ff19168380011785556109a5565b828001600101855582156109a5579182015b828111156109a557825182559160200191906001019061098a565b506109b19291506109b5565b5090565b5b808211156109b157600081556001016109b6565b600082601f8301126109db57600080fd5b813567ffffffffffffffff8111156109f5576109f5610d85565b610a08601f8201601f1916602001610cda565b818152846020838601011115610a1d57600080fd5b816020850160208301376000918101602001919091529392505050565b600060208284031215610a4c57600080fd5b8135610a5781610d9b565b9392505050565b60006020808385031215610a7157600080fd5b823567ffffffffffffffff80821115610a8957600080fd5b818501915085601f830112610a9d57600080fd5b813581811115610aaf57610aaf610d85565b8060051b610abe858201610cda565b8281528581019085870183870188018b1015610ad957600080fd5b600093505b84841015610ba757803586811115610af557600080fd5b870160a0818d03601f1901811315610b0c57600080fd5b610b14610cb1565b8a8301358152604083013589811115610b2c57600080fd5b610b3a8f8d838701016109ca565b8c83015250606083013589811115610b5157600080fd5b610b5f8f8d838701016109ca565b604083015250608083013589811115610b7757600080fd5b610b858f8d838701016109ca565b6060830152509101356080820152835260019390930192918701918701610ade565b509998505050505050505050565b600060208284031215610bc757600080fd5b8151610a5781610db0565b600060208284031215610be457600080fd5b8151610a5781610d9b565b600060208284031215610c0157600080fd5b5035919050565b600060208284031215610c1a57600080fd5b5051919050565b60008060408385031215610c3457600080fd5b823591506020830135610c4681610db0565b809150509250929050565b6000815180845260005b81811015610c7757602081850181015186830182015201610c5b565b81811115610c89576000602083870101525b50601f01601f19169290920160200192915050565b602081526000610a576020830184610c51565b60405160a0810167ffffffffffffffff81118282101715610cd457610cd4610d85565b60405290565b604051601f8201601f1916810167ffffffffffffffff81118282101715610d0357610d03610d85565b604052919050565b600181811c90821680610d1f57607f821691505b60208210811415610d4057634e487b7160e01b600052602260045260246000fd5b50919050565b6000600019821415610d6857634e487b7160e01b600052601160045260246000fd5b5060010190565b634e487b7160e01b600052603260045260246000fd5b634e487b7160e01b600052604160045260246000fd5b6001600160a01b038116811461087757600080fd5b801515811461087757600080fdfea2646970667358221220e1196c5e267170acb03f1e42f14bb55d8a9c12135b4958f4a8ac28ea973d4c7364736f6c63430008060033",
  "linkReferences": {},
  "deployedLinkReferences": {}
}